:400000000080002011000000611400006114000008B5044B1A6803F53F5302331A6001F03FFA00BFFA46004010B5054C237833B9044B13B10448AFF300800123237010BD53
:400040008887FF1F00000000902E0000084B10B51BB108490848AFF300800848036803B910BD074B002BFBD0BDE81040184700BF000000008C87FF1F902E0000C880FF1FFA
:400080000000000030B484B08DE80F00034D9DE80F0085E80F0004B030BC7047A487FF1F2DE9F0410746884616461D46104C236800219847A36840469847636898472368F7
:4000C00001213846984700240AE0094BDB68681E8442ACBF00200120984730550134E4B2AC42F2D3024B5B689847BDE8F08100BFA487FF1F2DE9F8430D46914698460D4B44
:400100001B680021984700240CE00A4EB3686F1CFFB228469847B36819F8040098470134E4B23D464445F0D3024B5B689847BDE8F88300BFA487FF1F00B583B002AAB62303
:4001400002F8013D0123E0217620FFF7D3FF03B05DF804FB00B58BB00AAA002302F8013D0123D0217620FFF79BFF1A2303AA88217620FFF795FF072301AAE1217620FFF76D
:400180008FFF9DF80C209DF80D103D4B42EA01229A839DF80E209DF80F1042EA0122DA839DF810209DF8111042EA01221A849DF812209DF8131042EA01225A849DF814204A
:4001C0009DF8151042EA01229A849DF816209DF8171042EA0122DA849DF818209DF8191042EA01221A859DF81A209DF81B1042EA01225A859DF81C209DF81D1042EA01228C
:400200009A859DF81E209DF81F1042EA0122DA859DF820209DF8211042EA01221A869DF822209DF8231042EA01225A869DF8252083F834209DF804209DF8051042EA0122A7
:40024000A3F835209DF8062083F837209DF808209DF8070042F00F0141EA001119879DF8091042F0F00242EA01125A879DF90A2083F83C20FFF760FF0BB05DF804FB00BFDE
:40028000A487FF1F10B5084C082304F11002F7217620FFF705FF042304F11802F2217620FFF7FEFE10BD00BFA487FF1F2DE9F84F08B1FFF7E7FF404C607D237D1B0143EA18
:4002C0001013E07C43EA003001F01CFE8046894600223A4B01F08CFE06460F46A08B01F011FE82468B460022354B01F081FE02460B463046394601F0C7FC06460F46B4F959
:400300001E0001F00FFE02460B463046394601F06FFE06460F4600222A4B4046494601F067FE804689460022274B5046594601F05FFE02460B464046494601F0A5FC0246DE
:400340000B4601F055FE80468946B4F9200001F0E9FD02460B464046494601F049FE02460B463046394601F091FC06460F4602F0D9F8C4F83D000022144B3046394601F0F9
:4003800061FF04460D460022114B02F0A3F838B90022104B2046294602F0BAF818B904E000240B4D01E000240A4D2046294602F0B9F840B2BDE8F88FA487FF1F0000103F93
:4003C0000000503F0000E03E0000203F0000B440000044C0004055402DE9F84F08B1FFF751FF954CA37C657C2D0145EA1313257C43EA0535D4F83D0001F094FD00228F4BD5
:4004000001F0F6FD00228E4B01F03EFC06460F4602460B4601F0ECFD80468946B4F92C0001F080FD02460B464046494601F0E0FD00224FF07C5301F0DBFD80468946B4F90B
:400440002A0001F06FFD02460B463046394601F0CFFD02460B4601F019FC02460B464046494601F013FC0022764B01F0C1FD80468946B4F9280001F055FD0022724B01F04E
:40048000B7FD02460B464046494601F0FFFB82468B46B4F9260001F045FD02460B463046394601F0A5FD02460B463046394601F09FFD00224FF07B5301F09AFD80468946C8
:4004C000B4F9240001F02EFD02460B463046394601F08EFD02460B464046494601F0D6FB00224FF07B5301F083FD00224FF07C5301F07EFD0022554B01F0C8FB06460F4642
:40050000608C01F0FFFC02460B463046394601F06FFD80468946284601F0F4FC02460B4600204B4901F0B0FB06460F460022494B5046594601F05CFD02460B4630463946C7
:4005400001F0A2FB36A3D3E9002301F051FD42464B4601F077FE06460F46B4F9320001F0E1FC02460B463046394601F041FD02460B463046394601F03BFD00224FF0785389
:4005800001F036FD80468946B4F9300001F0CAFC02460B463046394601F02AFD00224FF07C5301F025FD02460B464046494601F06DFB80468946B4F92E0001F0B3FC0246A6
:4005C0000B464046494601F061FB0022224B01F00FFD02460B463046394601F057FB04460D4611A3D3E9002301F074FF40B910A3D3E900232046294601F08AFF20B906E0BE
:4006000009A5D5E9004502E009A5D5E900452046294601F0AFFFBDE8F88F00BFAFF3008000000000006AB84000000000004CDD400000000000DBFA40A487FF1F0000E03FAD
:400640000040EF400000D03F0000F0400000F03F000030410000303F0000B03F2DE9F04784B008B1FFF70EFEDFF898A19AF817309AF8168043EA0828DAF83D0001F052FCD6
:400680000022594B01F000FB06460F46BAF9380001F048FC0022554B01F0AAFC04460D46BAF93A0001F03EFC0022514B01F0A0FC02460B463046394601F09AFC02460B46C0
:4006C0002046294601F0E2FA04460D46404601F019FC22462B4601F0D7FACDE90001BAF9350001F01FFC0022424B01F081FCCDE902019AF8370001F005FC00223E4B01F0BC
:4007000077FC02460B463046394601F071FC00223A4B01F0BBFA04460D469AF93C0001F001FC0022344B01F063FC02460B463046394601F05DFC02460B462046294601F08B
:4007400057FC00222D4B01F0A1FA80468946DDE90223DDE9000101F04BFC06460F4642464B462046294601F043FC02460B463046394601F03DFC04460D469AF8340001F0B6
:40078000C1FB02460B462046294601F031FC00224FF07B5301F02CFC02460B460020174901F072FA02460B462046294601F020FC04460D460022124B01F0AAFE38B90022F0
:4007C00000232046294601F085FE28B102E000240B4D01E0002400252046294601F0CAFEC0B204B0BDE8F08700C0F240000050400000103F0000F03E0000503E0000F03FA0
:4008000000005940A487FF1F024B187E00F00700704700BFA487FF1F08B5064A137E03F00703184302F8180F0123F2217620FFF761FC08BDA487FF1F024B987E00F0E000C5
:40084000704700BFA487FF1F08B5064A937E03F01F03184302F81A0F0123F4217620FFF749FC08BDA487FF1F024B987E00F01C00704700BFA487FF1F08B5064A937E03F0B1
:40088000E303184302F81A0F0123F4217620FFF731FC08BDA487FF1F024B987E00F00300704700BFA487FF1F08B5064A937E03F0FC03184302F81A0F0123F4217620FFF76C
:4008C00019FC08BDA487FF1F024BD87E00F01C00704700BFA487FF1F08B5064AD37E03F0E303184302F81B0F0123F5217620FFF701FC08BDA487FF1F10B485B001AB83E8D0
:400900000700044C93E8070084E8070005B010BC704700BFE887FF1F70B506460D460B4C236800213C209847A36800209847002405E0064B9B68305D98470134E4B2AC4259
:40094000F7D3024B5B68984770BD00BFE887FF1F70B506460D460B4C236800213C209847A36840209847002405E0064B9B68305D98470134A4B2AC42F7D3024B5B689847FE
:4009800070BD00BFE887FF1F10F0800F19D13F2917D8CB0800EBC31001F0070142B1012303FA01F1074B1844037B194301737047012303FA01F1034B1844037B23EA010161
:4009C00001737047E887FF1F002304E0044A1A44002111730133B3F5806FF7D3704700BFE887FF1F30B589B00A4D01AC28686968AA68EB680FC42869696903C42A8BAB7E8C
:400A00002280A370192101A8FFF786FFFFF7DCFF09B030BD942E000010B5114C236800213C209847A36800209847A36821209847A36800209847A3687F209847A36822204C
:400A40009847A36800209847A36807209847636898474FF4806104F10C00FFF779FF10BDE887FF1F08B500F0B9F8044B044A07CA83E8070000229A81DA8108BDF48BFF1FAD
:400A8000B02E000008B500F0B9F808BD08B500F0BBF808BD2DE9F04782B082460B462249096801EBC20292E8030002AA02E903009DF804709DF8069057444F44BFB29DF86D
:400AC00005809DF80720984490441FFA88F813449EB224E00AEB0904A4B21CE0009DEA0805F00703104949688A5CC3F1070342FA03F313F0010F05D001223146204600F027
:400B000087F804E000223146204600F081F8013500950134A4B2BC42E0D30136B6B24645D8D302B0BDE8F087F48BFF1F014B9881D9817047F48BFF1F30B583B00246134CD1
:400B4000236803EBC00393E8030002AB03E903009DF80450A3892B44802B09DD0021A1819DF805009DF807100844E1890144E181064CE189A089FFF78DFF9DF80630EA18F0
:400B8000A3891344A38103B030BD00BFF48BFF1F08B5FFF7D1FFFFF779FF08BD10B5044613E00A2808D10C4B00229A81197ADA890A44DA81013408E01F2801D8013404E046
:400BC0000134203880B2FFF7B7FF20780028E8D1FFF75CFF10BD00BFF48BFF1F00B585B0054A01AB07CA83E80700FFF785FEFFF7F9FE05B05DF804FBBC2E000008B5FFF763
:400C0000E3FEFFF709FF08BD08B5FFF705FF08BD08B5C9B2C0B2FFF7B7FE08BD08B500F011F808BD08B500F011F808BD08B500F011F808BD08B500F011F808BD08B500F0E1
:400C400011F808BD08B500F0CBFC08BD08B500F043FE08BD08B500F07FFE08BD08B500F0C3FE08BD08B500F093FE08BD38B50120FFF71CFB01F056F904460D460120FFF786
:400C800013FE2046294638BD08B5C0B2FFF70CFE08BD00BF38B50120FFF79EFB01F032F904460D460120FFF7FFFD2046294638BD38B50120FFF7D2FC01F024F904460D46F6
:400CC0000120FFF7F1FD2046294638BD08B5C0B2FFF702FE08BD00BF08B5FFF7F5FDC0B2002108BD08B5C0B2FFF7AEFD08BD00BF08B5FFF7A1FDC0B2002108BD08B5C0B253
:400D0000FFF7BAFD08BD00BF08B5FFF7ADFDC0B2002108BD08B5C0B2FFF77EFD08BD00BF08B5FFF771FDC0B2002108BD08B5FFF7B3FDC0B2002108BD2DE9F04786B0344C72
:400D4000344B0093002200233349204600F09EF8324B0093002200233149204600F096F8304B0093002200232F49204600F08EF8DFF8ECA02D4B2E4A5146204600F020F901
:400D8000DFF8E0902B4B2C4A4946204600F018F9DFF8D480294B2A4A4146204600F010F9284F294B294A3946204600F009F9284E284B294A3146204600F002F9274B02AD97
:400DC0000FCB85E80F00FFF75DF9FFF7C3F9002200235146204600F01FF9202200234946204600F019F9042200234146204600F013F9012200233946204600F00DF9012283
:400E000000233146204600F007F906B0BDE8F087E42E00006D0C0000D82E0000950C0000EC2E0000B10C0000F82E0000CD0C0000D90C0000E50C0000F10C0000FD0C00000C
:400E4000090D00002C2F0000150D0000210D00003C2F0000890C00002D0D0000C82E0000042F00000C2F00001C2F000008B500F04DF9054B05200021C3E90001032000214E
:400E8000C3E9020108BD00BF088CFF1F2DE9F043134ED6E9024514F1010845F10009C6E90289A50005EB040E4FEACE07BE463744386170463044416171463144C1E906237E
:400EC0000B4600200021C3E908017346334400200021C3E90A017644079B3363BDE8F083088CFF1FF8B506460F46002400252AE004EB8402D300184A13443146186901F03C
:400F0000BDFBE8B904EB8402D300134A13443946586901F0B3FB98B90F4DA6003219D3002B441B6B98473219D3001A462B44C3E90A0113462B4400200021C3E90801F8BD21
:400F4000013445F10005044BD3E902239D4208BF9442CDD3F8BD00BF088CFF1FF8B506460F46002400251EE004EB8402D300134A13443146186901F081FB88B904EB8402E3
:400F8000D3000E4A13443946586901F077FB38B904EB8404E300094A1344D3E90A01F8BD013445F10005054BD3E902239D4208BF9442D9D300200021F8BD00BF088CFF1F6B
:400FC0002DE9F043134ED6E9004514F1010845F10009C6E90089650005EB040E4FEACE07BE463744C7F8100570463044C0F8141506F5A267714639444FF000084FF0000924
:40100000C1E9028971463144C1F82025C1F82435BDE8F083088CFF1F2DE9F8438046894616461F46002400252CE004EB4402D300194A13444146D3F8100501F01FFBF0B99C
:4010400004EB4402D300144A13444946D3F8140501F014FB98B9104901F5A26563001819C20010462A44C2E9026703460B44D3F8243573B1304639469847BDE8F883013462
:4010800045F10005044BD3E900239D4208BF9442CBD3BDE8F88300BF088CFF1FF8B50024002529E0184FA3001A19D1003944D1E90801013041F100011A19D6003E44C6E931
:4010C0000801D6E90623994208BF904211D1A6003219D3003B441B6B98473219D3001A463B44C3E90A0113463B4400200021C3E90801013445F10005034BD3E902239D4201
:4011000008BF9442CED3F8BD088CFF1F08B500F01FFD034800F044FDFFF70EFE08BD00BF9D10000008B500F0ABFC08BD08B5FFF7F9FF08BDF0B58FB02A4F2B4C3946204650
:40114000FFF7D0FE294E31462046FFF7CBFE284D29462046FFF7C6FEFA2000F03FFD39462046FFF7FBFE01F0DDF9074631462046FFF7F4FE01F0D6F9064629462046FFF7CA
:40118000EDFE01F0CFF905463A461A4901A801F051FAFFF777FC00210846FFF7C7FC01A8FFF7FCFC5F20FFF7F3FC134C2046FFF7F5FC3246114901A801F03CFA01A8FFF7FF
:4011C000EDFC6220FFF7E4FC2046FFF7E7FC2A460B4901A801F02EFA01A8FFF7DFFC0FB0F0BD00BFD82E0000E42E0000EC2E0000F82E0000542F00006C2F00005C2F000043
:40120000642F000008B562B6FFF708FDFFF72AFCFFF78CFFFFF72AFEFFF78CFFFCE700BFFEE700BFF0B40022174611E050F82760F3B226F0FF0608E001EB420511F81240B0
:401240006D78A5550132013BDBB2002BF4D10137182FEBD9F0BC7047064B1B78DBB203F00701054A11701B09013213704422034B1A707047CF0100496E58004076580040C5
:4012800008B50A46002101F0CCF908BD38B51925264B1D80182202331A7043F6972202331A8002331D70022203F27A231A7008224FF040231A70032103F5007319701C4BBB
:4012C0001B78DBB21B490B701B4B1A8041F25122023B1A8000240CE0184B1B7803F0010343EA440404F003044FF4F07000F0B8FC013D0DB1032CEFD115B90320FFF790FF5D
:401300000F4B4FF480721A8007221A7000220D490A704820023108701A700222033B1A70094A137843F00303137038BD8040004008010049A1460040224200402542004003
:401340000440004006400040A243004008B501F05DF908BD38B572B6324A137843F00403137000240CE0304D630019194A0011462A44084691882858FFF782FF0134E4B242
:40138000092CF0D900240BE02749A3001819420088180622016CC06BFFF7D8FF0134E4B2002CF1D021494FF09040FFF73BFF204A204B1A60204A137843F0020313701032CB
:4013C000137843F0020313701C4C237843F040032370A2F58632513A137843F0100313700A2217491748FFF7B1FF082216491748FFF7ACFF164A137843F008031370154D45
:4014000061232B70FFF742FF81232B700122124B1A70FFF721FF0E2221461048FFF796FF38BD00BFE8460040702F000064000048040400C4581A014003500140A0430040DA
:40144000C0040048C0510040CC04004812510040224300400048004004000840B043004008B501F0A7F803680C2B00D1FEE7FEE708B5094B1A681044084BC31A802B02DC7E
:40148000054B186005E001F095F80C2303604FF0FF32104608BD00BF0C87FF1F4094FF1F08B5104E104D16E029686B68AC68002204E051F8040B43F8040B0432A242F8D111
:4014C000E868002203E0002143F8041B04328242F9D11035013E002EE6D101F071F8FFF791FEFEE7010000007030000008B5104A104B1A60104A136843F400731360002389
:401500000AE0032B03D80D4A52F8231000E00C490C4A42F8231001332F2BF2D90A4B1A780A4B1A70074A0A4B1A60FFF713FF08BD0004FA050CED00E014ED00E00000000023
:40154000611400000080FF1FBC760040C080FF1F08ED00E038B50222114B1A7081220E3B1A70082202331A700F2511331D70002401331C704FF400420A4B1A60072128468A
:4015800000F056FB0849284600F03EFB1022074B1A70074B1C70074B1C70074B1C7038BDD649004080E100E0091600002494FF1F2A94FF1F3294FF1F2894FF1F08B500F089
:4015C00057FB064A137843F0040313701032137843F00403137000F04FFB08BDA543004008B5074B1B7823B9FFF7B4FF0122044B1A70FFF7E3FF4FF40042024B1A6008BD44
:401600001894FF1F00E100E038B5A54B1C78A54B1B7813F0400F00F03A81E4B214F0010F00F01D819F4B1B78453B052B00F21481DFE813F006008200120112010600DF00E5
:4016400004F0DF0504F00A04082C42D1954B1B78DBB2452B35D1944B1B7813F0FF0F10D0924B1B681B78DBB2914A137004228C4B1A7001228F4B1A7046228A4B1A702C464B
:40168000EDE08D4B1B7813F0020F0DD08B4A137843F00A0313706022824B1A704FF40042874B1A602C46DAE0864A137843F0100313701022844B1A700422023B1A702C46FA
:4016C000CDE00022764B1A704A22764B1A702C46C5E00A2C2BD1794A137843F0A0031370754B1B7813F0020F14D06E4B1B7813F0080F01D0092300E00A23704A11780B43DD
:4017000013706022674B1A704FF400426C4B1A602C46A4E06B4A137843F0100313701022694B1A700422023B1A702C4697E0002000F052FA2C4692E014F0020F36D15D4B69
:401740001A78D2B2584B1B78DBB29A4210D2594A1378DBB255490968CB5CDBB254490B7004214F4B197013780133DBB2137076E0514B1B7813F0020F0CD0504A137843F058
:401780000A0313706022474B1A704FF400424C4B1A6064E04B4A137843F0100313701022494B1A700422023B1A7058E0424B1B7813F0020F0CD0414A137843F09A0313704A
:4017C0006022384B1A704FF400423D4B1A6046E03C4A137843F01003137010223A4B1A700422023B1A70354A137843F09003137035E0364A1378DBB2354908682C490978C1
:40180000C9B2C15413780133DBB213701278D2B2304B1B78DBB29A4203D21022204B1A701DE0254B1B7813F0020F0CD0234A137843F00903137060221A4B1A704FF4004228
:401840001F4B1A600BE01F4A137843F0100313700022134B1A7002E0002000F0BDF914F0200F1CD00F4B1B7813F0080F01D0012300E00223114A11780B431370114A13786F
:4018800003F0EF0313701022064B1A7038BD054B1B7813F0100F02D11022024B1A7038BDD74900402494FF1F2994FF1F3494FF1FD84900402894FF1F3094FF1F2A94FF1FF8
:4018C00080E100E0D6490040D94900403294FF1F2C94FF1F3194FF1F1A4B1B78DBB2102B29D1194B1B7813F0080F26D14FF40042164B1A604000C0B229B140F001004922F7
:40190000104B1A7002E045220E4B1A70104B1870012201331A700F4B1B7813F0010FFAD00C4B1B7803F00A030A2B08D11022054B1A70032070470220704701207047002059
:40194000704700BF2494FF1FD949004080E100E0D8490040D74900400A4B1B7813F0040F0ED01023074A13700421023A1170064A1370064B1B7813F0210FFAD00020704767
:4019800002207047D94900402494FF1FD7490040114B1B7813F0040F1BD0104B18700422013B1A7046220E4B1A700E4B1B7813F0010FFAD00B4B1B7813F0020F04D160228F
:4019C000074B1A70002070476022054B1A70032070470220704700BFD9490040D84900402494FF1FD7490040114B1B7813F0040F1BD0104B1B78DBB2492B05D100220E4B3D
:401A00001A704A220B4B1A700B4B1B7813F0010FFAD00A4B1B78DBB218B11021064A117004E06021034A117000E0002318467047D94900402494FF1FD7490040D849004086
:401A40007222034B1A70002202331A70704700BF8865004010B500F00BF90446074A137843F0200313700232137843F01003137000F0A4F8204600F0FFF810BD9865004053
:401A800008B5054B1B7823B9FFF7DAFF0122024B1A70FFF7DFFF08BD1994FF1F084A137843F0010313701032137843F00103137002F64D32137843F001031370704700BF2D
:401AC000A3430040014B1870704700BF034F0040014B1880704700BF044F0040014B1880704700BF064F004008B5164A137803F0010313700232137803F0FC031370124B55
:401B00001A7802F0CF021A701A7842F030021A701A7802F0F0021A701A7842F00F021A700A4A137843F00103137045F6BF50FFF7CFFF45F6BF50FFF7D1FF0020FFF7C2FF59
:401B400008BD00BF004F00400B4F0040014F004008B5054B1B7823B9FFF7C6FF0122024B1A70FFF79BFF08BD1A94FF1F014B1B68D864704708ED00E04001C0B2014B1870B8
:401B8000704700BF03E400E00822014B1A60704700E100E00822014B1A60704780E100E010B50446FFF7F6FF2046FFF7DFFF0720FFF7E2FFFFF7E8FF10BD00BF054A137823
:401BC00043F0010313701032137843F001031370704700BFA243004001BE704710B5044605E0084B186800F03BF8A4F50044B4F5004FF6D8034B586800FB04F000F030F8F1
:401C000010BD00BF1087FF1F70B504460E46074B1D681F2802D90020FFF7DEFF04F01F04103455F8240045F8246070BD08ED00E038B504460D46072902D90020FFF7CCFFAF
:401C40001F2C02D90020FFF7C7FF04F01F0000F1604000F564406D01EDB2057038BD00BF0230800803D000BF01380046FCD17047EFF3108072B6704780F31088704700BFCE
:401C800081F0004102E000BF83F0004330B54FEA41044FEA430594EA050F08BF90EA020F1FBF54EA000C55EA020C7FEA645C7FEA655C00F0E2804FEA5454D4EB5555B8BF78
:401CC0006D420CDD2C4480EA020281EA030382EA000083EA010180EA020281EA0303362D88BF30BD11F0004F4FEA01314FF4801C4CEA113102D0404261EB410113F0004F66
:401D00004FEA03334CEA133302D0524263EB430394EA050F00F0A780A4F10104D5F1200E0DDB02FA0EFC22FA05F2801841F1000103FA0EF2801843FA05F359410EE0A5F1D3
:401D400020050EF1200E012A03FA0EFC28BF4CF0020C43FA05F3C01851EBE37101F0004507D54FF0000EDCF1000C7EEB00006EEB0101B1F5801F1BD3B1F5001F0CD34908ED
:401D80005FEA30004FEA3C0C04F101044FEA445212F5800F80F09A80BCF1004F08BF5FEA500C50F1000041EB045141EA050130BD5FEA4C0C404141EB010111F4801FA4F16F
:401DC0000104E9D191F0000F04BF01460020B1FA81F308BF2033A3F10B03B3F120020CDA0C3208DD02F1140CC2F10C0201FA0CF021FA02F10CE002F11402D8BFC2F1200C7C
:401E000001FA02F120FA0CFCDCBF41EA0C019040E41AA2BF01EB0451294330BD6FEA04041F3C1CDA0C340EDC04F11404C4F1200220FA04F001FA02F340EA030021FA04F3F9
:401E400045EA030130BDC4F10C04C4F1200220FA02F001FA04F340EA0300294630BD21FA04F0294630BD94F0000F83F4801306BF81F480110134013D4EE77FEA645C18BFA4
:401E80007FEA655C29D094EA050F08BF90EA020F05D054EA000C04BF1946104630BD91EA030F1EBF0021002030BD5FEA545C05D14000494128BF41F0004130BD14F5800493
:401EC0003CBF01F5801130BD01F0004545F0FE4141F470014FF0000030BD7FEA645C1ABF194610467FEA655C1CBF0B46024650EA013406BF52EA033591EA030F41F4002117
:401F000030BD00BF90F0000F04BF0021704730B54FF4806404F132044FF000054FF0000150E700BF90F0000F04BF0021704730B54FF4806404F1320410F0004548BF4042EB
:401F40004FF000013EE700BF42004FEAE2014FEA31014FEA02701FBF12F07F4393F07F4F81F06051704792F0000F14BF93F07F4F704730B54FF4607401F0004521F000410D
:401F800020E700BF50EA010208BF704730B54FF000050AE050EA010208BF704730B511F0004502D5404261EB41014FF4806404F132045FEA915C3FF4DCAE4FF003025FEAEE
:401FC000DC0C18BF03325FEADC0C18BF033202EBDC02C2F1200300FA03FC20FA02F001FA03FE40EA0E0021FA02F11444C1E600BF70B54FF0FF0C4CF4E06C1CEA11541DBFC8
:402000001CEA135594EA0C0F95EA0C0F00F0DEF82C4481EA030621EA4C5123EA4C5350EA013518BF52EA033541F4801143F4801338D0A0FB02CE4FF00005E1FB02E506F046
:402040000042E0FB03E54FF00006E1FB03569CF0000F18BF4EF0010EA4F1FF04B6F5007F64F5407404D25FEA4E0E6D4146EB060642EAC62141EA55514FEAC52040EA5E5013
:402080004FEACE2EB4F1FD0C88BFBCF5E06F1ED8BEF1004F08BF5FEA500E50F1000041EB045170BD06F0004646EA010140EA020081EA0301B4EB5C04C2BFD4EB0C0541EA21
:4020C000045170BD41F480114FF0000E013C00F3AB8014F1360FDEBF002001F0004170BDC4F10004203C35DA0C341BDC04F11404C4F1200500FA05F320FA04F001FA05F256
:4021000040EA020001F0004221F0004110EBD37021FA04F642EB06015EEA430E08BF20EAD37070BDC4F10C04C4F1200500FA04F320FA05F001FA04F240EA020001F000419F
:4021400010EBD37041F100015EEA430E08BF20EAD37070BDC4F1200500FA05F24EEA020E20FA04F301FA05F243EA020321FA04F001F0004121FA04F220EA020000EBD37040
:402180005EEA430E08BF20EAD37070BD94F0000F0FD101F00046400041EB010111F4801F08BF013CF7D041EA060195F0000F18BF704703F00046520043EB030313F4801F05
:4021C00008BF013DF7D043EA0603704794EA0C0F0CEA135518BF95EA0C0F0CD050EA410618BF52EA4306D1D181EA030101F000414FF0000070BD50EA410606BF104619465B
:4022000052EA430619D094EA0C0F02D150EA013613D195EA0C0F05D152EA03361CBF104619460AD181EA030101F0004141F0FE4141F470014FF0000070BD41F0FE4141F457
:40224000780170BD70B54FF0FF0C4CF4E06C1CEA11541DBF1CEA135594EA0C0F95EA0C0F00F0A7F8A4EB050481EA030E52EA03354FEA013100F088804FEA03334FF08055D8
:4022800045EA131343EA12634FEA022245EA111545EA10654FEA00260EF000419D4208BF964244F1FD0404F5407402D25B084FEA3202B61A65EB03055B084FEA32024FF4F3
:4022C00080104FF4002CB6EB020E75EB030E22BFB61A754640EA0C005B084FEA3202B6EB020E75EB030E22BFB61A754640EA5C005B084FEA3202B6EB020E75EB030E22BF64
:40230000B61A754640EA9C005B084FEA3202B6EB020E75EB030E22BFB61A754640EADC0055EA060E18D04FEA051545EA16754FEA06164FEAC30343EA52734FEAC2025FEA14
:402340001C1CC0D111F4801F0BD141EA00014FF000004FF0004CB6E711F4801F04BF01430020B4F1FD0C88BFBCF5E06F3FF6AFAEB5EB030C04BFB6EB020C5FEA500C50F128
:40238000000041EB045170BD0EF0004E4EEA113114EB5C04C2BFD4EB0C0541EA045170BD41F480114FF0000E013C90E645EA060E8DE60CEA135594EA0C0F08BF95EA0C0F78
:4023C0003FF43BAF94EA0C0F0AD150EA01347FF434AF95EA0C0F7FF425AF104619462CE795EA0C0F06D152EA03353FF4FDAE1046194622E750EA410618BF52EA43067FF40D
:40240000C5AE50EA41047FF40DAF52EA43057FF4EBAE12E74FF0FF3C06E000BF4FF0010C02E000BF4FF0010C4DF804CD4FEA410C7FEA6C5C4FEA430C18BF7FEA6C5C1BD052
:4024400001B050EA410C0CBF52EA430C91EA030F02BF90EA020F0020704710F1000F91EA030F58BF994208BF90422CBFD8176FEAE37040F0010070474FEA410C7FEA6C5CD1
:4024800002D150EA013C07D14FEA430C7FEA6C5CD6D152EA033CD3D05DF8040B704700BF8446104662468C461946634600E000BF01B5FFF7B7FF002848BF10F1000F01BD02
:4024C0004DF808EDFFF7F4FF0CBF012000205DF808FB00BF4DF808EDFFF7EAFF34BF012000205DF808FB00BF4DF808EDFFF7E0FF94BF012000205DF808FB00BF4DF808ED3E
:40250000FFF7CEFF94BF012000205DF808FB00BF4DF808EDFFF7C4FF34BF012000205DF808FB00BF4FEA410212F5001215D211D56FF47873B3EB625212D94FEAC12343F0B2
:40254000004343EA505311F0004F23FA02F018BF404270474FF00000704750EA013005D111F0004008BF6FF0004070474FF00000704700BF4A0011D212F5001211D20DD584
:402580006FF47873B3EB62520ED44FEAC12343F0004343EA505323FA02F070474FF00000704750EA013002D14FF0FF3070474FF000007047014B1868704700BF8087FF1FBA
:4025C0000E4B70B51E460E4C0025E41AA410A54204D056F8253098470135F8E700F036FD084B094C1E46E41AA4100025A54204D056F8253098470135F8E770BD5830000069
:4026000058300000583000006030000010B5431E0A44914204D011F8014B03F8014FF8E710BD03460244934202D003F8011BFAE7704700000EB400B54FF402719CB0ADF890
:4026400014106FF00041049107914FF6FF711DAB02900690084853F8042BADF81610006802A9019300F06EF8029B00221A701CB05DF804EB03B070478087FF1F10F8012B16
:4026800011F8013B012A28BF9A42F7D0D01A70472DE9F0478E6882469E420C46914698463ED88A8912F4906F3AD02568096902236F1A656905EB450595FBF3F57B1C43440A
:4026C0009D4238BF1D4653050FD5294600F040FB064698B13A462169FFF798FFA38923F4906343F08003A38113E02A4600F08EFB064670B92169504600F0DEFA0C23CAF865
:402700000030A3894FF0FF3043F04003A381BDE8F08726613E44266046466561ED1BA560464528BF464649463246206800F0A8FAA36800209B1BA36023681E442660BDE810
:40274000F08700002DE9F04F9DB003938B8980461C060D4616460DD50B695BB9402100F0F7FA2860286118B90C23C8F80030CDE040236B610023099320238DF82930DFF8BF
:402780009CB130238DF82A3037463C4614F8013B1BB9B7EB060910D003E0252BF9D02746F3E74B46324629464046FFF771FF013000F0A780099B4B4409933B78002B00F062
:4027C000A08000234FF0FF3204930793059206938DF853301A930126052221784E4800F041FA671C049B38B14B4A3C46801A06FA00F018430490EFE7D90644BF20228DF84E
:4028000053201A0744BF2B228DF8532022782A2A03D0079A00210A200BE0039A111D12680391002A10DA524243F00200079204900BE027463B780134303B092B03D800FB8C
:4028400002320121F5E701B107923B782E2B1ED17B782A2B0AD1039B02371A1D1B680392002BB8BF4FF0FF33059310E0002319460593781C0A2407463A780130303A092A53
:4028800003D804FB01210123F5E703B1059103223978224800F0E6F940B14023CBEB000003FA00F0049B013718430490397806221B487E1C8DF8281000F0D4F988B1194B19
:4028C00033B9039B073323F007030833039314E003AB00932A46144B04A94046AFF3008007E003AB00932A460F4B04A9404600F093F8B0F1FF3F824603D0099B53440993DC
:4029000042E7AB895B0601D4099801E04FF0FF301DB0BDE8F08F00BFB82F0000BE2F0000C22F000000000000912600002DE9F04791461F460A698B6806469342B8BF134608
:40294000C9F8003091F843200C46DDF8208012B10133C9F800302368990642BFD9F800300233C9F80030256815F0060510D104F1190A07E00123524639463046C047013013
:402980001AD00135E368D9F800209B1A9D42F1DB94F843302268003318BF012392060FD5E118302081F843005A1C94F845102244023382F8431003E04FF0FF30BDE8F087F7
:4029C00004F1430239463046C0470130F4D02268D9F80050E36802F00602042A08BF5D1B2269A3680CBF25EAE57500259342C4BF9B1AED184FF000091A344D4509D0012329
:402A0000224639463046C0470130D5D009F10109F3E70020BDE8F0872DE9F04317460A7E85B06E2A984606460C460C9B01F1430E00F0AE8011D8632A22D009D8002A00F060
:402A4000BB80582A40F0CA8081F84520834955E0642A1ED0692A1CD0C0E0732A00F0B08009D86F2A2ED0702A40F0B8800A6842F020020A603EE0752A24D0782A3AD0ADE054
:402A80001A6801F14205111D1960136884F84230A8E021681A6811F0800F02D0111D196008E011F0400F02F10401196002D0B2F9003000E01368002B3CDA2D225B4284F855
:402AC000432037E021681A6811F0800F02D0111D196007E011F0400F02F10401196001D0138800E01368227E5C496F2A14BF0A2208221BE078225A4984F8452022681868AF
:402B000012F0800F00F104051D6003D1550601D5038800E00368D00744BF42F0200222601BB9226822F0200222601022002084F8430001E049490A226568002DA56008DB5C
:402B4000206820F0040020602BB9002D7DD175460CE0002B79D07546B3FBF2F002FB1033CB5C05F8013D03460028F5D1082A0BD12368DA0708D5236962689A42DEBF302322
:402B800005F8013C05F1FF35C5EB0E0323612EE008681A6810F0800F496903D0101D1860136808E010F0400F02F104001860136801D0198000E0196000232361754616E0FC
:402BC0001A68111D1960156800216268284600F049F808B1401B6060636804E004F1420584F8422001232361002384F84330CDF800803B4603AA21463046FFF797FE013042
:402C000002D14FF0FF3026E023692A4639463046C0470130F5D023689B0710D5002504F1190907E001234A4639463046C0470130E7D00135E368039A9B1A9D42F2DBE068CB
:402C4000039B9842B8BF184605E00B7804F1420584F842308AE705B0BDE8F083C92F0000DA2F000010B5C9B202449042034605D01C7801308C42F8D1184610BD002010BD4C
:402C8000884210B501EB020301D8421E0BE09842FBD28118D21AD34204D013F8014D01F8014DF8E710BD994204D011F8014B02F8014FF8E710BD000038B50546002944D0A0
:402CC00051F8043C0C1F002BB8BFE41800F0D4F81E4A1368114613B96360146030E0A3420DD92268A018834201BF18685B681218226063600C6023E0A24203D813465A68EC
:402D0000002AF9D118681918A1420BD12168014458188242196013D110685268014419605A600DE002D90C232B6009E021686018824201BF106852680918216062605C60E4
:402D40002846BDE8384000F098B838BD2094FF1F70B5CD1C25F0030508350C2D38BF0C25002D064601DBA94202D90C23336046E000F082F8234B1C681A462146A1B10B680D
:402D80005B1B0ED40B2B03D90B60CC18CD501EE08C420BBF63684B681360636018BF0C4615E00C464968E9E7174C23681BB9304600F052F820602946304600F04DF8431C97
:402DC00018D0C41C24F00304A0420DD12560304600F053F804F10B00231D20F00700C31A0ED05A42E25070BD211A304600F034F80130EBD10C233360304600F03EF80020B5
:402E000070BD00BF2094FF1F1C94FF1FF8B5074615460E4621B91146BDE8F840FFF798BF1AB9FFF749FF2846F8BD00F027F885420ED929463846FFF78BFF044650B13146E2
:402E40002A46FFF7E3FB31463846FFF735FF01E03046F8BD2046F8BD38B5064C0023054608462360FEF704FB431C02D1236803B12B6038BD3894FF1F7047704751F8040CB4
:402E80000028BEBF091851F8043CC0180438704700000000AFD580A83FD300408D142000A0C0DA0281CFD9F1DB400010A4A6AE00CC80FF1FEC83FF1F08000000250C000090
:402EC0002D0C00003D0C0000250C00002D0C00003D0C0000350C000074656D706572617475726500424D45323830000070726573737572650000000068756D69646974795A
:402F00000000000066696C746572000074656D70657261747572654F5652530070726573737572654F5652530000000068756D69646974794F565253000000006D6F6465F4
:402F40000000000048656C6C6F0A42656C6C6F0A00000000543A202564200000503A202564200000483A2025642025250A000000C84900401900004F00400C00005100407C
:402F80001000205100405000F0510040100000000140001000140140000800400140000A004C0140000200500140200060520040B804004806004300232D302B2000686C18
:402FC0004C0065666745464700303132333435363738394142434445460030313233343536373839616263646566000000000000000000000000000000000000000000007D
:403000000000000000000000000000000000000000000000000000000000000000000000000000000000000000000000000000000000000000000000000000000000000090
:40304000000000000000000000000000F8B500BFF8BC08BC9E4670474D000000ED140000F8B500BFF8BC08BC9E4670472900000080300000C880FF1FC0060000B80C00003B
:4030800000000000000000000808010140000000080801018000000008080101C000000008080101000100000808010140010000080801018001000008080101C00100008E
:4030C00008080101000200000808010140020000080801018002000008080101C002000008080101000300000808010140030000080801018003000008080101C00300002C
:4031000008080101000400000808010140040000080801018004000008080101C004000008080101000500000808010140050000080801018005000008080101C0050000DB
:4031400008080101000600000808010140060000080801018006000008080101C006000008080101000700000808010140070000080801018007000008080101C00700008B
:4031800008080101000800000808010140080000080801018008000008080101C008000008080101000900000808010140090000080801018009000008080101C00900003B
:4031C00008080101000A000008080101400A000008080101800A000008080101C00A000008080101000B000008080101400B000008080101800B000008080101C00B0000EB
:4032000008080101000C000008080101400C000008080101800C000008080101C00C000008080101000D000008080101400D000008080101800D000008080101C00D00009A
:4032400008080101000E000008080101400E000008080101800E000008080101C00E000008080101000F000008080101400F000008080101800F000008080101C00F00004A
:4032800008080101001000000808010140100000080801018010000008080101C010000008080101001100000808010140110000080801018011000008080101C0110000FA
:4032C00008080101001200000808010140120000080801018012000008080101C012000008080101001300000808010140130000080801018013000008080101C0130000AA
:4033000008080101001400000808010140140000080801018014000008080101C014000008080101001500000808010140150000080801018015000008080101C015000059
:4033400008080101001600000808010140160000080801018016000008080101C01600000808010100170000080801014017000008080101801700000808010100180000C8
:40338000080801014018000008080101C0170000080801018018000008080101C0180000080801010000000000000000183C3C3C180018186C480000000000006666FF661B
:4033C00066FF6666287CAA7C2AAA7C28E1A2E4081027458700304830588D867B18100000000000000810202020201008100804040404081099DB3CFFFF3CDB990018187E36
:403400007E18180000000000001808100000007E7E000000000000000000181801020408102040803C42858991A1423C30501010101010FF7E810106186181FF7E81810EEB
:403440000181817E060A122242FF0207FF8180FE0181817E7E8180FE8181817EFF810204081010387E81817E8181817E7E8181817F01817E0000001818001818000018184B
:4034800000180810000C18306030180C00007E7E007E7E00006030180C1830603E4141021C0018183C429D85BD45453A182442427E4242E7FC42447E414141FE3D43818066
:4034C0008081433DFC424141414142FCFF414078404041FFFF414148784840E03F41809F9181413EE742427E424242E7FE101010101010FE3F040404C4848478EF444870CE
:40350000484442E7E0404040404141FFC76A5252424242E7C762524A464242E73C4281818181423CFE4141417E4040E07E81818181917E10FE4141417E4442E77D83817C94
:403540000281C1BEFF8908080808081CE74242424242423CE742424222241408E74242425252522CE7422418242442E7E74224140808081CFF828408102141FF1C101010BB
:403580001010101C80402010080402013808080808080838102844000000000000000000000000FF180C00000000000000007C027E82827FC0405E61414141FE00007E8183
:4035C0008080817E01017D838181837D00007E81FF80817E1E212178202020F8037E81FE407E817EE0405C62424242E7100030101010107C02000E020202827CE04E4478D9
:40360000484442E7180808080808087F0000B649494949DB0000DC62424242E700007E818181817E00FE4141417E40E0007E8282827E02070000DC62424040E000007E80A6
:403640007E0181FE10107C101010110E0000E7424242423C0000E742242414080000E7425252522C0000E724182442E70000E742423E827C0000FF810E7081FF1830206001
:40368000602030181818181818181818180C040606040C18000000304906000000FF81C3BD8181FF3B438080808040387B43407840404040F888F887818F898FFFC3A59913
:4036C00099A5C3FF4094FF1F0000E02EC05D00001800000000366E0100000000EC2F00000C3000002C30000000000000000000000000000000000000B62F00000000000058
:4037000000000000000000000000000000000000000000000000000000000000000000000000000000000000000000000000000000000000000000002087FF1F00000000C4
:403740000000000000000000000000000000000000000000000000000000000000000000000000000000000000000000000000000000000000000000000000000000000049
:403780000000000000000000000000000000000000000000000000000000000000000000000000000000000000000000000000000000000000000000000000000000000009
:4037C00000000000000000000000000000000000000000000000000000000000000000000000000000000000000000000000000000000000000000000000000000000000C9
:403800000000000000000000000000000000000000000000000000000000000000000000000000000000000000000000000000000000000000000000000000000000000088
:020000040003F7
:0200000480007A
:4000000001450040024F004002650040020501405708014032090140020B0140040C0140010D0140041501400317014053180140481901404C1A01404D1B014006400140D6
:40004000044101400F4201400343014005480140134901400D4C01400F4D01400450014003510140620101800A4B88728A3BE601EE010079014202020419051806660763B7
:40008000082409030C040D781201130B14641563171819631A1E1B101C011E801F04200121022206246725212608286529632A122C442F1B308033073578367F3B283E40BF
:4000C0005203580459045B045F018002810482048302843E853F883E893F8D418F82903A913D92049302940895209604970299029B109D089E019F02A180A280A340A404EE
:40010000A610A820AA04AC01AEFEB040B1C0B23FB480B53FB73FBE14BF01D804D904DF010001011404810688071009040A400B030C880E800F0410021260132016021729B6
:40014000181019111D401E8021012280230525282620272829012C082D012E082F013128334235403729380139543D083E926C026D406E106F059680C0FEC2FDC4FFCAF1D6
:40018000CCFFCEFF8240AA40B802BE01D804DF011A80E008E401E602EA05E210E610EA80004801400297047F0520068009020A240C120DE70F18110312BF1413157B17843D
:4001C00018F7198F1B701EBF1F9F20122101240725EC2713281129602C682D832E932F1C30C0317F337F35E0367F3B0A3E4156025710580459045B045F0186018A04960282
:400200009E08A601B008B202B404B601BE40C063C101C202C405C5ECC6FDC70BC81FC9FFCAFFCBFFCC62CDA0CEF0CF41D00CD804DA04DC01DF01E640E702E910EA30EB10C5
:40024000ED10EE10EF120024040105080606072009400B200C0A0D200F01122015011608174419441A881E801F4024042504260427502C8A2D083501368037183D203E0AD8
:400280003F80401549024A2552545E806C406D156E406F027408760A87108D049010910293019481951596C899109B2D9E4A9F50A002A120A280A488A504A702B204C0F6E0
:4002C000C2F5C4F4CAF0CCF0CEF0D00ED20CD610E210E612EA800038024304390640088009020A040E7B1007110113021701185B1A201E72201822402301282B2A403040BD
:4003000032803407350336783A803E053F10541B5604580459045B045F058201836085E086018701880189488B108C188D018E60900191E093019410950196A097E09A0152
:400340009BE19C089D609EA0A128A201A310A602A702AA04AB04AF01B03FB380B51FB6C0B760B802B928BE40D804D904DF010001012003110441072809200B810C800E688F
:400380001240132015141701182119201A801B401C401D011E82200425182610270229022C822D14310833013402364037283A103D283E403F01400359105A805B026004F0
:4003C000614063407902808087408C10911692409381940199529A509B399D01A002A124A204A480A510A601A740AD40B010C0FFC2FBC47ACAF1CCF3CEF4D60DD80DDE01B4
:40040000E008E204E401EA073244362037083B40CCF0CE10968897409F08A62013083E105B028240968897409B029F08A620AB02C410CE20D640E680EE8096189740A6206B
:400440008E2296109740A620B204122016407B027E028220864087409740A202A302AA10AB02C430DC80DE20E010E480E640EAA008100C040D10132816807B107F40841052
:400480008E80C207C40EDE03E608110877108104831087408F109780A710AB28AD10B004C408DE04E402EE0100010C0110031C0300BF010303C00000828000000300000046
:4004C000870040848300830000000000E00B0B00000000000000000000000000000000000000000000000000000000000000000000000000000000000000000000000000B5
:4005000000000000000000000000000000000000000000000000000000000000000000000000000000000000000000000000000000000000000000000000000000000000BB
:40054000000000000000000000000000000000000000000000000000000000000000000000000000000000000000000000000000000000000000000000000000000000007B
:40058000000000000000000000000000000000000000000000000000000000000000000000000000000000000000000000000000000000000000000000000000000000003B
:4005C00000000000000000000000000000000000000000000000000000000000000000000000000000000000000000000000000000000000000000000000000000000000FB
:0200000490006A
:0400000000004005B7
:0200000490105A
:04000000BC90ACAF55
:0200000490303A
:020000000BB83B
:0200000490402A
:4000000000000000000000000000000000000000000000000000000000000000000000000000000000000000000000000000000000000000000000000000000000000000C0
:400040000000000000000000000000000000000000000000000000000000000000000000000000000000000000000000000000000000000000000000000000000000000080
:400080000000000000000000000000000000000000000000000000000000000000000000000000000000000000000000000000000000000000000000000000000000000040
:4000C0000000000000000000000000000000000000000000000000000000000000000000000000000000000000000000000000000000000000000000000000000000000000
:0200000490501A
:0C00000000012E16106900012E2B1C219F
:00000001FF