:400000000080002011000000151700001517000008B5044B1A6803F53F5302331A6001F081FB00BFFA46004010B5054C237833B9044B13B10448AFF300800123237010BDA2
:400040007087FF1F0000000018290000084B10B51BB108490848AFF300800848036803B910BD074B002BFBD0BDE81040184700BF000000007487FF1F18290000C880FF1F24
:400080000000000030B484B08DE80F00034D9DE80F0085E80F0004B030BC70478C87FF1F2DE9F0410746884616461D460F4C236800219847A368404698472368012138461A
:4000C000984700240AE0094BDB68681E8442ACBF00200120984730550134E4B2AC42F2D3024B5B689847BDE8F08100BF8C87FF1F2DE9F8430D46914698460D4B1B68002158
:40010000984700240CE00A4EB3686F1CFFB228469847B36819F8040098470134E4B23D464445F0D3024B5B689847BDE8F88300BF8C87FF1F00B583B002AAB62302F8013D87
:400140000123E0217620FFF7D3FF03B05DF804FB00B58BB00AAA002302F8013D0123D0217620FFF79DFF1A2303AA88217620FFF797FF072301AAE1217620FFF791FF9DF87C
:400180000C209DF80D103D4B42EA01229A839DF80E209DF80F1042EA0122DA839DF810209DF8111042EA01221A849DF812209DF8131042EA01225A849DF814209DF81510B3
:4001C00042EA01229A849DF816209DF8171042EA0122DA849DF818209DF8191042EA01221A859DF81A209DF81B1042EA01225A859DF81C209DF81D1042EA01229A859DF892
:400200001E209DF81F1042EA0122DA859DF820209DF8211042EA01221A869DF822209DF8231042EA01225A869DF8252083F834209DF804209DF8051042EA0122A3F835206B
:400240009DF8062083F837209DF808209DF8070042F00F0141EA001119879DF8091042F0F00242EA01125A879DF90A2083F83C20FFF760FF0BB05DF804FB00BF8C87FF1F9D
:4002800010B5084C082304F11002F7217620FFF707FF042304F11802F2217620FFF700FF10BD00BF8C87FF1F2DE9F84F08B1FFF7E7FF404C607D237D1B0143EA1013E07CF5
:4002C00043EA003001F086FF8046894600223A4B01F0F6FF06460F46A08B01F07BFF82468B460022354B01F0EBFF02460B463046394601F031FE06460F46B4F91E0001F0B1
:4003000079FF02460B463046394601F0D9FF06460F4600222A4B4046494601F0D1FF804689460022274B5046594601F0C9FF02460B464046494601F00FFE02460B4601F093
:40034000BFFF80468946B4F9200001F053FF02460B464046494601F0B3FF02460B463046394601F0FBFD06460F4602F043FAC4F83D000022144B3046394602F0CBF8044614
:400380000D460022114B02F00DFA38B90022104B2046294602F024FA18B904E000240B4D01E000240A4D2046294602F023FA40B2BDE8F88F8C87FF1F0000103F0000503F82
:4003C0000000E03E0000203F0000B440000044C000405540000000002DE9F84F08B1FFF74FFF954CA37C657C2D0145EA1313257C43EA0535D4F83D0001F0FCFE00228F4BFD
:4004000001F05EFF00228E4B01F0A6FD06460F4602460B4601F054FF80468946B4F92C0001F0E8FE02460B464046494601F048FF00224FF07C5301F043FF80468946B4F991
:400440002A0001F0D7FE02460B463046394601F037FF02460B4601F081FD02460B464046494601F07BFD0022764B01F029FF80468946B4F9280001F0BDFE0022724B01F0D6
:400480001FFF02460B464046494601F067FD82468B46B4F9260001F0ADFE02460B463046394601F00DFF02460B463046394601F007FF00224FF07B5301F002FF804689464D
:4004C000B4F9240001F096FE02460B463046394601F0F6FE02460B464046494601F03EFD00224FF07B5301F0EBFE00224FF07C5301F0E6FE0022554B01F030FD06460F46CA
:40050000608C01F067FE02460B463046394601F0D7FE80468946284601F05CFE02460B4600204B4901F018FD06460F460022494B5046594601F0C4FE02460B4630463946B7
:4005400001F00AFD36A3D3E9002301F0B9FE42464B4601F0DFFF06460F46B4F9320001F049FE02460B463046394601F0A9FE02460B463046394601F0A3FE00224FF0785311
:4005800001F09EFE80468946B4F9300001F032FE02460B463046394601F092FE00224FF07C5301F08DFE02460B464046494601F0D5FC80468946B4F92E0001F01BFE02462E
:4005C0000B464046494601F0C9FC0022224B01F077FE02460B463046394601F0BFFC04460D4611A3D3E9002302F0DCF840B910A3D3E900232046294602F0F2F820B906E0BF
:4006000009A5D5E9004502E009A5D5E900452046294602F017F9BDE8F88F00BFAFF3008000000000006AB84000000000004CDD400000000000DBFA408C87FF1F0000E03F62
:400640000040EF400000D03F0000F0400000F03F000030410000303F0000B03F2DE9F04784B008B1FFF70CFEDFF898A19AF817309AF8168043EA0828DAF83D0001F0BAFD6F
:400680000022594B01F068FC06460F46BAF9380001F0B0FD0022554B01F012FE04460D46BAF93A0001F0A6FD0022514B01F008FE02460B463046394601F002FE02460B4647
:4006C0002046294601F04AFC04460D46404601F081FD22462B4601F03FFCCDE90001BAF9350001F087FD0022424B01F0E9FDCDE902019AF8370001F06DFD00223E4B01F044
:40070000DFFD02460B463046394601F0D9FD00223A4B01F023FC04460D469AF93C0001F069FD0022344B01F0CBFD02460B463046394601F0C5FD02460B462046294601F014
:40074000BFFD00222D4B01F009FC80468946DDE90223DDE9000101F0B3FD06460F4642464B462046294601F0ABFD02460B463046394601F0A5FD04460D469AF8340001F0A8
:4007800029FD02460B462046294601F099FD00224FF07B5301F094FD02460B460020174901F0DAFB02460B462046294601F088FD04460D460022124B02F012F838B900227F
:4007C00000232046294601F0EDFF28B102E000240B4D01E0002400252046294602F032F8C0B204B0BDE8F08700C0F240000050400000103F0000F03E0000503E0000F03FD4
:40080000000059408C87FF1F024B187E00F00700704700BF8C87FF1F08B5064A137E03F00703184302F8180F0123F2217620FFF75FFC08BD8C87FF1F024B987E00F0E0000F
:40084000704700BF8C87FF1F08B5064A937E03F0E003184302F81A0F0123F4217620FFF747FC08BD8C87FF1F024B987E00F01C00704700BF8C87FF1F08B5064A937E03F03A
:400880001C03184302F81A0F0123F4217620FFF72FFC08BD8C87FF1F024B987E00F00300704700BF8C87FF1F08B5064A937E03F0FC03184302F81A0F0123F4217620FFF765
:4008C00017FC08BD8C87FF1F024BD87E00F01C00704700BF8C87FF1F08B5064AD37E03F0E303184302F81B0F0123F5217620FFF7FFFB08BD8C87FF1F2DE9F04107468846CB
:4009000016461D460F4C236800219847A36840469847236801213846984700240AE0094BDB68681E8442ACBF00200120984730550134E4B2AC42F2D3024B5B689847BDE885
:40094000F08100BFD087FF1FF8B50F4616461D460A4C236800219847A36838469847002405E0064B9B68305D98470134E4B2AC42F7D3024B5B689847F8BD00BFD087FF1FA4
:4009800030B484B08DE80F00034D9DE80F0085E80F0004B030BC7047D087FF1F08B52023024A0021DE20FFF7A7FF08BDE087FF1F10B5064C012304F110020021DE20FFF7C7
:4009C0009BFF207C00F0800010BD00BFD087FF1F38B50A4C04F1100501232A460021DE20FFF78AFF237C63F07F03237401232A460021DE20FFF7A8FF38BD00BFD087FF1F4D
:400A000038B50A4C04F1100501232A460021DE20FFF772FF237C03F07F03237401232A460021DE20FFF790FF38BD00BFD087FF1F10B5064C012304F113020321DE20FFF7E6
:400A40005BFFE07C00F0200010BD00BFD087FF1F08B58F2810D0BF2802D0402812D105E00C4AD37D23F04003D37508BD094AD37D43F04003D37508BD064AD37D23F070031D
:400A8000D37508BD0123044A0721DE20FFF75CFF08BD00BFD087FF1FE787FF1F08B5064AD37D23F0040302F8173F01230721DE20FFF74AFF08BD00BFD087FF1F08B500288D
:400AC00005DD0D4A137E63F07F03137604E00A4A137E03F07F031376074A137E03F080030028B8BF404218431076012317320721DE20FFF729FF08BDD087FF1F08B5064AB5
:400B0000D37D43F0080302F8173F01230721DE20FFF71AFF08BD00BFD087FF1F08B5064AD37D23F0080302F8173F01230721DE20FFF70AFF08BD00BFD087FF1F024BD87DD6
:400B400000F00800704700BFD087FF1FF8B5FFF7F5FF0546FFF72CFF074615B1FFF7DEFF02E008B1FFF74CFFFFF762FF0028FBD10D4C04F11306012332460321DE20FFF767
:400B8000BBFEE37C43F00803E374012332460321DE20FFF7D9FE15B1FFF7B0FFF8BD0FB1FFF716FFF8BD00BFD087FF1FF8B5FFF7C5FF0546FFF7FCFE074615B1FFF7AEFFD1
:400BC00002E008B1FFF71CFFFFF732FF0028FBD10D4C04F11306012332460321DE20FFF78BFEE37C23F01003E374012332460321DE20FFF7A9FE15B1FFF780FFF8BD0FB1A3
:400C0000FFF7E6FEF8BD00BFD087FF1F10B1012806D07047054AD37D23F01003D3757047024AD37D23F02003D3757047D087FF1F064B93F8283003F00F00C3F300139900D8
:400C40000B445A001044C0B2704700BFD087FF1F024B93F828004009704700BFD087FF1F064B93F8273003F00F00C3F3011303EB83035A001044C0B2704700BFD087FF1F68
:400C8000064B93F8263003F00F00C3F3011303EB83035A001044C0B2704700BFD087FF1F064B93F8253003F00F00C3F3021303EB83035A001044C0B2704700BFD087FF1F3A
:400CC00038B5044604230C4A1821DE20FFF714FE00252580FFF7ACFFA070FFF7C1FFE070FFF7B6FF2071FFF7CBFF6071FFF7D8FFA071E571204638BDF587FF1F064B93F8AE
:400D0000283003F00F00C3F3001399000B445A001044C0B2704700BFD087FF1F024B93F82C004009704700BFD087FF1F064B93F82B3003F00F00C3F3011303EB83035A0094
:400D40001044C0B2704700BFD087FF1F064B93F82A3003F00F00C3F3011303EB83035A001044C0B2704700BFD087FF1F064B93F8293003F00F00C3F3021303EB83035A0071
:400D80001044C0B2704700BFD087FF1F38B5044604230C4A1C21DE20FFF7AEFD00252580FFF7ACFFA070FFF7C1FFE070FFF7B6FF2071FFF7CBFF6071FFF7D8FFA071E57170
:400DC000204638BDF987FF1F10B5A0F12004E4B23F2C0AD8402A08D883185F2B05DC13460A460146DE20FFF787FD10BD10B485B001AB83E80700044C93E8070084E80700BC
:400E000005B010BC704700BF0088FF1F70B506460D460B4C236800213D209847A36800209847002405E0064B9B68305D98470134E4B2AC42F7D3024B5B68984770BD00BFE1
:400E40000088FF1F002304E0044A1A44002111730133B3F5806FF7D3704700BF0088FF1F30B589B00A4D01AC28686968AA68EB680FC42869696903C42A8BAB7E2280A3704B
:400E8000192101A8FFF7C2FFFFF7DCFF09B030BD1C29000008B500F00DF8044B044A07CA83E8070000229A81DA8108BD0C8CFF1F3829000000B585B0054A01AB07CA83E8B5
:400EC0000700FFF793FFFFF7CBFF05B05DF804FB4429000008B500F011F808BD08B500F011F808BD08B500F011F808BD08B500F011F808BD08B500F011F808BD08B500F019
:400F0000BFFC08BD08B500F037FE08BD08B500F073FE08BD08B500F0B7FE08BD08B500F087FE08BD08B500F0A1F800F05BF808BD0122024B83F88020704700BF1C8CFF1F74
:400F400070B483B002AC04E906009DF8002002F00F04C2F3021202EB820251002144C1719DF8012002F00F04C2F3021202EB82025100214481719DF8022002F00F04C2F38F
:400F8000011202EB82025100214441719DF8031001F0070202719DF8042002F00F05C2F3011202EB820254002C44C4709DF8052002F00F06C2F3001295002A4454003444E9
:400FC0008470BDF80620C2F30B040480C1F302118172C2F300314172C2F34032027203B070BC7047F0B595B0402204A92020FFF7EBFE002415E00D4F04EB44039E00BD191F
:4010000014AB03EBC403403B93E806006846FFF797FF0099019A029BB9516A60AB600134E4B2072CE7D915B0F0BD00BFB494FF1F00B583B00DF1080E0EE90600BDF8002033
:4010400002809DF8022082709DF80320C2709DF8042002719DF8052042719DF8062082719DF80720C27103B05DF804FB30B58BB01D4B02AC0FCB84E80F00FFF781FCFFF72A
:401080008DFC06AC2046FFF71BFE184D94E806006846FFF7CDFF009A019B2A606B6008AC2046FFF773FE124D94E806006846FFF7BFFF009A019B2A606B60FFF777FDFFF7EF
:4010C00045FDBF20FFF7C4FC0020FFF7F7FCFFF7E5FC0020FFF79AFD0120FFF797FD054800F04AFE0BB030BD502900003496FF1F3C96FF1F310F000038B50120FFF7D4F853
:4011000001F078F804460D460120FFF7CDFB2046294638BD08B5C0B2FFF7C6FB08BD00BF38B50120FFF758F901F054F804460D460120FFF7B9FB2046294638BD38B50120CC
:40114000FFF78CFA01F046F804460D460120FFF7ABFB2046294638BD08B5C0B2FFF7BCFB08BD00BF08B5FFF7AFFBC0B2002108BD08B5C0B2FFF768FB08BD00BF08B5FFF7CC
:401180005BFBC0B2002108BD08B5C0B2FFF774FB08BD00BF08B5FFF767FBC0B2002108BD08B5C0B2FFF738FB08BD00BF08B5FFF72BFBC0B2002108BD08B5FFF76DFBC0B262
:4011C000002108BD2DE9F04786B0DFF81481334C334B0093002200234146204600F094F8304F314B0093002200233946204600F08BF82E4E2E4B0093002200233146204607
:4012000000F082F8DFF8DCA02A4B2B4A5146204600F0A6F8294B2A4A4146204600F0A0F8284B294A3946204600F09AF8274B284A3146204600F094F8DFF8AC90254B264AA2
:401240004946204600F08CF8244B02AD0FCB85E80F00FEF717FFFEF77BFF002200235146204600F0A9F8202200234146204600F0A3F8042200233946204600F09DF8012291
:4012800000233146204600F097F8012200234946204600F091F806B0BDE8F0877C290000F91000008429000021110000902900003D11000059110000651100007111000033
:4012C0007D1100008911000095110000A1110000AD11000015110000B911000060290000702900009C290000A429000008B500F0DDF8044B00200021C3E90001C3E902019E
:4013000008BD00BFA08CFF1F2DE9F043134ED6E9024514F1010845F10009C6E90289A50005EB040E4FEACE07BE463744386170463044416171463144C1E906230B4600209F
:401340000021C3E908017346334400200021C3E90A017644079B3363BDE8F083A08CFF1F2DE9F043134ED6E9004514F1010845F10009C6E90089650005EB040E4FEACE0773
:40138000BE463744C7F8100570463044C0F8141506F5A267714639444FF000084FF00009C1E9028971463144C1F82025C1F82435BDE8F083A08CFF1F2DE9F843804689464F
:4013C00016461F46002400252CE004EB4402D300194A13444146D3F8100501F092FAF0B904EB4402D300144A13444946D3F8140501F087FA98B9104901F5A26563001819AB
:40140000C20010462A44C2E9026703460B44D3F8243573B1304639469847BDE8F883013445F10005044BD3E900239D4208BF9442CBD3BDE8F88300BFA08CFF1FF8B500248C
:40144000002529E0184FA3001A19D1003944D1E90801013041F100011A19D6003E44C6E90801D6E90623994208BF904211D1A6003219D3003B441B6B98473219D3001A46E5
:401480003B44C3E90A0113463B4400200021C3E90801013445F10005034BD3E902239D4208BF9442CED3F8BDA08CFF1F08B500F0CBFC034800F0F0FCFFF784FE08BD00BFD6
:4014C0003D14000008B500F02BFC08BD08B5FFF7F9FF08BDFEE700BFF0B40022174611E050F82760F3B226F0FF0608E001EB420511F812406D78A5550132013BDBB2002BCF
:40150000F4D10137182FEBD9F0BC7047064B1B78DBB203F00701054A11701B09013213704422034B1A707047CF0100496E5800407658004008B50A46002101F0DAF908BD51
:4015400038B51925264B1D80182202331A7043F6972202331A8002331D70022203F27A231A7008224FF040231A70032103F5007319701C4B1B78DBB21B490B701B4B1A80A2
:4015800041F25122023B1A8000240CE0184B1B7803F0010343EA440404F003044FF4F07000F0C6FC013D0DB1032CEFD115B90320FFF790FF0F4B4FF480721A8007221A70AF
:4015C00000220D490A704820023108701A700222033B1A70094A137843F00303137038BD8040004008010049A146004022420040254200400440004006400040A2430040EE
:4016000008B501F06BF908BD38B572B6324A137843F00403137000240CE0304D630019194A0011462A44084691882858FFF782FF0134E4B2092CF0D900240BE02749A30080
:401640001819420088180622016CC06BFFF7D8FF0134E4B2002CF1D021494FF09040FFF73BFF204A204B1A60204A137843F0020313701032137843F0020313701C4C2378DF
:4016800043F040032370A2F58632513A137843F0100313700A2217491748FFF7B1FF082216491748FFF7ACFF164A137843F008031370154D61232B70FFF742FF81232B7036
:4016C0000122124B1A70FFF721FF0E2221461048FFF796FF38BD00BFE8460040AC29000064000048040400C4581A014003500140A0430040C0040048C0510040CC04004802
:4017000012510040224300400048004004000840B043004008B501F0B5F803680C2B00D1FEE7FEE708B5104E104D16E029686B68AC68002204E051F8040B43F8040B0432FE
:40174000A242F8D1E868002203E0002143F8041B04328242F9D11035013E002EE6D101F097F800F039F8FEE701000000782A000008B5104A104B1A60104A136843F400732B
:40178000136000230AE0032B03D80D4A52F8231000E00C490C4A42F8231001332F2BF2D90A4B1A780A4B1A70074A0A4B1A60FFF72BFF08BD0004FA050CED00E014ED00E0F3
:4017C00000000000151700000080FF1FBC760040C080FF1F08ED00E008B5FFF77BFBFFF759FBFFF79FFBFFF771FEFFF77FFD62B6FEE700BF38B50222114B1A7081220E3B01
:401800001A70082202331A700F2511331D70002401331C704FF400420A4B1A600721284600F06CFB0849284600F054FB1022074B1A70074B1C70074B1C70074B1C7038BD70
:40184000D649004080E100E0A91800004496FF1F4A96FF1F5296FF1F4896FF1F08B500F06FFB064A137843F0040313701032137843F00403137000F067FB08BDA543004097
:4018800008B5074B1B7823B9FFF7B4FF0122044B1A70FFF7E3FF4FF40042024B1A6008BDB094FF1F00E100E038B5A54B1C78A54B1B7813F0400F00F03A81E4B214F0010F5E
:4018C00000F01D819F4B1B78453B052B00F21481DFE813F006008200120112010600DF0004F0DF0504F00A04082C42D1954B1B78DBB2452B35D1944B1B7813F0FF0F10D04F
:40190000924B1B681B78DBB2914A137004228C4B1A7001228F4B1A7046228A4B1A702C46EDE08D4B1B7813F0020F0DD08B4A137843F00A0313706022824B1A704FF40042D8
:40194000874B1A602C46DAE0864A137843F0100313701022844B1A700422023B1A702C46CDE00022764B1A704A22764B1A702C46C5E00A2C2BD1794A137843F0A003137020
:40198000754B1B7813F0020F14D06E4B1B7813F0080F01D0092300E00A23704A11780B4313706022674B1A704FF400426C4B1A602C46A4E06B4A137843F0100313701022B3
:4019C000694B1A700422023B1A702C4697E0002000F07EFA2C4692E014F0020F36D15D4B1A78D2B2584B1B78DBB29A4210D2594A1378DBB255490968CB5CDBB254490B7076
:401A000004214F4B197013780133DBB2137076E0514B1B7813F0020F0CD0504A137843F00A0313706022474B1A704FF400424C4B1A6064E04B4A137843F01003137010229F
:401A4000494B1A700422023B1A7058E0424B1B7813F0020F0CD0414A137843F09A0313706022384B1A704FF400423D4B1A6046E03C4A137843F01003137010223A4B1A7053
:401A80000422023B1A70354A137843F09003137035E0364A1378DBB2354908682C490978C9B2C15413780133DBB213701278D2B2304B1B78DBB29A4203D21022204B1A7075
:401AC0001DE0254B1B7813F0020F0CD0234A137843F00903137060221A4B1A704FF400421F4B1A600BE01F4A137843F0100313700022134B1A7002E0002000F0E9F914F0D8
:401B0000200F1CD00F4B1B7813F0080F01D0012300E00223114A11780B431370114A137803F0EF0313701022064B1A7038BD054B1B7813F0100F02D11022024B1A7038BDAE
:401B4000D74900404496FF1F4996FF1F5496FF1FD84900404896FF1F5096FF1F4A96FF1F80E100E0D6490040D94900405296FF1F4C96FF1F5196FF1F1A4B1B78DBB2102BDC
:401B800029D1194B1B7813F0080F26D14FF40042164B1A604000C0B229B140F001004922104B1A7002E045220E4B1A70104B1870012201331A700F4B1B7813F0010FFAD0FC
:401BC0000C4B1B7803F00A030A2B08D11022054B1A700320704702207047012070470020704700BF4496FF1FD949004080E100E0D8490040D74900400A4B1B7813F0040F66
:401C00000ED01023074A13700421023A1170064A1370064B1B7813F0210FFAD00020704702207047D94900404496FF1FD7490040114B1B7813F0040F1BD0104B18700422C6
:401C4000013B1A7046220E4B1A700E4B1B7813F0010FFAD00B4B1B7813F0020F04D16022074B1A70002070476022054B1A70032070470220704700BFD9490040D8490040F2
:401C80004496FF1FD7490040114B1B7813F0040F1BD0104B1B78DBB2492B05D100220E4B1A704A220B4B1A700B4B1B7813F0010FFAD00A4B1B78DBB218B11021064A1170C0
:401CC00004E06021034A117000E0002318467047D94900404496FF1FD7490040D84900407222034B1A70002202331A70704700BF8865004010B500F023F90446074A137897
:401D000043F0200313700232137843F01003137000F0D0F8204600F017F910BD9865004008B5054B1B7823B9FFF7DAFF0122024B1A70FFF7DFFF08BDB194FF1F014B1B680A
:401D4000D866704708ED00E04001C0B2014B1870704700BF0BE400E04FF40062014B1A60704700BF00E100E04FF40062014B1A60704700BF80E100E010B50446FFF7F4FF11
:401D80002046FFF7DBFF0720FFF7DEFFFFF7E4FF10BD00BF084A137843F0010313701032137843F00103137002F64D32137843F001031370704700BFA3430040014B187044
:401DC000704700BF034F0040014B1880704700BF044F0040014B1880704700BF064F004008B5164A137803F0010313700232137803F0FC031370124B1A7802F0CF021A706D
:401E00001A7842F030021A701A7802F0F0021A701A7842F00F021A700A4A137843F00103137045F6BF50FFF7CFFF45F6BF50FFF7D1FF0020FFF7C2FF08BD00BF004F004022
:401E40000B4F0040014F004008B5054B1B7823B9FFF7C6FF0122024B1A70FFF79BFF08BDB294FF1F014B1B68D864704708ED00E04001C0B2014B1870704700BF03E400E0F3
:401E80000822014B1A60704700E100E00822014B1A60704780E100E010B50446FFF7F6FF2046FFF7DFFF0720FFF7E2FFFFF7E8FF10BD00BF054A137843F001031370103261
:401EC000137843F001031370704700BFA243004001BE704770B504460E46074B1D681F2802D90020FFF7F4FF04F01F04103455F8240045F8246070BD08ED00E038B5044601
:401F00000D46072902D90020FFF7E2FF1F2C02D90020FFF7DDFF04F01F0000F1604000F564406D01EDB2057038BD00BF000000000230800803D000BF01380046FCD1704772
:401F4000EFF3108072B6704780F31088704700BF81F0004102E000BF83F0004330B54FEA41044FEA430594EA050F08BF90EA020F1FBF54EA000C55EA020C7FEA645C7FEAB7
:401F8000655C00F0E2804FEA5454D4EB5555B8BF6D420CDD2C4480EA020281EA030382EA000083EA010180EA020281EA0303362D88BF30BD11F0004F4FEA01314FF4801C7B
:401FC0004CEA113102D0404261EB410113F0004F4FEA03334CEA133302D0524263EB430394EA050F00F0A780A4F10104D5F1200E0DDB02FA0EFC22FA05F2801841F100014D
:4020000003FA0EF2801843FA05F359410EE0A5F120050EF1200E012A03FA0EFC28BF4CF0020C43FA05F3C01851EBE37101F0004507D54FF0000EDCF1000C7EEB00006EEB6C
:402040000101B1F5801F1BD3B1F5001F0CD349085FEA30004FEA3C0C04F101044FEA445212F5800F80F09A80BCF1004F08BF5FEA500C50F1000041EB045141EA050130BD0B
:402080005FEA4C0C404141EB010111F4801FA4F10104E9D191F0000F04BF01460020B1FA81F308BF2033A3F10B03B3F120020CDA0C3208DD02F1140CC2F10C0201FA0CF0A9
:4020C00021FA02F10CE002F11402D8BFC2F1200C01FA02F120FA0CFCDCBF41EA0C019040E41AA2BF01EB0451294330BD6FEA04041F3C1CDA0C340EDC04F11404C4F12002FB
:4021000020FA04F001FA02F340EA030021FA04F345EA030130BDC4F10C04C4F1200220FA02F001FA04F340EA0300294630BD21FA04F0294630BD94F0000F83F4801306BF52
:4021400081F480110134013D4EE77FEA645C18BF7FEA655C29D094EA050F08BF90EA020F05D054EA000C04BF1946104630BD91EA030F1EBF0021002030BD5FEA545C05D1BF
:402180004000494128BF41F0004130BD14F580043CBF01F5801130BD01F0004545F0FE4141F470014FF0000030BD7FEA645C1ABF194610467FEA655C1CBF0B46024650EA08
:4021C000013406BF52EA033591EA030F41F4002130BD00BF90F0000F04BF0021704730B54FF4806404F132044FF000054FF0000150E700BF90F0000F04BF0021704730B5F8
:402200004FF4806404F1320410F0004548BF40424FF000013EE700BF42004FEAE2014FEA31014FEA02701FBF12F07F4393F07F4F81F06051704792F0000F14BF93F07F4F65
:40224000704730B54FF4607401F0004521F0004120E700BF50EA010208BF704730B54FF000050AE050EA010208BF704730B511F0004502D5404261EB41014FF4806404F1A6
:4022800032045FEA915C3FF4DCAE4FF003025FEADC0C18BF03325FEADC0C18BF033202EBDC02C2F1200300FA03FC20FA02F001FA03FE40EA0E0021FA02F11444C1E600BF91
:4022C00070B54FF0FF0C4CF4E06C1CEA11541DBF1CEA135594EA0C0F95EA0C0F00F0DEF82C4481EA030621EA4C5123EA4C5350EA013518BF52EA033541F4801143F48013B2
:4023000038D0A0FB02CE4FF00005E1FB02E506F00042E0FB03E54FF00006E1FB03569CF0000F18BF4EF0010EA4F1FF04B6F5007F64F5407404D25FEA4E0E6D4146EB0606BA
:4023400042EAC62141EA55514FEAC52040EA5E504FEACE2EB4F1FD0C88BFBCF5E06F1ED8BEF1004F08BF5FEA500E50F1000041EB045170BD06F0004646EA010140EA02006E
:4023800081EA0301B4EB5C04C2BFD4EB0C0541EA045170BD41F480114FF0000E013C00F3AB8014F1360FDEBF002001F0004170BDC4F10004203C35DA0C341BDC04F1140475
:4023C000C4F1200500FA05F320FA04F001FA05F240EA020001F0004221F0004110EBD37021FA04F642EB06015EEA430E08BF20EAD37070BDC4F10C04C4F1200500FA04F36F
:4024000020FA05F001FA04F240EA020001F0004110EBD37041F100015EEA430E08BF20EAD37070BDC4F1200500FA05F24EEA020E20FA04F301FA05F243EA020321FA04F09C
:4024400001F0004121FA04F220EA020000EBD3705EEA430E08BF20EAD37070BD94F0000F0FD101F00046400041EB010111F4801F08BF013CF7D041EA060195F0000F18BFE1
:40248000704703F00046520043EB030313F4801F08BF013DF7D043EA0603704794EA0C0F0CEA135518BF95EA0C0F0CD050EA410618BF52EA4306D1D181EA030101F00041E3
:4024C0004FF0000070BD50EA410606BF1046194652EA430619D094EA0C0F02D150EA013613D195EA0C0F05D152EA03361CBF104619460AD181EA030101F0004141F0FE41E5
:4025000041F470014FF0000070BD41F0FE4141F4780170BD70B54FF0FF0C4CF4E06C1CEA11541DBF1CEA135594EA0C0F95EA0C0F00F0A7F8A4EB050481EA030E52EA033544
:402540004FEA013100F088804FEA03334FF0805545EA131343EA12634FEA022245EA111545EA10654FEA00260EF000419D4208BF964244F1FD0404F5407402D25B084FEAB9
:402580003202B61A65EB03055B084FEA32024FF480104FF4002CB6EB020E75EB030E22BFB61A754640EA0C005B084FEA3202B6EB020E75EB030E22BFB61A754640EA5C0005
:4025C0005B084FEA3202B6EB020E75EB030E22BFB61A754640EA9C005B084FEA3202B6EB020E75EB030E22BFB61A754640EADC0055EA060E18D04FEA051545EA16754FEAD2
:4026000006164FEAC30343EA52734FEAC2025FEA1C1CC0D111F4801F0BD141EA00014FF000004FF0004CB6E711F4801F04BF01430020B4F1FD0C88BFBCF5E06F3FF6AFAE19
:40264000B5EB030C04BFB6EB020C5FEA500C50F1000041EB045170BD0EF0004E4EEA113114EB5C04C2BFD4EB0C0541EA045170BD41F480114FF0000E013C90E645EA060E79
:402680008DE60CEA135594EA0C0F08BF95EA0C0F3FF43BAF94EA0C0F0AD150EA01347FF434AF95EA0C0F7FF425AF104619462CE795EA0C0F06D152EA03353FF4FDAE104637
:4026C000194622E750EA410618BF52EA43067FF4C5AE50EA41047FF40DAF52EA43057FF4EBAE12E74FF0FF3C06E000BF4FF0010C02E000BF4FF0010C4DF804CD4FEA410C84
:402700007FEA6C5C4FEA430C18BF7FEA6C5C1BD001B050EA410C0CBF52EA430C91EA030F02BF90EA020F0020704710F1000F91EA030F58BF994208BF90422CBFD8176FEA54
:40274000E37040F0010070474FEA410C7FEA6C5C02D150EA013C07D14FEA430C7FEA6C5CD6D152EA033CD3D05DF8040B704700BF8446104662468C461946634600E000BFAC
:4027800001B5FFF7B7FF002848BF10F1000F01BD4DF808EDFFF7F4FF0CBF012000205DF808FB00BF4DF808EDFFF7EAFF34BF012000205DF808FB00BF4DF808EDFFF7E0FF01
:4027C00094BF012000205DF808FB00BF4DF808EDFFF7CEFF94BF012000205DF808FB00BF4DF808EDFFF7C4FF34BF012000205DF808FB00BF4FEA410212F5001215D211D5E6
:402800006FF47873B3EB625212D94FEAC12343F0004343EA505311F0004F23FA02F018BF404270474FF00000704750EA013005D111F0004008BF6FF0004070474FF0000067
:40284000704700BF4A0011D212F5001211D20DD56FF47873B3EB62520ED44FEAC12343F0004343EA505323FA02F070474FF00000704750EA013002D14FF0FF3070474FF094
:4028800000007047014B1868704700BF6C87FF1F0E4B70B51E460E4C0025E41AA410A54204D056F8253098470135F8E700F0D2F8084B094C1E46E41AA4100025A54204D051
:4028C00056F8253098470135F8E770BD602A0000602A0000602A0000682A000010B5431E0A44914204D011F8014B03F8014FF8E710BD03460244934202D003F8011BFAE74F
:40290000704710F8012B11F8013B012A28BF9A42F7D0D01A7047000000000000AFD580A83FD300408D142000A1C0DA1281CFD9F1DB400010A5A6AE00CC80FF1FEC83FF1FD0
:4029400008000000DD0E0000E50E0000F50E0000DD0E0000E50E0000F50E0000ED0E0000DD0E0000E50E0000F50E0000ED0E000074656D706572617475726500424D453202
:402980003830000070726573737572650000000068756D69646974790000000066696C74657200006D6F646500000000C84900401900004F00400C00005100401000205187
:4029C00000405000F0510040100000000140001000140140000800400140000A004C0140000200500140200060520040B804004806004300000000000000000000000000FE
:402A00000000000000000000000000000000000000000000000000000000000000000000000000000000000000000000000000000000000000000000000000000000000096
:402A40000000000000000000000000000000000000000000F8B500BFF8BC08BC9E4670474D00000071170000F8B500BFF8BC08BC9E46704729000000882A0000C880FF1F42
:402A8000A8060000E80E000000000000000000000808010140000000080801018000000008080101C0000000080801010001000008080101400100000808010180010000C3
:402AC00008080101C001000008080101000200000808010140020000080801018002000008080101C002000008080101000300000808010140030000080801018003000034
:402B000008080101C003000008080101000400000808010140040000080801018004000008080101C0040000080801010005000008080101400500000808010180050000E3
:402B400008080101C005000008080101000600000808010140060000080801018006000008080101C006000008080101000700000808010140070000080801018007000093
:402B800008080101C007000008080101000800000808010140080000080801018008000008080101C008000008080101000900000808010140090000080801018009000043
:402BC00008080101C009000008080101000A000008080101400A000008080101800A000008080101C00A000008080101000B000008080101400B000008080101800B0000F3
:402C000008080101C00B000008080101000C000008080101400C000008080101800C000008080101C00C000008080101000D000008080101400D000008080101800D0000A2
:402C400008080101C00D000008080101000E000008080101400E000008080101800E000008080101C00E000008080101000F000008080101400F000008080101800F000052
:402C800008080101C00F000008080101001000000808010140100000080801018010000008080101C010000008080101001100000808010140110000080801018011000002
:402CC00008080101C011000008080101001200000808010140120000080801018012000008080101C0120000080801010013000008080101401300000808010180130000B2
:402D000008080101C013000008080101001400000808010140140000080801018014000008080101C014000008080101001500000808010140150000080801018015000061
:402D400008080101C015000008080101001600000808010140160000080801018016000008080101C016000008080101001700000808010140170000080801018017000011
:402D80000808010100180000080801014018000008080101C0170000080801018018000008080101C0180000080801010000000000000000183C3C3C180018186C48000028
:402DC000000000006666FF6666FF6666287CAA7C2AAA7C28E1A2E4081027458700304830588D867B18100000000000000810202020201008100804040404081099DB3CFF68
:402E0000FF3CDB990018187E7E18180000000000001808100000007E7E000000000000000000181801020408102040803C42858991A1423C30501010101010FF7E8101061B
:402E4000186181FF7E81810E0181817E060A122242FF0207FF8180FE0181817E7E8180FE8181817EFF810204081010387E81817E8181817E7E8181817F01817E0000001842
:402E8000180018180000181800180810000C18306030180C00007E7E007E7E00006030180C1830603E4141021C0018183C429D85BD45453A182442427E4242E7FC42447E36
:402EC000414141FE3D4381808081433DFC424141414142FCFF414078404041FFFF414148784840E03F41809F9181413EE742427E424242E7FE101010101010FE3F040404C1
:402F0000C4848478EF444870484442E7E0404040404141FFC76A5252424242E7C762524A464242E73C4281818181423CFE4141417E4040E07E81818181917E10FE41414153
:402F40007E4442E77D83817C0281C1BEFF8908080808081CE74242424242423CE742424222241408E74242425252522CE7422418242442E7E74224140808081CFF82840896
:402F8000102141FF1C1010101010101C80402010080402013808080808080838102844000000000000000000000000FF180C00000000000000007C027E82827FC0405E618C
:402FC000414141FE00007E818080817E01017D838181837D00007E81FF80817E1E212178202020F8037E81FE407E817EE0405C62424242E7100030101010107C02000E020B
:403000000202827CE04E4478484442E7180808080808087F0000B649494949DB0000DC62424242E700007E818181817E00FE4141417E40E0007E8282827E02070000DC6260
:40304000424040E000007E807E0181FE10107C101010110E0000E7424242423C0000E742242414080000E7425252522C0000E724182442E70000E742423E827C0000FF812D
:403080000E7081FF18302060602030181818181818181818180C040606040C18000000304906000000FF81C3BD8181FF3B438080808040387B43407840404040F888F8877B
:4030C000818F898FFFC3A59999A5C3FF00000000F4290000142A0000342A000000000000000000000000000000000000F229000000000000000000000000000000000000D4
:4031000000000000000000000000000000000000000000000000000000000000000000000000000000000000000000000C87FF1F00000000000000000000000000000000DE
:40314000000000000000000000000000000000000000000000000000000000000000000000000000000000000000000000000000000000000000000000000000000000004F
:40318000000000000000000000000000000000000000000000000000000000000000000000000000000000000000000000000000000000000000000000000000000000000F
:4031C00000000000000000000000000000000000000000000000000000000000000000000000000000000000000000000000000000000000000000000000000000000000CF
:40320000000000000000000000000000000000000000000000000000000000000000000000000000000000000000000000000000000000000000000000000000000000008E
:020000040003F7
:0200000480007A
:4000000001450040024F004002650040020501405708014032090140020B0140040C0140010D0140041501400317014053180140481901404C1A01404D1B014006400140D6
:40004000044101400F4201400343014005480140134901400D4C01400F4D01400450014003510140620101800A4B88728A3BE601EE010079014202020419051806660763B7
:40008000082409030C040D781201130B14641563171819631A1E1B101C011E801F04200121022206246725212608286529632A122C442F1B308033073578367F3B283E40BF
:4000C0005203580459045B045F018002810482048302843E853F883E893F8D418F82903A913D92049302940895209604970299029B109D089E019F02A180A280A340A404EE
:40010000A610A820AA04AC01AEFEB040B1C0B23FB480B53FB73FBE14BF01D804D904DF010001011404810688071009040A400B030C880E800F0410021260132016021729B6
:40014000181019111D401E8021012280230525282620272829012C082D012E082F013128334235403729380139543D083E926C026D406E106F059680C0FEC2FDC4FFCAF1D6
:40018000CCFFCEFF8240AA40B802BE01D804DF011A80E008E401E602EA05E210E610EA80004801400297047F0520068009020A240C120DE70F18110312BF1413157B17843D
:4001C00018F7198F1B701EBF1F9F20122101240725EC2713281129602C682D832E932F1C30C0317F337F35E0367F3B0A3E4156025710580459045B045F0186018A04960282
:400200009E08A601B008B202B404B601BE40C063C101C202C405C5ECC6FDC70BC81FC9FFCAFFCBFFCC62CDA0CEF0CF41D00CD804DA04DC01DF01E640E702E910EA30EB10C5
:40024000ED10EE10EF120024040105080606072009400B200C0A0D200F01122015011608174419441A881E801F4024042504260427502C8A2D083501368037183D203E0AD8
:400280003F80401549024A2552545E806C406D156E406F027408760A87108D049010910293019481951596C899109B2D9E4A9F50A002A120A280A488A504A702B204C0F6E0
:4002C000C2F5C4F4CAF0CCF0CEF0D00ED20CD610E210E612EA800038024304390640088009020A040E7B1007110113021701185B1A201E72201822402301282B2A403040BD
:4003000032803407350336783A803E053F10541B5604580459045B045F058201836085E086018701880189488B108C188D018E60900191E093019410950196A097E09A0152
:400340009BE19C089D609EA0A128A201A310A602A702AA04AB04AF01B03FB380B51FB6C0B760B802B928BE40D804D904DF010001012003110441072809200B810C800E688F
:400380001240132015141701182119201A801B401C401D011E82200425182610270229022C822D14310833013402364037283A103D283E403F01400359105A805B026004F0
:4003C000614063407902808087408C10911692409381940199529A509B399D01A002A124A204A480A510A601A740AD40B010C0FFC2FBC47ACAF1CCF3CEF4D60DD80DDE01B4
:40040000E008E204E401EA073244362037083B40CCF0CE10968897409F08A62013083E105B028240968897409B029F08A620AB02C410CE20D640E680EE8096189740A6206B
:400440008E2296109740A620B204122016407B027E028220864087409740A202A302AA10AB02C430DC80DE20E010E480E640EAA008100C040D10132816807B107F40841052
:400480008E80C207C40EDE03E608110877108104831087408F109780A710AB28AD10B004C408DE04E402EE0100010C0110031C0300BF010303C00000828000000300000046
:4004C000870040848300830000000000E00B0B00000000000000000000000000000000000000000000000000000000000000000000000000000000000000000000000000B5
:4005000000000000000000000000000000000000000000000000000000000000000000000000000000000000000000000000000000000000000000000000000000000000BB
:40054000000000000000000000000000000000000000000000000000000000000000000000000000000000000000000000000000000000000000000000000000000000007B
:40058000000000000000000000000000000000000000000000000000000000000000000000000000000000000000000000000000000000000000000000000000000000003B
:4005C00000000000000000000000000000000000000000000000000000000000000000000000000000000000000000000000000000000000000000000000000000000000FB
:0200000490006A
:0400000000004005B7
:0200000490105A
:04000000BC90ACAF55
:0200000490303A
:02000000254A8F
:0200000490402A
:4000000000000000000000000000000000000000000000000000000000000000000000000000000000000000000000000000000000000000000000000000000000000000C0
:400040000000000000000000000000000000000000000000000000000000000000000000000000000000000000000000000000000000000000000000000000000000000080
:400080000000000000000000000000000000000000000000000000000000000000000000000000000000000000000000000000000000000000000000000000000000000040
:4000C0000000000000000000000000000000000000000000000000000000000000000000000000000000000000000000000000000000000000000000000000000000000000
:0200000490501A
:0C00000000012E16106900012E2935B3F6
:00000001FF