:4000000000800020110000008D2F00008D2F000080B500AF024A034B1B68136002F0E8FFBC760040FA46004010B5054C237833B9044B13B10448AFF300800123237010BDB6
:40004000C087FF1F00000000B4810000084B10B51BB108490848AFF300800848036803B910BD074B002BFBD0BDE81040184700BF00000000C487FF1FB4810000C880FF1F9C
:400080000000000090B484B000AF3C4684E80F00054B1C463B460FCB84E80F0000BF1037BD4690BC704700BFDC87FF1F90B585B000AF3A601A460346FB710B46BB7113469A
:4000C0007B711B4B1B68FA79002110469847184B9B68BA7910469847154B5B689847144B1B68FA790121104698470023FB7313E0FB7B3A68D4180E4BDB68F97B7A79013A20
:400100009142B4BF01220022D2B21046984703462370FB7B0133FB73FA7B7B799A42E7D3034B5B68984700BF1437BD4690BD00BFDC87FF1F80B584B000AF3A601A460346A3
:40014000FB710B46BB7113467B71134B1B68FA790021104698470023FB7311E00E4B9A68BB79591CB971184690470B4B9B68FA7B39680A44127810469847FB7B0133FB732E
:40018000FA7B7B799A42E9D3034B5B68984700BF1037BD4680BD00BFDC87FF1F80B58AB000AF002387F8273007F127020123D0217620FFF77BFF07F10C021A2388217620F3
:4001C000FFF774FF3A1D0723E1217620FFF76EFF3B7B1AB27B7B1B021BB213431BB29AB24F4B9A81BB7B1AB2FB7B1B021BB213431AB24B4BDA813B7C1AB27B7C1B021BB2BB
:4002000013431AB2464B1A82BB7C1AB2FB7C1B021BB213431BB29AB2414B5A823B7D1AB27B7D1B021BB213431AB23D4B9A82BB7D1AB2FB7D1B021BB213431AB2384BDA82A1
:400240003B7E1AB27B7E1B021BB213431AB2344B1A83BB7E1AB2FB7E1B021BB213431AB22F4B5A833B7F1AB27B7F1B021BB213431AB22B4B9A83BB7F1AB2FB7F1B021BB26E
:4002800013431AB2264BDA8397F820301AB297F821301B021BB213431AB2214B1A8497F822301AB297F823301B021BB213431AB21B4B5A8497F82520194B83F824203B7923
:4002C0001AB27B791B021BB213431AB2144BA3F82520BA79124B83F827203B7A43F00F03DBB21AB2FB791B011BB213431AB20C4B1A853B7A63F00F03DBB21AB27B7A1B0155
:400300001BB213431AB2064B5A85BB7A5AB2044B83F82C2000F006F800BF2837BD4680BDEC87FF1F80B582B000AFB623FB71FA1D0123E0217620FFF7FDFE00BF0837BD464B
:4003400080BD00BF80B500AF0823064AF7217620FFF7ACFE0423044AF2217620FFF7A6FE00BF80BDEC87FF1FF487FF1FB0B58EB000AF0346FB71FB79002B01D0FFF7E2FFA8
:40038000664B5B791B09DBB21A46644B1B791B011A43624BDB781B031343FB624FF000035F4CC7E908344FF000035E4CC7E90634F86A03F0C3FE4FF000025B4B04F05EF824
:4003C00003460C4625461C46544B9B89184603F0B5FE4FF00002554B04F050F802460B462046294603F06CFD03460C46C7E904344A4BB3F90E30184603F0B0FE03460C464B
:400400001A462346D7E9040103F00EFF03460C46C7E90434F86A03F091FE4FF000024FF0824304F02BF803460C4625461C463B4B9B89184603F082FE4FF000023C4B04F0CC
:400440001DF802460B462046294603F039FD03460C46C7E90234D7E90223D7E9020103F0E3FE03460C4625461C462C4BB3F91030184603F073FE02460B462046294603F0E5
:40048000D3FE03460C46C7E90234D7E90223D7E9040103F017FD03460C461846214604F073F902461D4BC3F82D20D7E90223D7E9040103F007FD03460C46184621464FF081
:4004C00000021C4B03F0DAFF03460C46C7E90C34D7E90823D7E90C0104F018F90346002B04D0D7E90834C7E90C340CE0D7E90623D7E90C0104F028F90346002B03D0D7E98D
:400500000634C7E90C34D7E90C0104F03DF903465BB218463837BD46B0BD00BFEC87FF1F000044C0004055400000D040000090400000C0400000B440B0B590B000AF03466D
:40054000FB71FB79002B01D0FFF7FCFECA4B9B781B09DBB21A46C84B5B781B011A43C64B1B781B0313437B63BDA4D4E90034C7E90A34BDA4D4E90034C7E90834BE4BD3F8CF
:400580002D30184603F0EAFD4FF000024FF0804303F074FF03460C46184621464FF00002B64B03F08DFC03460C46C7E90634D7E90623D7E9060103F037FE03460C4625467C
:4005C0001C46AD4BB3F91C30184603F0C7FD02460B462046294603F027FE03460C46184621464FF00002A64B03F048FF03460C46C7E90434A04BB3F91A30184603F0AEFDE2
:40060000D7E9062303F010FE03460C461846214602460B4603F056FC03460C461A462346D7E9040103F04EFC03460C46C7E904344FF00002934BD7E9040103F01FFF03466B
:400640000C4625461C468C4BB3F91830184603F085FD4FF000028C4B03F0E6FD02460B462046294603F02EFC03460C46C7E90434814BB3F91630184603F070FDD7E906235C
:4006800003F0D2FD03460C4618462146D7E9062303F0CAFD03460C46184621464FF000027A4B03F0EBFE03460C46C7E90234724BB3F91430184603F051FDD7E9062303F08A
:4006C000B3FD03460C4618462146D7E9022303F0F9FB03460C46184621464FF000026B4B03F0CCFE03460C46C7E906344FF00002634BD7E9060103F0C1FE03460C46184624
:4007000021464FF00002624B03F0DCFB03460C4625461C46584B5B8A184603F00FFD02460B462046294603F07FFD03460C46C7E90634786B03F002FD03460C461A462346B2
:400740004FF00000534903F0BBFB03460C46C7E90E344FF00002504BD7E9040103F08EFE03460C461A462346D7E90E0103F0A8FB03460C46184621463DA3D3E9002303F06D
:4007800053FD03460C4618462146D7E9062303F075FE03460C46C7E90E34374BB3F92230184603F0DBFCD7E90E2303F03DFD03460C4618462146D7E90E2303F035FD034628
:4007C0000C46184621464FF00002344B03F056FE03460C46C7E90634274BB3F92030184603F0BCFCD7E90E2303F01EFD03460C46184621464FF00002214B03F03FFE03465A
:400800000C46C7E90434D7E90423D7E9060103F059FB03460C4625461C46174BB3F91E30184603F09BFC02460B462046294603F049FB03460C46184621464FF00002184B34
:4008400003F01CFE03460C461A462346D7E90E0103F038FB03460C46C7E90E3422E000BF00000000004CDD400000000000DBFA4000000000006AB840EC87FF1F0040EF40E4
:400880000000E040000010400000F040000020410000F03F000030410000B0400000E04100003040D7E90A23D7E90E0103F02EFF0346002B04D0D7E90A34C7E90E340CE016
:4008C000D7E90823D7E90E0103F03EFF0346002B03D0D7E90834C7E90E34D7E90E0103F07BFF034618464037BD46B0BDB0B596B000AF0346FB71FB79002B01D0FFF722FD7B
:400900008B4BDB791A468A4B9B791B021343FB644FF000034FF00004C7E910344FF00003844CC7E90E34824BD3F82D30184603F015FC4FF00002804B03F0C2FA03460C4648
:40094000C7E90C347A4BB3F92830184603F006FC4FF00002794B03F067FC03460C4625461C46734BB3F92A30184603F0F7FB4FF00002734B03F082FD02460B4610461946E2
:40098000D7E90C2303F050FC02460B462046294603F098FA03460C46C7E90A34F86C03F0CDFBD7E90A2303F08BFA03460C46C7E908345F4BB3F925301BB2184603F0CEFBF0
:4009C0004FF000025F4B03F059FD03460C46C7E90634574B93F82730184603F0AFFB4FF00002594B03F04AFD03460C4618462146D7E90C2303F018FC03460C4618462146EA
:400A00004FF00002514B03F05DFA03460C46C7E90434474B93F92C30184603F09FFB4FF00002494B03F02AFD03460C4618462146D7E90C2303F0F8FB03460C461846214623
:400A4000D7E9042303F0F0FB03460C46184621464FF000023D4B03F035FA03460C46C7E90234D7E90623D7E9080103F0DDFB03460C4625461C46D7E90223D7E9040103F063
:400A8000D3FB02460B462046294603F0CDFB03460C46C7E90234264B93F82430184603F04DFBD7E9022303F0BFFB03460C46184621464FF00002264B03F0E0FC03460C46C7
:400AC0001A4623464FF00000204903F0F9F903460C4618462146D7E9022303F0A5FB03460C46C7E91434D7E90E23D7E9140103F02BFE0346002B04D0D7E90E34C7E9143411
:400B00000CE0D7E91023D7E9140103F0FFFD0346002B03D0D7E91034C7E91434D7E9140103F05AFE0346DBB218465837BD46B0BDEC87FF1F0000594000C0F24000005040D0
:400B40000000D0400000F040000090410000F03F0000204180B400AF044B1B7A03F00703DBB21846BD4680BC704700BFEC87FF1F80B582B000AF0346FB710C4B1B7A03F035
:400B80000703DAB2094B1A72084B1A7AFB791343DAB2064B1A720123054AF2217620FFF7C9FA00BF0837BD4680BD00BFEC87FF1FF487FF1F80B400AF044B9B7A23F01F032D
:400BC000DBB21846BD4680BC704700BFEC87FF1F80B582B000AF0346FB710C4B9B7A03F01F03DAB2094B9A72084B9A7AFB791343DAB2064B9A720123054AF4217620FFF75E
:400C000099FA00BF0837BD4680BD00BFEC87FF1FF687FF1F80B400AF044B9B7A03F01C03DBB21846BD4680BC704700BFEC87FF1F80B582B000AF0346FB710C4B9B7A23F024
:400C40001C03DAB2094B9A72084B9A7AFB791343DAB2064B9A720123054AF4217620FFF769FA00BF0837BD4680BD00BFEC87FF1FF687FF1F80B400AF044B9B7A03F003036F
:400C8000DBB21846BD4680BC704700BFEC87FF1F80B582B000AF0346FB710C4B9B7A23F00303DAB2094B9A72084B9A7AFB791343DAB2064B9A720123054AF4217620FFF799
:400CC00039FA00BF0837BD4680BD00BFEC87FF1FF687FF1F80B400AF044BDB7A03F01C03DBB21846BD4680BC704700BFEC87FF1F80B582B000AF0346FB710C4BDB7A23F044
:400D00001C03DAB2094BDA72084BDA7AFB791343DAB2064BDA720123054AF5217620FFF709FA00BF0837BD4680BD00BFEC87FF1FF787FF1F90B484B000AF3B1D83E807009B
:400D4000054B1C463B1D93E8070084E8070000BF1037BD4690BC70472088FF1FB0B588B000AF0D4B3C1D1D4628686968AA68EB680FC42869696903C42B8BAA7E23801346A5
:400D8000A3703B1D1921184600F008F800F0A8F800BF2037BD46B0BDB881000080B584B000AF78600B46FB70104B1B6800213C2098470E4B9B68002098470023FB730AE035
:400DC0000A4B9B68FA7B79680A44127810469847FB7B0133FB73FA7BFB789A42F0D3034B5B68984700BF1037BD4680BD2088FF1F80B584B000AF78600B467B80104B1B6883
:400E000000213C2098470E4B9B68402098470023FB810AE00A4B9B68FA8979680A44127810469847FB890133FB81FA897B889A42F0D3034B5B68984700BF1037BD4680BDDA
:400E40002088FF1F80B485B000AF0346FB710B46BB7113467B7197F90730002B38DBBB793F2B35D8BB79DB08FB73FB79BB73FB7B9BB2DB019AB2BB7B9BB21344BB81BB7911
:400E800003F00703FB727B79002B0FD0BB89BA8912498A5C51B2FA7A012000FA02F252B20A4352B2D1B20D4AD15412E0BB89BA890A498A5C51B2FA7A012000FA02F252B2EC
:400EC000D24352B20A4052B2D1B2044AD15400E000BF1437BD4680BC704700BF2C88FF1F80B483B000AF00237B6007E0084A7B68134400221A707B6801337B607B68B3F574
:400F0000806FF3D300BF0C37BD4680BC704700BF2C88FF1F80B500AF154B1B6800213C209847134B9B6800209847114B9B68212098470F4B9B68002098470D4B9B687F201B
:400F400098470B4B9B6822209847094B9B6800209847074B9B6807209847054B5B6898474FF480610348FFF743FF00BF80BD00BF2088FF1F2C88FF1F80B500AF00F034F97A
:400F8000064B074A07CA83E80700064B00221A80054B00221A8000BF80BD00BF2C8CFF1FD4810000388CFF1F3A8CFF1F80B500AF00F038F900BF80BD80B500AF00F038F981
:400FC00000BF80BD80B588B000AF0346FB800B46BB8013467B80314B1A687B88DB001A4407F1080392E8030083E803003B7B9AB2FB8813449AB2BB7B9BB213447B837B7B17
:401000009AB2BB8813449AB2FB7B9BB213443B83FB7B9AB2BB881344FB8336E0BB7B9AB2FB881344BB8329E0BB68DB087B61BB68DBB203F00703FB74184B5A687B691344B5
:401040001B781A46FB7CC3F1070342FA03F303F00103002B06D0F98BBB8B0122184600F0F9F805E0F98BBB8B0022184600F0F2F8BB680133BB60BB8B0133BB83BA8B7B8B74
:401080009A42D1D3FB8B0133FB83FA8B3B8B9A42C4D300BF2037BD4680BD00BF2C8CFF1F80B483B000AF03460A46FB801346BB80054AFB881380054ABB88138000BF0C3785
:4010C000BD4680BC704700BF388CFF1F3A8CFF1F80B584B000AF0346FB801C4B1A68FB88DB001A4407F1080392E8030083E80300174B1B881A463B7B1344802B0EDD144B9F
:4011000000221A807B7B9AB2FB7B9BB213449AB2104B1B8813449AB20E4B1A800C4B18880C4B1B88FA881946FFF74CFF3B7B9AB2BB7B9BB213449AB2054B1B8813449AB2E6
:40114000034B1A8000BF1037BD4680BD2C8CFF1F388CFF1F3A8CFF1F80B582B000AF0346FB80FB881846FFF7B3FF00BF0837BD4680BD00BF80B582B000AF786025E07B686F
:401180001B780A2B0FD1154B00221A80144B1B7A9AB2144B1B8813449AB2124B1A807B6801337B6011E07B681B781F2B03D87B6801337B6009E07B685A1C7A601B789BB223
:4011C000203B9BB21846FFF783FF7B681B78002BD5D100BF0837BD4680BD00BF388CFF1F2C8CFF1F3A8CFF1F80B584B000AF0C4A3B4607CA83E807003B4693E80700FFF766
:4012000099FD02F051FE0346FB73FFF7A7FDFB7B184602F04DFE00BF1037BD4680BD00BFE081000080B500AFFFF75AFE00BF80BD80B582B000AF02F037FE0346FB71FFF7F9
:4012400069FEFB79184602F033FE00BF0837BD4680BD00BF80B582B000AF0346FB800B46BB801346FB70FB88DBB2BA88D1B2FA781846FFF7E7FD00BF0837BD4680BD00BF6F
:4012800080B500AF00F036F800BF80BD80B582B000AF03460A46FB711346BB71BA79FB791146184600F02CF800BF0837BD4680BD80B500AF00F036F800BF80BD80B582B07D
:4012C00000AF0346FB71FB79184600F031F8034618460837BD4680BD80B582B000AF0346FB71FB79184600F031F800BF0837BD4680BD00BF80B500AF01F074FF00BF80BD82
:4013000080B582B000AF03460A46FB711346BB71BA79FB791146184602F050F900BF0837BD4680BD80B500AF02F0A4F900BF80BD80B582B000AF0346FB71FB79184602F03A
:4013400005FA034618460837BD4680BD80B582B000AF0346FB71FB79184602F0B7F900BF0837BD4680BD00BF90B587B002AF394B00934FF000024FF000033749374800F056
:4013800079F9374B00934FF000024FF000033549324800F06FF9344B00934FF000024FF0000332492D4800F065F9314B314A32492A4800F0C5FA314B314A3249274800F09C
:4013C000BFFA314B314A3249244800F0B9FA314B314A3249214800F0B3FA314B314A32491E4800F0ADFA314B3C460FCB84E80F003B460FCBFEF746FEFEF7D0FE4FF00002E1
:401400004FF000031C49154800F0EAFA4FF020024FF000031B49114800F0E2FA4FF004024FF000031A490D4800F0DAFA4FF001024FF000031949094800F0D2FA4FF0010270
:401440004FF000031849054800F0CAFA00BF1437BD4690BDB1140000EC810000F8810000E114000000820000111500000C820000411500005D1500001882000075150000AC
:401480009115000020820000A9150000C515000030820000DD150000F915000040820000111600002D160000508200005882000090B583B000AF0120FEF758FF0346184687
:4014C00002F04CFE03460C46C7E900340120FFF7DFFBD7E90034184621460C37BD4690BD90B583B000AF0120FFF726F80346184602F024FE03460C46C7E900340120FFF747
:40150000C7FBD7E90034184621460C37BD4690BD90B583B000AF0120FFF7E8F90346184602F00CFE03460C46C7E900340120FFF7AFFBD7E90034184621460C37BD4690BD4F
:4015400080B582B000AFC7E900013B781846FFF7CFFB00BF0837BD4680BD00BF98B500AFFFF7B8FB0346DBB24FF000041846214698BD00BF80B582B000AFC7E900013B78C5
:401580001846FFF725FB00BF0837BD4680BD00BF98B500AFFFF70EFB0346DBB24FF000041846214698BD00BF80B582B000AFC7E900013B781846FFF73BFB00BF0837BD46C8
:4015C00080BD00BF98B500AFFFF724FB0346DBB24FF000041846214698BD00BF80B582B000AFC7E900013B781846FFF7C1FA00BF0837BD4680BD00BF98B500AFFFF7AAFAD0
:401600000346DBB24FF000041846214698BD00BF80B582B000AFC7E900013B781846FFF737FB00BF0837BD4680BD00BF98B500AFFFF720FB0346DBB24FF0000418462146D0
:4016400098BD00BF98B500AF084A4FF000034FF00004C2E90034064A4FF000034FF00004C2E9003400F09AFA00BF98BD4894FF1F4091FF1F90B484B000AFF860B960C7E927
:4016800000232B4BD3E900124B1C42F100042848C0E9003427480C4623469B002344DB000344F868186023480C4623469B002344DB0003440433B86818601E480C46234678
:4016C0009B002344DB00034403F10800D7E90034C0E9003417480C4623469B002344DB00034403F110004FF000034FF00004C0E9003410480C4623469B002344DB0003441E
:4017000003F118004FF000034FF00004C0E9003408480A4613469B001344DB0003442033BA691A6000BF1037BD4690BC704700BF4091FF1F408CFF1F90B585B000AF786099
:4017400039604FF000034FF00004C7E902342FE02049BA6813469B001344DB000B441B687968184604F079F80346002B19D11949BA6813469B001344DB000B4404331B681E
:401780003968184604F069F80346002B09D11149BA6813469B001344DB000B44183318CB12E0D7E90234013344F10004C7E90234094B18CBD7E90212A24208BF9942C7D302
:4017C0004FF000034FF00004184621461437BD4690BD00BF408CFF1F4091FF1F90B585B000AF786039604FF000034FF00004C7E902342FE02049BA6813469B001344DB00A7
:401800000B441B687968184604F027F80346002B19D11949BA6813469B001344DB000B4404331B683968184604F017F80346002B09D11149BA6813469B001344DB000B4432
:40184000083318CB12E0D7E90234013344F10004C7E90234094B18CBD7E90212A24208BF9942C7D34FF000034FF00004184621461437BD4690BD00BF408CFF1F4091FF1F67
:4018800090B587B000AFF860B960C7E900234FF000034FF00004C7E9043442E026493A6913469B001344DB000B441B68F968184603F0D3FF0346002B2CD11F493A691346C7
:4018C0009B001344DB000B4404331B68B968184603F0C3FF0346002B1CD117493A6913469B001344DB000B4403F10802D7E90034C2E9003410493A6913469B001344DB0012
:401900000B4403F110024FF000034FF00004C2E900340EE0D7E90434013344F10004C7E90434064B18CBD7E90412A24208BF9942B4D31C37BD4690BD408CFF1F4091FF1F20
:4019400090B484B000AFF860B9607A603B60224BD3E900124B1C42F100041F48C0E900341E480C4623465B002344DB000344F86818601A480C4623465B002344DB0003445F
:401980000433B868186015480C4623465B002344DB00034403F108004FF000034FF00004C0E900340D480C4623465B002344DB00034410337868186008480A4613465B001B
:4019C0001344DB00034414333A681A6000BF1037BD4690BC704700BF4894FF1F4891FF1F90B587B000AFF860B960C7E900234FF000034FF00004C7E904344AE02B493A6932
:401A000013465B001344DB000B441B68F968184603F023FF0346002B34D124493A6913465B001344DB000B4404331B68B968184603F013FF0346002B24D11C493A69134654
:401A40005B001344DB000B4403F10802D7E90034C2E9003415493A6913465B001344DB000B4414331B68002B1CD010493A6913465B001344DB000B4414331B68D7E90001E6
:401A800098470FE0D7E90434013344F10004C7E90434074B18CBD7E90412A24208BF9942ACD300E000BF1C37BD4690BD4891FF1F4894FF1F90B583B000AF4FF000034FF020
:401AC0000004C7E9003458E032493A6813469B001344DB000B44103318CB591C44F100022C4C386803469B000344DB0023441033C3E9001227493A6813469B001344DB00A4
:401B00000B441033D3E90012224C386803469B000344DB002344083318CBA24208BF994224D11C493A6813469B001344DB000B4420331B6898470A460146164C386803461E
:401B40009B000344DB0023441833C3E9001211493A6813469B001344DB000B4403F110024FF000034FF00004C2E90034D7E90034013344F10004C7E90034074B18CBD7E923
:401B80000012A24208BF99429ED300BF0C37BD4690BD00BF408CFF1F4091FF1F80B500AF02F026F8034802F067F8FFF7DDFB00BF80BD00BFB51A000080B500AF01F002FE75
:401BC00000BF80BD80B500AF01F05EFE0346184680BD00BF80B582B000AF0346FB71FB79184601F073FE00BF0837BD4680BD00BF80B500AFFFF7E0FF00BF80BD80B500AF80
:401C0000FFF7E0FF0346184680BD00BF80B500AFFFF7F4FF0346184680BD00BF80B582B000AF0346FB71FB791846FFF7D3FF00BF0837BD4680BD00BF90B589B000AFF860D5
:401C4000C7E9002302F030F90346FB754FF000034FF00004C7E906340DE0BB69FA6813441B781846FFF7DAFFD7E90634013344F10004C7E90634D7E90612D7E90034A242C3
:401C800008BF9942E9D3FB7D184602F011F900BF2437BD4690BD00BF80B584B000AFF860C7E90023D7E90023F868FFF7C5FF00BF1037BD4680BD00BF80B582B000AF034627
:401CC000FB71FB791846FFF7A9FF00BF0837BD4680BD00BF80B584B000AF786002F0E4F80346FB7306E07B685A1C7A601B781846FFF7E2FF7B681B78002BF4D10020FFF739
:401D0000DBFFFB7B184602F0D3F800BF1037BD4680BD00BF80B586B000AF78600B46FB707B689B79FA789A4209D27B681A797B685B799A4203D87B681B68002B02D17B683A
:401D40001B7921E07B681B79FB757B689B79FA7D02FB03F3DAB2FB781344BB757B681A68BB7DDB001A4407F10C0392E8030083E803003B7B7B753B69002B01D03B6998476F
:401D80007B687A7D1A717B7D18461837BD4680BD80B586B000AFF860B9607A600F49F86803F06EFD786100233B610CE03B695A1C3A619B007A6813447A691A600749002084
:401DC00003F05EFD78617B69002BEFD1BB683A691A6000BF1837BD4680BD00BFB883000080B500AF074B00221A70074B002283F80021054B00221A70044801F0FDFF00BF7F
:401E000080BD00BF4C95FF1F5095FF1FFD1E000080B5CCB000AF304B1B78DBB2002B56D02D4B00221A7007F1300318464FF480731A46002102F0F6FF07F130031A462749F7
:401E4000274803F08DFC3A1D07F12C0319462448FFF79EFF2348FFF73DFF4FF00A024FF000031F48FFF718FF07F130031E49184603F0F3FC0346002B08D107F12C031B6834
:401E80003A1D1146184600F093F81CE007F130031649184603F0E1FC0346002B08D107F12C031B683A1D1146184600F0B5F80AE00F48FFF70FFF07F130031846FFF70AFF7A
:401EC0000C48FFF707FF0C48FFF704FF00E000BF07F59877BD4680BD5094FF1FBC8300005095FF1FC0830000C4830000CC830000D4830000EC830000F083000080B582B09E
:401F000000AF01F0D1FF0346FB71FFF77FFE0346BB71154B1B78DBB25A1CD1B2124A11701946124ABB795354BB791846FFF7C4FEBB790A2B02D0BB790D2B0CD10C4B012260
:401F40001A70094B1B78DBB2013B084A0021D154054B00221A70FB79184601F0A9FF00BF0837BD4680BD00BF4C95FF1F5095FF1F5094FF1F80B500AF0248FFF7ABFE00BF9B
:401F800080BD00BF0884000080B500AF0248FFF7A1FE00BF80BD00BF708D000080B500AF0248FFF797FE00BF80BD00BF788D000080B586B002AF786039600023FB60002377
:401FC000BB60124B01221A600EE0FB68682B02D0762B03D005E0FFF7CDFF05E0FFF7D4FF02E0FFF7DBFF0DE007F108030093084B084A3968786802F0BDFEF860FB68B3F1E6
:40200000FF3FE2D11037BD4680BD00BF3895FF1F78820000988D000090B59DB002AF786039600023FB6300237B65B44B01221A6000237B6600233B660023FB650023BB65FD
:4020400000233B650023FB64DBE07B6D543B202B00F2D48001A252F823F000BF97210000FD210000FD210000FD210000FD210000FD210000FD210000FD210000FD210000F1
:40208000FD210000FD210000FD210000FD210000FD210000FD210000FD210000F1210000FD210000F3200000FD210000F7210000FD210000FD210000FD210000FD2100005D
:4020C000ED200000FD21000017210000E7200000FD210000FD210000FD210000E120000001237B668DE001233B668AE00123FB6587E0834B1B688349184603F0AEFB03462F
:40210000002B7ED14FF000024FF000037E497F48FFF766FC75E07A4B1B687D49184603F09CFB0346002B02D101233B6569E0744B1B687849184603F090FB0346002B02D1F7
:4021400002233B655DE06E4B1B687349184603F084FB0346002B02D104233B6551E0684B1B686E49184603F078FB0346002B02D108233B6545E0624B1B686949184603F03B
:402180006CFB0346002B02D110233B6539E06548FFF7A0FD35E05A4B1B680A220021184603F052FCF8647B6E002B08D0FB6C4FEAE3741A4623465C495448FFF761FB3B6ED8
:4021C000002B08D0FB6C4FEAE3741A46234657494E48FFF755FBFB6D002B12D0FB6C4FEAE3741A46234652494848FFF749FB08E00123BB6505E0FFF7BDFE02E0FFF7CEFEA0
:4022000000BF07F13C0300934A4B4B4A3968786802F0B0FD78657B6DB3F1FF3F7FF415AFBB6D002B65D07B6E002B1ED03E493748FFF782FA03460C461846214602F0CCFAD3
:402240000346BB6407F1080332220021184602F0E9FD07F10803BA6C3849184603F05CFA07F108031846FFF735FD3B6E002B1ED02E492648FFF760FA03460C461846214617
:4022800002F0AAFA03467B6407F1080332220021184602F0C7FD07F108037A6C2849184603F03AFA07F108031846FFF713FDFB6D002B1ED01E491548FFF73EFA03460C4680
:4022C0001846214602F088FA03463B6407F1080332220021184602F0A5FD07F108033A6C1849184603F018FA07F108031846FFF7F1FC00BF6C37BD4690BD00BF3895FF1F46
:402300003C95FF1F9C8D0000D8820000A08D0000A88D0000AC8D0000B08D0000B48D0000B88D0000BC8D0000A8820000B4820000CC82000008830000D88D0000E48D000075
:40234000008E0000148E000080B500AF01F0D8FA094801F08BFB094801F0ECFA084801F037FB084B00221A70074B00221A70074B00221A7000BF80BD91230000A9230000AC
:40238000C12300005194FF1F5294FF1F5394FF1F80B400AF034B01221A7000BFBD4680BC704700BF5194FF1F80B400AF034B01221A7000BFBD4680BC704700BF5294FF1F82
:4023C00080B400AF034B01221A7000BFBD4680BC704700BF5394FF1F80B500AF664B06225A71654B04229A71634B00221A71624B624A1A60614B624A083392E8030083E874
:4024000003005E4B5F4A103392E8030083E803005A4B5D4A183392E8030083E80300574B00221A70554B594A5A60544B002283F86820524B564ADA66504B564A703392E8B3
:40244000030083E803004D4B534A783392E8030083E80300494B4A4A603392E8030083E80300464B4D4A283392E8030083E80300424B454A303392E8030083E803003F4B18
:40248000002283F838203D4B414ADA633B4B444A203392E8030083E80300384B394A883392E8030083E80300344B3E4A903392E8030083E80300314B3B4A983392E80300DB
:4024C00083E803002D4B354A803392E8030083E803002A4B354A483392E8030083E80300264B002283F85020244B294A5A65234B244A583392E8030083E803001F4B2C4A2E
:40250000403392E8030083E803001C4B1E4AA83392E8030083E80300184B264AB03392E8030083E80300154B234AB83392E8030083E80300114B1D4AA03392E8030083E8E6
:4025400003004FF4FA724FF000031C491C48FFF797F94FF4FA724FF000031A491848FFF78FF94FF4FA724FF0000317491448FFF787F900BF80BD00BF5496FF1F5894FF1FF6
:40258000548E00005C8E0000648E000099260000352600006C8E0000748E00007C8E0000848E00008C8E0000948E00009C8E0000A48E0000AC8E0000B48E0000288E000061
:4025C000348E00003C8E0000488E000080B586B000AFF860B9607A600023FB75FB681B78DBB2002B05D00123FB75FB6800221A7014E0BB681B78DBB2002B05D00223FB758F
:40260000BB6800221A7009E07B681B78DBB2002B04D00323FB757B6800221A70FB7D19460348FFF777FB00BF1837BD4680BD00BF5496FF1F90B589B000AF3B46202200210B
:40264000184602F0EFFB11491148FFF775F803460C461846214602F0BFF802463B460D49184603F059F8FEF7A1FC00210020FEF717FD3B461846FEF77DFD5F20FEF76CFD39
:40268000FEF79AFC00BF2437BD4690BD288E0000348E0000BC8E0000B0B582B000AF16491648FFF749F8C7E90001154BD3E90001D7E9002301F004FC02460B46144623F081
:4026C00000450BA3D3E900232046294602F01EF80346002B07D10A4AD7E90034C2E90034FFF7A8FF00E000BF0837BD46B0BD00BFFCA9F1D24D62503F288E0000348E0000F0
:402700001895FF1FB0B58AB000AF3B4620220021184602F087FB16491648FFF75FF8C7E90801D7E9083423430CD13B46124A1C4615460FCD0FC42B681A46228002341B0C8D
:40274000237005E03A6A3B460C49184602F0E4FFFEF72CFC00210020FEF7A2FC3B461846FEF708FDFEF728FC00BF2837BD46B0BD288E0000348E0000D08E0000E48E00007B
:4027800090B583B000AF0A490A48FFF727F8C7E90001D7E90034643344F100041A46234603490448FFF76CF800BF0C37BD4690BD288E0000348E000090B583B000AF1249BC
:4027C0001248FFF70BF8C7E90001D7E90034002C08BF652B0BD3D7E90034643B44F1FF341A46234608490948FFF74AF807E04FF000024FF0000304490448FFF741F800BFF1
:402800000C37BD4690BD00BF288E0000348E000090B589B000AF3B4620220021184602F001FB11491148FEF787FF03460C461846214601F0D1FF02463B460D49184602F0B3
:402840006BFFFEF7B3FB00210020FEF729FC3B461846FEF78FFC6220FEF77EFCFEF7ACFB00BF2437BD4690BD3C8E0000348E0000F48E000000000000B0B582B000AF1649E7
:402880001648FEF759FFC7E90001154BD3E90001D7E9002301F014FB02460B46144623F000450BA3D3E900232046294601F02EFF0346002B07D10A4AD7E90034C2E900347E
:4028C000FFF7A6FF00E000BF0837BD46B0BD00BFFCA9F1D24D62503F3C8E0000348E00002095FF1FB0B58AB000AF3B4620220021184602F097FA16491648FEF76FFFC7E948
:402900000801D7E9083423430CD13B46124A1C4615460FCD0FC42B681A46228002341B0C237005E03A6A3B460C49184602F0F4FEFEF73CFB00210020FEF7B2FB3B461846F2
:40294000FEF718FCFEF738FB00BF2837BD46B0BD3C8E0000348E0000048F0000188F000090B583B000AF0A490A48FEF737FFC7E90001D7E90034643344F100041A4623469D
:4029800003490448FEF77CFF00BF0C37BD4690BD3C8E0000348E000090B583B000AF12491248FEF71BFFC7E90001D7E90034002C08BF652B0BD3D7E90034643B44F1FF3445
:4029C0001A46234608490948FEF75AFF07E04FF000024FF0000304490448FEF751FF00BF0C37BD4690BD00BF3C8E0000348E000090B589B000AF3B4620220021184602F0D8
:402A000011FA10491048FEF797FE03460C461846214601F0E1FE02463B460C49184602F07BFEFEF7C3FA00210020FEF739FB3B461846FEF79FFBFEF7BFFA00BF2437BD46E4
:402A400090BD00BF488E0000348E0000288F0000B0B582B000AF16491648FEF76DFEC7E90001154BD3E90001D7E9002301F028FA02460B46144623F000450BA3D3E90023FC
:402A80002046294601F042FE0346002B07D10A4AD7E90034C2E90034FFF7AAFF00E000BF0837BD46B0BD00BFFCA9F1D24D62503F488E0000348E00002895FF1FB0B58AB039
:402AC00000AF3B4620220021184602F0ABF916491648FEF783FEC7E90801D7E9083423430CD13B46124A1C4615460FCD0FC42B681A46228002341B0C237005E03A6A3B464C
:402B00000C49184602F008FEFEF750FA00210020FEF7C6FA3B461846FEF72CFBFEF74CFA00BF2837BD46B0BD488E0000348E0000388F00004C8F000090B583B000AF0A493D
:402B40000A48FEF74BFEC7E90001D7E90034643344F100041A46234603490448FEF790FE00BF0C37BD4690BD488E0000348E000090B583B000AF12491248FEF72FFEC7E9D4
:402B80000001D7E90034002C08BF652B0BD3D7E90034643B44F1FF341A46234608490948FEF76EFE07E04FF000024FF0000304490448FEF765FE00BF0C37BD4690BD00BF8C
:402BC000488E0000348E000080B500AF62B6FEF757FBFEF7D1F9FFF70BF8FEF733FDFFF7B3FBFFF7FDF8FFF7F7FBFFF711F9034A03490448FFF7EAFCF7E700BF5394FF1F43
:402C00005294FF1F5194FF1F80B582B000AF786039603A680021786802F004F900BF0837BD4680BD80B584B000AFF860B9607A607A68B968F86802F0EAF800BF1037BD4693
:402C400080BD00BF80B483B000AF0346FB71FEE780B487B000AF7860396000233B6100237B6127E07B699B007A6813441B68BB60BB68FB73BB6823F0FF03BB6014E03B6986
:402C80005B003A6813441B781A46BB68134419463B695B003A6813445B780B703B6901333B61FB7B013BFB73FB7B002BE7D17B6901337B617B69182BD4D900BF1C37BD46E4
:402CC00080BC704780B582B000AF344B4FF49C721A80334B18221A70324B4CF24F321A80314B19221A70314B02221A704FF0402308221A702E4B03221A702E4B2E4A1278E5
:402D0000D2B21A702D4B08221A802D4B41F251221A800023FB7019237B6014E0FB785B00DAB2284B1B78DBB203F00103DBB21343DBB203F00303FB704FF4F07001F0ACF808
:402D40007B68013B7B607B68002B02D0FB78032BE4D17B68002B02D10320FFF773FF1A4B4FF480721A80184B07221A70174B00221A70174B48221A70134B00221A70154B9F
:402D800002221A70144A144B1B78DBB243F00303DBB2137000BF0837BD4680BD804000408240004084400040864000400043004000420040A14600400801004922420040D3
:402DC000204200402542004004400040064000400840004001400040A243004080B483B000AF0B4B1B78FB710A4AFB7903F00703DBB21370084AFB791B09DBB21370074BC6
:402E000044221A7000BF0C37BD4680BC704700BFCF0100496E5800406F5800407658004080B586B000AF72B6484A484B1B78DBB243F00403DBB213700023FB7513E0FA7DE9
:402E400013465B0013445B00414A13443B613B691A683B699B889BB219461046FFF7D4FEFB7D0133FB75FB7D0A2BE8D90023FB751CE0FA7D13469B0013445B00354A1344AB
:402E8000FB60FB681B68BB60FB685B687B60FB681A7A5B7A1B0213437B807B881A467968B868FFF7BFFEFB7D0133FB75FB7D012BDFD929494FF09040FFF7CAFE274A274BCA
:402EC0001B78DBB243F00203DBB21370244A244B1B78DBB243F00203DBB21370214A214B1B78DBB243F04003DBB213701E4A1E4B1B78DBB243F01003DBB213700A221B49D1
:402F00001B48FFF78FFE08221A491B48FFF78AFE1A4A1A4B1B78DBB243F00803DBB21370174B61221A70FFF7CDFE154B81221A70144B01221A70FFF751FF0E22094912481B
:402F4000FFF770FE00BF1837BD4680BDE84600405C8F0000A08F0000640000480350014013500140A0430040C243004084040048C051004090040048125100402243004086
:402F80000048004004000840B043004080B500AF01F042FC03461B680C2B00D1FEE7FEE780B584B000AF78600F4B1A687B6813441A460E4BD31A802B09DC0B4B1B68FB60E9
:402FC000094B1A687B681344074A136007E001F023FC02460C2313604FF0FF33FB60FB6818461037BD4680BD0C87FF1F7896FF1F80B586B000AF224B7B61224B3B61204B54
:403000007B6135E03B691B68FB603B695B68BB603B699B683B6000237B600CE0FB681A68BB681A60BB680433BB60FB680433FB607B6804337B607A683B689A42EED13B69CA
:40304000DB683B6000237B6008E0BB6800221A60BB680433BB607B6804337B607A683B689A42F2D13B6910333B617B69013B7B617B69002BC6D101F095FEFFF7A5FDFEE719
:40308000010000004893000080B582B000AF184B184A1A60184A184B1B6843F40073136000237B600FE07B68032B04D8134A7B6852F8233000E0124B12497A6841F82230BE
:4030C0007B6801337B607B682F2BECD90E4B1B78DAB20E4B1A700E4B0A4A1A60FFF7A0FE0C4B00221A6000BF0837BD4680BD00BF0CED00E00004FA0514ED00E00000000019
:403100008D2F00000080FF1FBC760040C480FF1F08ED00E0C080FF1F80B500AF144B02221A70144B81221A70134B08221A70134B0F221A70124B00221A70124B4FF400429B
:403140001A6007210F2000F033FE0F490F2000F007FE0E4B10221A700D4B00221A700D4B00221A700C4B00221A7000BF80BD00BFD6490040C8490040CA490040DB4900409F
:40318000DC49004080E100E0153200005C96FF1F6296FF1F6A96FF1F6096FF1F80B582B000AF00F081FE0346FB710C4A0B4B1B78DBB243F00403DBB21370094A084B1B7841
:4031C000DBB243F00403DBB21370FB79184600F06FFE00BF0837BD4680BD00BFA5430040B543004080B500AF084B1B78002B04D1FFF792FF054B01221A70FFF7CFFF044B0B
:403200004FF400421A6000BF80BD00BF3095FF1F00E100E080B582B000AFA74B1B78FB71A64B1B78DBB203F04003DBB2002B00F0A981FB7903F00103002B00F080819F4B9F
:403240001B78DBB2453B052B00F2758101A252F823F000BF6D3200009333000037350000373500006D3200007F340000FB7923F02003FB71FB7903F00A03DBB2082B46D1E7
:403280008E4B1B78DBB2452B3AD18D4B1B78DBB2002B0FD08B4A8C4B1B681B78DBB21370854B04221A70894B01221A70834B46221A7044E1864B1B78DBB203F00203002BCC
:4032C0000FD0844B1B78DBB243F00A03DAB2814B1A707A4B60221A707F4B4FF400421A602DE17E4A7D4B1B78DBB243F01003DBB213707B4B10221A706F4B04221A701EE145
:403300006D4B00221A706D4B4A221A7017E1FB7903F00A03DBB20A2B37D16E4B1B78DBB263F05F03DAB26B4B1A70694B1B78DBB203F00203002B19D0604B1B78DBB203F04D
:403340000803002B01D0092300E00A23DAB2614B1B78DBB21343DAB25E4B1A70574B60221A705D4B4FF400421A60E8E05B4A5B4B1B78DBB243F01003DBB21370584B1022ED
:403380001A704D4B04221A70D9E0002000F0DCFCD5E0FB7903F00203002B42D14B4B1B78DAB2474B1B78DBB29A4214D2454A464B1B6846490978C9B20B441B78DBB21370F2
:4033C0003D4B04221A70414B1B78DBB20133DAB23E4B1A70B3E03E4B1B78DBB203F00203002B0FD03B4B1B78DBB243F00A03DAB2384B1A70314B60221A70374B4FF40042CA
:403400001A609CE0354A354B1B78DBB243F01003DBB21370324B10221A70274B04221A708DE02B4B1B78DBB203F00203002B0FD0284B1B78DBB263F06503DAB2254B1A70ED
:403440001E4B60221A70244B4FF400421A6076E0224A224B1B78DBB243F01003DBB213701F4B10221A70144B04221A70194B1B78DBB263F06F03DAB2164B1A705FE0194B2C
:403480001B68194A1278D2B213440E4A1278D2B21A70154B1B78DBB20133DAB2124B1A70114B1B78DAB2114B1B78DBB29A421FD2014B10221A7042E0D74900405C96FF1F4C
:4034C0006196FF1FD84900406C96FF1F6096FF1F6896FF1F6296FF1F80E100E0D6490040D94900406496FF1F6A96FF1F6996FF1F2C4B1B78DBB203F00203002B0FD02A4B8D
:403500001B78DBB243F00903DAB2274B1A70274B60221A70264B4FF400421A600FE0254A244B1B78DBB243F01003DBB21370224B00221A7003E0002000F006FC00BFFB7932
:4035400003F02003002B28D0184B1B78DBB203F00803002B01D0012300E00223DAB2124B1B78DBB21343DAB20F4B1A70114A114B1B78DBB223F01003DBB213700B4B102208
:403580001A700AE0094B1B78DBB203F01003DBB2002B02D1054B10221A7000BF0837BD4680BD00BF6896FF1F6296FF1F5C96FF1F80E100E0D6490040D749004080B485B0DE
:4035C00000AF03460A46FB711346BB710223FB73234B1B78DBB2102B3CD1224B1B78DBB203F00803002B33D11F4B4FF400421A60FB795B00FB71BB79002B07D0FB7943F0EE
:403600000103FB71164B49221A7002E0144B45221A70164AFB791370124B01221A7000BF134B1B78DBB203F00103002BF8D0104B1B78DBB203F00A03DBB20A2B05D1084BA4
:4036400010221A700323FB7304E00023FB7301E00123FB73FB7B18461437BD4680BC70475C96FF1FD949004080E100E0D8490040D749004080B483B000AF0223FB71104B87
:403680001B78DBB203F00403002B12D00C4B10221A700C4B04221A700B4B10221A7000BF084B1B78DBB203F02103002BF8D00023FB71FB7918460C37BD4680BC704700BF22
:4036C000D9490040D74900405C96FF1F80B485B000AF0346FB710223FB73184B1B78DBB203F00403002B22D0154AFB791370154B04221A70144B46221A7000BF114B1B7899
:40370000DBB203F00103002BF8D00E4B1B78DBB203F00203002B05D10B4B60221A700023FB7304E0084B60221A700323FB73FB7B18461437BD4680BC704700BFD9490040A0
:40374000D8490040D74900405C96FF1F80B485B000AF0346FB710023FB73164B1B78DBB203F00403002B1FD0134B1B78DBB2492B05D1124B00221A700F4B4A221A7000BFA5
:403780000E4B1B78DBB203F00103002BF8D00C4B1B78FB73FB79002B03D0084B10221A7002E0054B60221A70FB7B18461437BD4680BC7047D94900405C96FF1FD7490040A8
:4037C000D849004080B500AF064B1B78002B04D100F00AF8034B01221A7000F025F800BF80BD00BF3195FF1F80B400AF094B72221A70094B20221A70084B06221A70084B3A
:4038000047221A70074B00221A7000BFBD4680BC704700BF89640040896500402A6500403A6500408B65004080B582B000AF00F03BFB0346FB71114A104B1B78DBB243F0F0
:403840002003DBB213700E4A0D4B1B78DBB243F01003DBB213700B4A0A4B1B78DBB243F01003DBB2137000F055FAFB79184600F01FFB00BF0837BD4680BD00BF996400407A
:40388000996500409B65004080B483B000AF0023FB710C4B1B78BB71BB7903F02003002B09D0094B1B78FB71BB7903F01E03002B01D00023FB71FB7918460C37BD4680BC07
:4038C000704700BF696500404964004080B483B000AF0346FB7100BF074B1B78DBB203F00403002BF8D1054AFB79137000BF0C37BD4680BC704700BF6B6500404B65004070
:4039000080B400AF094A094B1B78DBB243F00203DBB21370064A064B1B78DBB243F00203DBB2137000BFBD4680BC7047A2430040B243004080B582B000AF786000F03CF86B
:40394000786800F009F8072000F018F800F028F800BF0837BD4680BD80B485B000AF7860054B1B68FB60FB6848337A681A6000BF1437BD4680BC704708ED00E080B483B06D
:4039800000AF0346FB71054AFB795B01DBB2137000BF0C37BD4680BC704700BF02E400E080B400AF034B04221A6000BFBD4680BC704700BF00E100E080B400AF034B04229A
:4039C0001A6000BFBD4680BC704700BF80E100E080B582B000AF786000F03CF8786800F009F8072000F018F800F028F800BF0837BD4680BD80B485B000AF7860054B1B687D
:403A0000FB60FB6844337A681A6000BF1437BD4680BC704708ED00E080B483B000AF0346FB71054AFB795B01DBB2137000BF0C37BD4680BC704700BF01E400E080B400AFC7
:403A4000034B02221A6000BFBD4680BC704700BF00E100E080B400AF034B02221A6000BFBD4680BC704700BF80E100E080B582B000AF786000F03CF8786800F009F8072097
:403A800000F018F800F028F800BF0837BD4680BD80B485B000AF7860054B1B68FB60FB6840337A681A6000BF1437BD4680BC704708ED00E080B483B000AF0346FB71054A79
:403AC000FB795B01DBB2137000BF0C37BD4680BC704700BF00E400E080B400AF034B01221A6000BFBD4680BC704700BF00E100E080B400AF034B01221A6000BFBD4680BC9C
:403B0000704700BF80E100E080B500AF224A224B1B78DBB203F00103DBB213701F4A1F4B1B78DBB223F00303DBB213701C4A1C4B1B78DBB223F03003DBB21370184A184BC6
:403B40001B78DBB243F03003DBB21370144A144B1B78DBB223F00F03DBB21370104A104B1B78DBB243F00F03DBB213700D4A0D4B1B78DBB243F00103DBB2137045F6BF5013
:403B800000F058F845F6BF5000F066F8002000F041F800BF80BD00BF004F0040024F00400B4F0040014F004080B400AF0D4A0D4B1B78DBB243F00103DBB213700A4A0A4B3D
:403BC0001B78DBB243F00103DBB21370074A074B1B78DBB243F00103DBB2137000BFBD4680BC7047A3430040B3430040004F004080B500AF064B1B78002B04D1FFF784FF73
:403C0000034B01221A70FFF7CFFF00BF80BD00BF3395FF1F80B483B000AF0346FB71044AFB79137000BF0C37BD4680BC704700BF034F004080B485B000AF0346FB80FB886C
:403C4000FB81044AFB89138000BF1437BD4680BC704700BF044F004080B483B000AF0346FB80044AFB88138000BF0C37BD4680BC704700BF064F004080B582B000AF786099
:403C800000F03CF8786800F009F8072000F018F800F028F800BF0837BD4680BD80B485B000AF7860054B1B68FB60FB684C337A681A6000BF1437BD4680BC704708ED00E069
:403CC00080B483B000AF0346FB71054AFB795B01DBB2137000BF0C37BD4680BC704700BF03E400E080B400AF034B08221A6000BFBD4680BC704700BF00E100E080B400AF5F
:403D0000034B08221A6000BFBD4680BC704700BF80E100E080B400AF094A094B1B78DBB243F00103DBB21370064A064B1B78DBB243F00103DBB2137000BFBD4680BC70472E
:403D4000A2430040B243004080B483B000AF0346FB7101BE00BF0C37BD4680BC704700BF80B584B000AF03463960FB710F4B1B68FB60FB791F2B02D90020FFF7E5FFFB7903
:403D800003F01F0310339B00FA6813441B68BB60FB7903F01F0310339B00FA6813443A681A60BB6818461037BD4680BD08ED00E080B582B000AF03460A46FB711346BB7100
:403DC000BB79072B02D90020FFF7BEFFFB791F2B02D90020FFF7B8FFFB7903F01F0303F1604303F56443BA795201D2B21A7000BF0837BD4680BD00BF80B582B000AF78600B
:403E000000F03CF8786800F009F8072000F018F800F028F800BF0837BD4680BD80B485B000AF7860054B1B68FB60FB6850337A681A6000BF1437BD4680BC704708ED00E0E3
:403E400080B483B000AF0346FB71054AFB795B01DBB2137000BF0C37BD4680BC704700BF04E400E080B400AF034B10221A6000BFBD4680BC704700BF00E100E080B400AFD4
:403E8000034B10221A6000BFBD4680BC704700BF80E100E0000000000230800803D000BF01380046FCD17047EFF3108072B6704780F31088704700BF81F0004102E000BFDF
:403EC00083F0004330B54FEA41044FEA430594EA050F08BF90EA020F1FBF54EA000C55EA020C7FEA645C7FEA655C00F0E2804FEA5454D4EB5555B8BF6D420CDD2C4480EAF7
:403F0000020281EA030382EA000083EA010180EA020281EA0303362D88BF30BD11F0004F4FEA01314FF4801C4CEA113102D0404261EB410113F0004F4FEA03334CEA13338A
:403F400002D0524263EB430394EA050F00F0A780A4F10104D5F1200E0DDB02FA0EFC22FA05F2801841F1000103FA0EF2801843FA05F359410EE0A5F120050EF1200E012ADF
:403F800003FA0EFC28BF4CF0020C43FA05F3C01851EBE37101F0004507D54FF0000EDCF1000C7EEB00006EEB0101B1F5801F1BD3B1F5001F0CD349085FEA30004FEA3C0C0E
:403FC00004F101044FEA445212F5800F80F09A80BCF1004F08BF5FEA500C50F1000041EB045141EA050130BD5FEA4C0C404141EB010111F4801FA4F10104E9D191F0000FB8
:4040000004BF01460020B1FA81F308BF2033A3F10B03B3F120020CDA0C3208DD02F1140CC2F10C0201FA0CF021FA02F10CE002F11402D8BFC2F1200C01FA02F120FA0CFC58
:40404000DCBF41EA0C019040E41AA2BF01EB0451294330BD6FEA04041F3C1CDA0C340EDC04F11404C4F1200220FA04F001FA02F340EA030021FA04F345EA030130BDC4F1D2
:404080000C04C4F1200220FA02F001FA04F340EA0300294630BD21FA04F0294630BD94F0000F83F4801306BF81F480110134013D4EE77FEA645C18BF7FEA655C29D094EA76
:4040C000050F08BF90EA020F05D054EA000C04BF1946104630BD91EA030F1EBF0021002030BD5FEA545C05D14000494128BF41F0004130BD14F580043CBF01F5801130BD63
:4041000001F0004545F0FE4141F470014FF0000030BD7FEA645C1ABF194610467FEA655C1CBF0B46024650EA013406BF52EA033591EA030F41F4002130BD00BF90F0000FE8
:4041400004BF0021704730B54FF4806404F132044FF000054FF0000150E700BF90F0000F04BF0021704730B54FF4806404F1320410F0004548BF40424FF000013EE700BFA0
:4041800042004FEAE2014FEA31014FEA02701FBF12F07F4393F07F4F81F06051704792F0000F14BF93F07F4F704730B54FF4607401F0004521F0004120E700BF50EA0102CC
:4041C00008BF704730B54FF000050AE050EA010208BF704730B511F0004502D5404261EB41014FF4806404F132045FEA915C3FF4DCAE4FF003025FEADC0C18BF03325FEA52
:40420000DC0C18BF033202EBDC02C2F1200300FA03FC20FA02F001FA03FE40EA0E0021FA02F11444C1E600BF70B54FF0FF0C4CF4E06C1CEA11541DBF1CEA135594EA0C0F9B
:4042400095EA0C0F00F0DEF82C4481EA030621EA4C5123EA4C5350EA013518BF52EA033541F4801143F4801338D0A0FB02CE4FF00005E1FB02E506F00042E0FB03E54FF0A7
:404280000006E1FB03569CF0000F18BF4EF0010EA4F1FF04B6F5007F64F5407404D25FEA4E0E6D4146EB060642EAC62141EA55514FEAC52040EA5E504FEACE2EB4F1FD0C12
:4042C00088BFBCF5E06F1ED8BEF1004F08BF5FEA500E50F1000041EB045170BD06F0004646EA010140EA020081EA0301B4EB5C04C2BFD4EB0C0541EA045170BD41F480115A
:404300004FF0000E013C00F3AB8014F1360FDEBF002001F0004170BDC4F10004203C35DA0C341BDC04F11404C4F1200500FA05F320FA04F001FA05F240EA020001F00042DC
:4043400021F0004110EBD37021FA04F642EB06015EEA430E08BF20EAD37070BDC4F10C04C4F1200500FA04F320FA05F001FA04F240EA020001F0004110EBD37041F100012B
:404380005EEA430E08BF20EAD37070BDC4F1200500FA05F24EEA020E20FA04F301FA05F243EA020321FA04F001F0004121FA04F220EA020000EBD3705EEA430E08BF20EAE5
:4043C000D37070BD94F0000F0FD101F00046400041EB010111F4801F08BF013CF7D041EA060195F0000F18BF704703F00046520043EB030313F4801F08BF013DF7D043EA14
:404400000603704794EA0C0F0CEA135518BF95EA0C0F0CD050EA410618BF52EA4306D1D181EA030101F000414FF0000070BD50EA410606BF1046194652EA430619D094EA05
:404440000C0F02D150EA013613D195EA0C0F05D152EA03361CBF104619460AD181EA030101F0004141F0FE4141F470014FF0000070BD41F0FE4141F4780170BD70B54FF0D7
:40448000FF0C4CF4E06C1CEA11541DBF1CEA135594EA0C0F95EA0C0F00F0A7F8A4EB050481EA030E52EA03354FEA013100F088804FEA03334FF0805545EA131343EA126389
:4044C0004FEA022245EA111545EA10654FEA00260EF000419D4208BF964244F1FD0404F5407402D25B084FEA3202B61A65EB03055B084FEA32024FF480104FF4002CB6EBE8
:40450000020E75EB030E22BFB61A754640EA0C005B084FEA3202B6EB020E75EB030E22BFB61A754640EA5C005B084FEA3202B6EB020E75EB030E22BFB61A754640EA9C0050
:404540005B084FEA3202B6EB020E75EB030E22BFB61A754640EADC0055EA060E18D04FEA051545EA16754FEA06164FEAC30343EA52734FEAC2025FEA1C1CC0D111F4801F96
:404580000BD141EA00014FF000004FF0004CB6E711F4801F04BF01430020B4F1FD0C88BFBCF5E06F3FF6AFAEB5EB030C04BFB6EB020C5FEA500C50F1000041EB045170BD85
:4045C0000EF0004E4EEA113114EB5C04C2BFD4EB0C0541EA045170BD41F480114FF0000E013C90E645EA060E8DE60CEA135594EA0C0F08BF95EA0C0F3FF43BAF94EA0C0F0E
:404600000AD150EA01347FF434AF95EA0C0F7FF425AF104619462CE795EA0C0F06D152EA03353FF4FDAE1046194622E750EA410618BF52EA43067FF4C5AE50EA41047FF4FB
:404640000DAF52EA43057FF4EBAE12E74FF0FF3C06E000BF4FF0010C02E000BF4FF0010C4DF804CD4FEA410C7FEA6C5C4FEA430C18BF7FEA6C5C1BD001B050EA410C0CBF52
:4046800052EA430C91EA030F02BF90EA020F0020704710F1000F91EA030F58BF994208BF90422CBFD8176FEAE37040F0010070474FEA410C7FEA6C5C02D150EA013C07D150
:4046C0004FEA430C7FEA6C5CD6D152EA033CD3D05DF8040B704700BF8446104662468C461946634600E000BF01B5FFF7B7FF002848BF10F1000F01BD4DF808EDFFF7F4FF9F
:404700000CBF012000205DF808FB00BF4DF808EDFFF7EAFF34BF012000205DF808FB00BF4DF808EDFFF7E0FF94BF012000205DF808FB00BF4DF808EDFFF7CEFF94BF0120C7
:4047400000205DF808FB00BF4DF808EDFFF7C4FF34BF012000205DF808FB00BF4FEA410C7FEA6C5C02D150EA013C0AD14FEA430C7FEA6C5C02D152EA033C02D14FF00000CF
:4047800070474FF0010070474FEA410212F5001215D211D56FF47873B3EB625212D94FEAC12343F0004343EA505311F0004F23FA02F018BF404270474FF00000704750EA5C
:4047C000013005D111F0004008BF6FF0004070474FF00000704700BF4A0011D212F5001211D20DD56FF47873B3EB62520ED44FEAC12343F0004343EA505323FA02F07047E9
:404800004FF00000704750EA013002D14FF0FF3070474FF000007047014B1868704700BF7887FF1F30B54A10002300EB81019342A1F1040107DA50F823400D6840F82350E3
:404840000C600133F3E730BD40B100782D2805D031B1A0F12B035842584170470120704708467047074B1B680360074B1B684360064B1B688360064B1B68C360054B1B68A5
:40488000036170473C95FF1F3895FF1F1487FF1F1087FF1F3495FF1F0268074B1A604268064B1A608268064B1A60C268054B1A600269054B1A6070473C95FF1F3895FF1F94
:4048C0001487FF1F1087FF1F3495FF1F2DE9F04F87B00D4691469B46119F129C059090B189B112B9BBF1000F0DD06368059A9A4209DD55F8230030B1AD4900F0AEFF636820
:4049000020B9013363604FF0FF3227E213B9012323616360B9F1000F0DD099F800302D2B04D02B2B07D14FF0020A01E04FF0010A09F1010908E09F4801F050FF002814BFC2
:404940004FF0020A4FF0000AB9F1000F07D099F800303A2B06D109F10109012303E0CDF80C9001E0002303932269012A43D1BAF1010F66682CD0BAF1020F35D000964FF02B
:4049800000086268394655F8223018460193FFF75BFF019B20B90132626008F10108F0E7A3B18349184600F058FF40BB05EB860541462846FFF736FF08F101012846FFF7C8
:4049C00031FF01212846FFF72DFF013666609AE755F8268039464046FFF736FF58B901366660C4F80080A3E0394655F82600FFF72BFF002887D04FF00008CDF8008063687F
:404A000055F8230000283FF47EAFBBF1000F00F09D800222664900F0EBF9636840B1002F00F0948055F8232012782B2A40F08E802269012A40F08A8002225D4955F8230049
:404A400000F0D6F908B90223236163683D2155F823002369184400F0F2FE6368064650B955F8230000F003FF636855F8236023690644C31A04E055F82330C31A20691B1ABD
:404A800004934FF0FF33CDF808B00193002704E00197029B013710330293029B1968002948D06268206955F82230049A184400F09FF90028EDD1029B186800F0D8FE049B52
:404AC00083423BD0019B0133E2D0A268002A2ED0394E28683268D16801F078FE32683748D16801F073FE6268316855F82200C96801F06CFE32683248D16801F067FE019B90
:404B000031681A01C9685BF8020001F05FFE32682C48D16801F05AFE029B32681868D16801F054FE33682848D96801F04FFE3F22E26013E1019B591C08D01F460BEB0713AB
:404B40005B68012B42D0022B28D091E0B9F1000F00F091806368484655F823202369D15C00F06DFE8146002800F0C88043783A2B40F0EE8083783A2B0CBF022201226368C5
:404B8000266955F8233001361E4499F80030012AE3601ED0022A6ED14FF0FF3733783D2B08BF01363378002B08BF002619E000BFE98F0000B48F00007887FF1FC48F000079
:404BC000CF8F0000EC8F0000F58F00004FF0000901E04FF0FF3733783D2B08BF0136337823B10123266023610026B3E06368059A01339A4236DCA3685BB35A4E28683368CB
:404C00003546D96801F0E2FD33685748D96801F0DDFD33687A1CD9680FD02D2001F088FD33683F01D9685BF8070001F0CFFD039B002B14BF3A233F2305E099F8000001F099
:404C400077FD99F80030E3602B684848D96801F0BDFD636801336360039B002B14BF3A223F227BE055F8233001262360266171E0012323610BE023696268013355F8222069
:404C80002361D35C0BB9012323614FF0FF3700262660BAF1000F1AD123695646012B16D1B8F1000F13D0009B06F1010905EB830541462846FFF7B6FD08EB09012846FFF726
:404CC000B1FD49462846FFF7ADFD009B03E02369012B03D1636801331E4466607B1C0BD0109B03B11F600BEB0717BB68FA68002B34D01A60002231E0E2682FE0A368C3B19B
:404D0000184E28683368D96801F060FD33681848D96801F05BFD6368316855F823202369C968D05C01F004FD33681048D96801F04DFD22696368013255F8231022618A5C1E
:404D4000002A7FF4F4AE0133636001232361EEE6002214E7BAF1000FA2D0BBE7104607B0BDE8F08F7887FF1F1390000010900000F98F000070B51E4605468AB005AC204658
:404D8000FFF770FD002301930E9B0294009328463346FFF79BFD01462046FFF77DFD08460AB070BD0E4B70B51E460E4C0025E41AA410A54204D056F8253098470135F8E7DB
:404DC00004F0B0FA084B094C1E46E41AA4100025A54204D056F8253098470135F8E770BD3093000030930000309300003893000010B501390244904207D010F8013B11F864
:404E0000014FA342F7D0181B10BD002010BD10B5431E0A44914204D011F8014B03F8014FF8E710BD03460244934202D003F8011BFAE770472DE9F04788B0149F002B1E4676
:404E40001299B8BF03F1004327F02007B6BF1E4600232D23462F1446109DDDF84CA00B7003D0452F03D1013501E0032300E0022307AA049206AA03928DE82804224633462C
:404E800000F09AFE472F804602D1119BDB0728D5462F08EB050911D198F80030302B0AD10022002320463146FFF726FC18B9C5F10105CAF80050DAF8003099440022002385
:404EC00020463146FFF718FC08B9302202E0CDF81C9006E0079B994503D9591C07911A70F8E74046079B159AC8EB0303136008B0BDE8F087034673B50029B8BF494203F83F
:404F0000022BB4BF2D222B22092942701ADD0DF1070216460A2591FBF5F405FB1411092C01F1300102F8011D2146F4DC3031541E02F8011CB4421A460AD214F8012B03F838
:404F4000012BF7E71A463024214402F8024B5970101A02B070BD00002DE9F04F91B00C46DDF8688016461F46054601F07FFC03681846099300F07BFC00230E93D8F8003048
:404F80000A90073323F0070303F1080294F81890D4F800B0C8F80020D3E90023C4E91223D4F84CA0D4F848802AF000430B934FF0FF32A74B40460B99FFF7D0FBA0B94FF085
:404FC000FF32A34B40460B99FFF7AAFB60B90022002340465146FFF799FB10B12D2384F843309C4B9C4A0AE04246534640465146FFF7B4FB002800F09281984B984AB9F194
:40500000470F8CBF90469846032323612BF0040323604FF0000A3DE0B9F1670F00F08A81B9F1470F00F0868123600193636800210DF13302059002920093424653460691AA
:40504000CDF81090CDF80CE02846FFF7F3FE09F0DF03472B804600F08481B9F1650F0D9900F28D8101394A4604F150000D91FFF741FF0E9A82468318012A236100F37C816C
:405080002268D10700F178819DF8333013B12D2384F84330009733460FAA2146284600F09FF9013002D14FF0FF3096E123685A0501D4236965E0B9F1650F40F2D580D4E9A8
:4050C000120100220023FFF717FB78B30123654A31462846B8470130E5D00E9B0D9A9A420BDB2368D80708D423689B0740F111814FF0000804F1190906E10A9B099A31463C
:405100002846B8470130CED04FF0000804F11A090E9B013B9845E7DA01234A4631462846B8470130BFD008F10108F1E70D9B002B29DC01234B4A31462846B8470130B2D0F7
:405140000D9B23B90E9B13B92368D907CCD50A9B099A31462846B8470130A4D04FF0000904F11A0A0D9B5B42994509DA0123524631462846B847013095D009F10109F1E7E0
:405180000E9B4246A7E00E9AA36D9A42A8BF1A46002A914606DC4FF0000A29EAE97904F11A0B11E01346314642462846B8470130F1D178E701235A4631462846B847013040
:4051C0003FF471AF0AF1010AA36DC9EB03029245F0DB08EB03090D9A0E9B9A420FDB2368DA070CD40E9B0D9A9844C9EB08089B1A9845A8BF9846B8F1000F08DC0FE00A9B93
:40520000099A31462846B8470130EBD14BE743464A4631462846B84701303FF444AF4FF0000928EAE87804F11A0A09E00123524631462846B84701303FF435AF09F10109CC
:405240000D9A0E9B9B1AC8EB03039945EEDB4BE7FFFFEF7F3C900000409000004490000048900000BE9200000E9A012A01DCDB0738D50123424631462846B84701303FF400
:4052800012AF0A9B099A31462846B84701303FF40AAFD4E9120100220023FFF72DFA20B14FF0000804F11A090EE00E9B08F10102013B19E001234A4631462846B8470130F1
:4052C0003FF4F1AE08F101080E9B013B9845F1DB534604F1500231462846B84701307FF403AFE0E64246012331462846B8470130EED1D8E601234A4631462846B847013065
:405300003FF4D1AE08F10108E3680F9A9B1A9845F0DBE0680F9B9842B8BF18465DE062680EA8531C0DF1340E4BF480637FF474AE062201E012B90122626075E600210691D8
:405340000DF133018DE80C00236005904246CDF81090CDF80CE0029153462846FFF76AFD80460D9BD81C02DB626893421DDDA9F102095FFA89F970E60133236184E6B9F153
:40538000660F14D10029636807DD216113B92268D2071DD501330B4419E013B92268D00701D5023313E0012311E04FF067090D9B0E9A934205DB22682361D10708D50133B1
:4053C00005E0002BD4BFC3F102030123134423610D9B4FF0000AA36556E611B0BDE8F08F2DE9F04791461F460A698B6806469342B8BF1346C9F8003091F843200C46DDF854
:40540000208012B10133C9F800302368990642BFD9F800300233C9F80030256815F0060510D104F1190A07E00123524639463046C04701301AD00135E368D9F800209B1A1B
:405440009D42F1DB94F843302268003318BF012392060FD5E118302081F843005A1C94F845102244023382F8431003E04FF0FF30BDE8F08704F1430239463046C0470130B6
:40548000F4D02268D9F80050E36802F00602042A08BF5D1B2269A3680CBF25EAE57500259342C4BF9B1AED184FF000091A344D4509D00123224639463046C0470130D5D06B
:4054C00009F10109F3E70020BDE8F0872DE9F04317460A7E85B06E2A984606460C460C9B01F1430E00F0AE8011D8632A22D009D8002A00F0BB80582A40F0CA8081F845209B
:40550000834955E0642A1ED0692A1CD0C0E0732A00F0B08009D86F2A2ED0702A40F0B8800A6842F020020A603EE0752A24D0782A3AD0ADE01A6801F14205111D19601368A1
:4055400084F84230A8E021681A6811F0800F02D0111D196008E011F0400F02F10401196002D0B2F9003000E01368002B3CDA2D225B4284F8432037E021681A6811F0800F32
:4055800002D0111D196007E011F0400F02F10401196001D0138800E01368227E5C496F2A14BF0A2208221BE078225A4984F845202268186812F0800F00F104051D6003D1FD
:4055C000550601D5038800E00368D00744BF42F0200222601BB9226822F0200222601022002084F8430001E049490A226568002DA56008DB206820F0040020602BB9002D21
:405600007DD175460CE0002B79D07546B3FBF2F002FB1033CB5C05F8013D03460028F5D1082A0BD12368DA0708D5236962689A42DEBF302305F8013C05F1FF35C5EB0E033F
:4056400023612EE008681A6810F0800F496903D0101D1860136808E010F0400F02F104001860136801D0198000E0196000232361754616E01A68111D1960156800216268A5
:40568000284601F011F908B1401B6060636804E004F1420584F8422001232361002384F84330CDF800803B4603AA21463046FFF797FE013002D14FF0FF3026E023692A46DB
:4056C00039463046C0470130F5D023689B0710D5002504F1190907E001234A4639463046C0470130E7D00135E368039A9B1A9D42F2DBE068039B9842B8BF184605E00B786F
:4057000004F1420584F842308AE705B0BDE8F0834C9000005D9000000EB400B54FF402719CB0ADF814106FF00041049107914FF6FF711DAB02900690084853F8042BADF815
:405740001610006802A9019301F0A4FC029B00221A701CB05DF804EB03B070477887FF1F0EB430B59CB01FAC4FF4017254F8045BADF814200290069000F079F80B4B039081
:405780000B9300230F9314934FF6FF7307900848ADF816302A46234602A90068019401F0C9FD1CB0BDE8304003B07047D75700007887FF1F10B50C46B1F90E1002F09CF823
:4057C0000028ABBF636DA3891B1823F48053ACBF6365A38110BD002070472DE9F0411F468B890546DB050C46164605D502230022B1F90E1001F03EF8A389324623F48053CC
:40580000A381B4F90E103B462846BDE8F04100F025B910B50C46B1F90E1001F02BF8431CA38915BF606523F4805343F48053A38118BFA38110BDB1F90E1000F021B9C9B2E2
:40584000034610F8012B1AB19142F9D11846704700290CBF18460020704710F8012B11F8013B012A28BF9A42F7D0D01A7047034613F8012B002AFBD1181A0138704700009E
:40588000174B2DE9F0411D680646AC6D0F46FCB9502001F001F8A8658460AB6D046044601C61DC60AB6D9C615C61AB6DDC629C62AB6D5C631C63AB6DDC639C63AB6D5C647D
:4058C0001C64AB6DDC649C64AB6D1C77AB6D5C62AA6D39463046BDE8F041012300F002B87887FF1FF0B548B9106838B9F0BD17F8016B5EB1B542FAD12BB1204604460F4699
:4059000014F8015BF3E714600370F0BD4DB915602846F0BD17F8016BB54207D0002EF9D11C4623460F4613F8015BF3E715B10021217000E02B461360F0BD00002DE9F04723
:405940000F4680463F48D0F800903D4615F8014B09EB0400407800F0080000F0FF0608B12F46F2E72D2C03D1BD1C7C78012603E02B2C04BF7C78BD1C13B1102B0AD15BE0AD
:40598000302C57D1287800F0DF0058284DD16C7810230235002E14BF4FF0004C6FF0004CBCFBF3FA0027384603FB1ACC09EB040E9EF801E01EF0040F01D0303C0BE01EF0D0
:4059C000030E1BD0BEF1010F0CBF4FF0370E4FF0570ECEEB0404A34210DDB7F1FF3F0AD0504506D801D1644503DC03FB0040012701E04FF0FF3715F8014BD7E77B1C0CD192
:405A0000002E4FF0220314BF4FF000406FF00040C8F800302AB9BDE8F08706B1404272B107B1691E1160BDE8F0873024002BB1D10823AFE70A23ADE7302CA3D0AAE7BDE844
:405A4000F08700BF7C87FF1F13460A46014602480068FFF773BF00BF7887FF1F38B5074C054608461146002222601A4602F09AFB431C02D1236803B12B6038BD7096FF1F59
:405A800038B5064C002305460846236002F062FB431C02D1236803B12B6038BD7096FF1F2DE9F74F03690C6980469C427FDC013C01F114074FEA840E00F1140606EB0E03A6
:405AC00057F82450019356F824300135B3FBF5F507EB0E09C5B34FF0000A3846B446D34650F8043B9AB205FB02A21B0C4FEA124A05FB03A392B2C2EB0B0BBCF800204FEA97
:405B0000134A5A441FFA83FBDCF800308145CBEB134303EB224392B242EA03424FEA234B4CF8042BDCD256F80E306BB9019B043B9E421A4602D3C8F8104005E01268043BDF
:405B4000002AF8D1013CF3E7404601F0C8F800282BDB304601354FF0000E57F8042B036891B2C1EB0E0E120C99B27144C2EB134303EB214389B24FEA234EB94541EA034302
:405B800040F8043BE9D256F8242006EB840362B9043B9E421A4602D3C8F8104005E01268043B002AF8D1013CF3E7284600E0002003B0BDE8F08F00002DE9F04F456A95B0F4
:405BC0008246219CCDE9022345B9102000F064FECAF82400456085600560C560DAF82430196859B15A68012393404A608B60504600F09DFEDAF8243000221A60039BA04A61
:405C0000002BBDBF01232360039B0023BCBF23F000430393DDF80C80A8BF236028F000431B0D1B0593421DD142F20F73209A1360029B43B9934A944BC8F31300002814BF3C
:405C40001846104600E09048229B002B00F04685C37813B100F1080300E0C31C229A136000F03CBDDDE902450022002320462946FEF742FD074658B1209A01231360229B84
:405C8000002B00F01E8581481860013800F026BD12AB019313AB009322462B46504601F099F8C8F30A56049056B1C5F3130343F07F51204641F44011A6F2FF3611971DE061
:405CC000139B129E1E4406F23243202B0ADD029A06F21240C3F1400322FA00F008FA03F3184304E0C3F12000029B03FA00F0FEF725FA0123A1F1F871013E11930022644BE0
:405D0000FEF7DEF858A3D3E90023FEF78DFA58A3D3E90023FEF7D6F8044630460D46FEF71DFA55A3D3E90023FEF77EFA02460B4620462946FEF7C6F804460D46FEF724FD6E
:405D400000228346002320462946FEF7DFFC58B15846FEF703FA02460B4620462946FEF7CBFC08B90BF1FF3BBBF1160F0DD8DDE90223484901EBCB01D1E90001FEF7E4FC3C
:405D800030B10BF1FF3B002300E00123109300E01090129B9E1B731E079343BFC3F10008002307934FF00008BBF1000F06DB079BCDF82CB05B440793002705E00023CBEB32
:405DC0000808CBF100070B931E9B092B28D8052BC4BF043B1E931E9BC8BF0025A3F10203D8BF0125032B20D8DFE803F0060E0204012302E0012308E000230A931F9B002B36
:405E00001DDD9946059321E000230A931F9B0BEB030909F10103012B0593B8BF012315E0012500231E930A9501E001230A934FF0FF390022CDF8149012231F9206E04FF0DA
:405E400001094B46CDF81490CDF87C90DAF8244000226260042101F114029A421CD86268490001326260F6E761436F63A787D23FB3C8608B288AC63FFB799F501344D33FB3
:405E80000000F07F6F91000078910000BF9200000000F83F889100006168504600F012FDDAF8243020601B680693059B0E2B00F25B81002D00F05881DDE90234BBF1000F55
:405EC000CDE90E3430DD9F4A0BF00F034FEA2B1502EBC303E80618CBCDE908340CD5DDE90E01994B05F00F05D3E90823FEF7C6FA0324CDE9020100E00224934E6DB1E907A4
:405F000008D5DDE90801D6E90023FEF78DF9CDE9080101346D100836F0E7DDE90823DDE90201FEF7ABFA20E0CBF1000505B3DDE90E01844B05F00F0203EBC203D3E90023C9
:405F4000FEF772F9CDE902017F4E2D110023022455B1EA0705D5D6E90023FEF765F9013401236D100836F3E71BB1CDE9020100E00224109BE3B1DDE902560022734B28468A
:405F80003146FEF7C3FB98B1059B8BB1B9F1000F40F3E6800BF1FF330893314600226C4B2846FEF741F90134CDE902014E4602E0059ECDF820B02046FEF7D0F8DDE90223E0
:405FC000FEF732F9634B0022FDF77CFFA1F1507304460C931D46D6B9DDE9020100225E4BFDF76EFF22460C9BCDE90201FEF7ACFB002840F03F820C99224601F10043DDE998
:406000000201FEF783FB002840F02B82A8E00A9A4C4B711E002A49D003EBC103D3E9002300204E49FEF72AFA22462B46FDF748FFCDE90C01069CDDE90201FEF7A5FB0546CD
:40604000FEF78CF802460B46DDE90201FDF738FFDDE90C23303504F8015BCDE90201FEF755FB002840F01D83DDE9022300203749FDF726FFDDE90C23FEF748FB002840F049
:40608000D180069BE31AB3426ADADDE90C0100222F4BFEF7C9F80022CDE90C01DDE902012B4BFEF7C1F8CDE90201C4E703EBC1012246D1E900012B46FEF7B6F8069BCDE91F
:4060C0000C011D469C19DDE90201FEF75DFB0646FEF744F802460B46DDE90201FDF7F0FE303605F8016BAC42CDE902014FF0000222D11A4BDDE90C01FDF7E4FE02460B4653
:40610000DDE90201FEF720FB002840F08B80DDE90C2300201149FDF7D3FE02460B46DDE90201FEF7F3FAD8B114F8013C621E302B40F0B7821446F7E7054BFEF775F8CDE9F5
:406140000201C0E788910000609200000000F03F0000244000001C40000014400000E03FDDE90E34CDE90234139B002B7CDBBBF10E0F79DCAB4B03EBCB03D3E900671F9B37
:40618000002B14DA059B002B11DC40F06C810022A54B30463946FEF747F8DDE90223FEF7C9FA059D2E46002840F05F8165E1069CDDE9028932463B4640464946FEF75EF932
:4061C000FEF7E2FA0546FDF7C9FF32463B46FEF72BF80B46024649464046FDF771FE05F1300E069B04F801EBC3EB040E059B73452DD102460B46FDF765FE80468946024605
:406200000B4630463946FEF781FA78B942464B4630463946FEF770FA002800F04482EB0704D440E2DDF820B000E01C4614F8012C631E392A07D1069A9A42F6D10699302230
:406240000BF1010B0A701A7801321A702BE20022764BFDF7E9FF0022002380468946FEF74BFA0028A6D01EE20A9A002A2BD01E9A012A0ADC119A12B103F2334302E0129BD5
:40628000C3F136033D46444613E0059B5D1EAF42BFBF0B9BEA1B9B180B93059BB6BF2F467D1B0025002BA7BF4446059BC3EB08040023079A01211A4450469844079200F070
:4062C000D5FB064602E03D4644460A9E5CB1079B002B08DDA342A8BF2346079AC3EB0808E41AD31A0793002F1DDD0A9BABB18DB131462A46504600F053FC049A014606463E
:40630000504600F0BCFB04990890504600F00FFB089B04937A1B06D000E03A460499504600F03EFC04900121504600F09FFB0B9B05465BB31A460146504600F031FC1E9B11
:406340000546012B18DC029B83B9039BC3F3130373B9039B23F000473F0D3F054FB1079B08F1010801330793012702E0002700E0029F0B9B73B100E000272B6905EB8303BC
:40638000186900F026FBC0F1200004E01E9B012BD9DD0B9F0120079B184410F01F0008D0C0F12003042B02DDC0F11C0002E006D018461C30079B8044034404440793B8F1F2
:4063C000000F05DD42460499504600F037FC0490079B002B05DD29461A46504600F02EFC0546109B23B32946049800F078FC00281EDA00230A220499504600F0AFFA0A9BF1
:406400000BF1FF3B0490002B00F05F81314600230A22504600F0A2FAB9F1000F06463FDC3BE000BF889100000000144000002440059B002B2BDC1E9B022B28DDDDF81490AE
:40644000B9F1000F11D129464B460522504600F085FA01460546049800F041FC00280CDC03E0354600E000252E461F9B069C6FEA030B09E03546DDF820B0069B069A5C1C8E
:40648000312313700BF1010B05960026F7E00A9BDDF8149023B9069CB2E01E9B022BCFDC002C05DD31462246504600F0C7FB06469FB17168504600F005FA0446326906F19B
:4064C0000C01023292000C30FEF7A1FC01222146504600F0B3FB059000E00596029B069F03F00103079329460498FFF7D9FA3146044600F13008049800F0F1FB059A0290F3
:406500002946504600F007FCC36802463BB901460A90049800F0E3FB0A9A034600E00123114650460A9300F002FA0A9B53B91E9A42B9079A32B9B8F1390F2AD0029B002BA7
:406540001CDC1DE0029A002A04DB1BD11E9ACAB9079ABAB9002B13DD01220499504600F06DFB2946049000F0BAFB002803DC07D118F0010F04D0B8F1390F0AD004F1310811
:406580007C1C0CE0002B07F101040BDDB8F1390F03D139233B70013756E008F1010887F800806CE0069B2746E31A4B4504F8018C3BD000230A220499504600F0CFF9059BB7
:4065C00004909E424FF00A024FF000033146504604D100F0C3F90646059084E700F0BEF9002306460A220599504600F0B7F9059079E700230A220499504600F0AFF9049007
:4066000029460498FFF74CFA069B00F1300804F8018BE31A4B45ECDB069B0596B9F1010FACBF4B4401331F46002601220499504600F004FB2946049000F051FB002803DC33
:4066400015D118F0010F12D03C4614F8013C621E392B09D1069B934204D10BF1010B3123069A02E01446F0E70133137007E03C4614F8013C621E302B01D11446F8E7294699
:40668000504600F054F9059B6BB12EB19E4203D03146504600F04BF90599504600F047F901E0DDF820B00499504600F040F90023209A23700BF101031360229B1BB11C604A
:4066C00001E008480AE0069808E0B9F1000F3FF7E2AE1E9B022B7FF7DEAEB1E615B0BDE8F08F00BFBE92000070B50E461446054618B183690BB901F0D3FB0A4B9C4201D1A8
:406700006C6808E0084B9C4201D1AC6803E0074B9C4208BFEC68224631462846BDE8704001F0B4B8C4920000E492000004930000024B0A4601461868FFF7D6BF7887FF1FEA
:4067400070B50E461446054618B183690BB901F0A7FB1B4B9C4201D16C6808E0194B9C4201D1AC6803E0184B9C4208BFEC68A3891B0701D523693BB92146284601F030FA22
:4067800010B14FF0FF3070BD013E16F8011FA9B1A368013B002BA36004DAA269934206DB0A2904D023685A1C22601970EDE72246284601F0C1F90130E7D1E2E7084670BD0D
:4067C000C4920000E492000004930000024B0A4601461868FFF7B4BF7887FF1F07B5044B014601AA186800F005F803B05DF804FB7887FF1F2DE9F84F07468B46904601F07C
:406800005DFA194B1D689A463DB15C46234613F8012B42B13D2A1C46F8D1384601F04FFA0020BDE8F88FCBEB0404A94659F8040B0028F2D02246594601F0B0F888B959F856
:40684000043C1E191B5D3D2B0BD1DAF800303846ED1AAD10C8F8005001F031FA701CBDE8F88F4D46E1E700BFB887FF1F004870478087FF1F38B5074C0546084611460022D0
:4068800022601A4601F07EFC431C02D1236803B12B6038BD7096FF1F024B0146186800F041BB00BF7887FF1F10B5C9B202449042034605D01C7801308C42F8D1184610BD9D
:4068C000002010BD70B5456A04460E463DB91020FFF7E2FF6062456085600560C560656AEB6843B1636ADB6853F8260078B1026843F8262017E021220421204600F0B8FA54
:40690000636AE860DB68002BECD1002070BD012101FA06F56A1D9200204600F0A9FA0028F3D04660856000230361C36070BD70B5446A06460D463CB91020FFF7ADFF706248
:40694000446084600460C4603DB1736A6A68DB6853F82210296043F8225070BD2DE9F04106460C460D691F4601F1140E0023DEF80000013381B202FB0171000C0F0C02FB80
:40698000007089B201EB00419D424FEA10474EF8041BECDCD7B1A3689D4212DB616830460131FFF78FFF8046226904F10C01023292000C30FEF72BFA21463046FFF7B7FF17
:4069C000444604EB850301355F6125612046BDE8F081030C1B0413B90004102300E0002310F07F4F04BF0002083310F0704F04BF0001043310F0404F04BF800002330028B3
:406A000003DB420003D5581C70471846704720207047036813F007020BD0D90722D49A074BBF5B089B08036003604CBF01200220704799B209B91B0C102213F0FF0F04BF49
:406A40001B0A0832190704BF1B090432990704BF9B080232D90702D45B0805D00132036010467047002070472020704710B50C460121FFF727FF01224461026110BD2DE97E
:406A8000F74F14460A69236988469A42BEBF0B46A0461C46D8F81070D4F81090D8F80830D8F8041007EB09069E42C8BF0131FFF709FF00F114052B4605EB860C0022634570
:406AC00002D243F8042BFAE704F1140208F1140102EB890301EB87070093009B0192934257D9B2F800B0BBF1000F23D08946AE464FF0000859F8044BBEF800A0A3B20BFB42
:406B000003A34FEA144ADEF8004043444FEA14480BFB0A84F24604EB13449BB243EA04434F454FEA14484AF8043B01D9D646E1E7CEF80480019B0432B3F802A0BAF1000F88
:406B400021D02C4689462B684FF00008B9F800E0B4F802B09BB20AFB0EBEA346F04443EA08434BF8043B59F8043BB4F804E01B0C0AFB03E34F4503EB18434FEA134801D968
:406B80005C46E3E763600435A7E75CF8043D13B9013E002EF9DC066103B0BDE8F08F00002DE9F843154612F0030206460F4607D0214C013A002354F82220FFF7CFFE07466A
:406BC000AD1036D0746A3CB91020FFF765FE7062446084600460C460D6F82480D8F808404CB940F271213046FFF740FF04460023C8F8080003604FF00008EB070AD5394667
:406C000022463046FFF73BFF814639463046FFF78EFE4F466D100CD0206808B10446ECE7224621463046FFF72AFF2060C0F80080F4E73846BDE8F883509200002DE9F047F8
:406C40000C460746914626694FEA621A56444968A368751CAB4202DA01315B00FAE73846FFF730FE002380461A4600F11401534503DA41F823200133F9E72AEAEA7320694C
:406C800001EB830319F01F0904F1140101EB800E14D0C9F1200C002208689A4600FA09F0024343F8042B51F8042B8E4522FA0CF2F2D8CAF8042042B1B51C06E0043B51F888
:406CC000042B8E4543F8042FF9D8013D3846C8F810502146FFF72BFE4046BDE8F08703690A6910B59B1A11D192001430143183180A4453F8044D52F8041D8C4202D007D38F
:406D0000012010BD9842F4D3002010BD184610BD4FF0FF3010BD2DE9F8430C460746114620461546FFF7DBFF061E08D131463846FFF7C8FD012303614661BDE8F883BCBF22
:406D400023462C4638466168BABF1D4601260026FFF7B8FD2B69C660266905F1140904F1140101EB860709EB830800F114054FF0000C51F8042B59F8044B93B29C44A3B2D8
:406D8000240CC3EB0C03C4EB124202EB23429BB24FEA224CC84543EA02428E4645F8042BE7D8BE450ED25EF8041B8AB26244131403EB114392B242EA03424FEA234C45F8E3
:406DC000042BEEE755F8043D0BB9013EFAE70661BDE8F8832DE9F3411C4601219046089E099DFFF76FFDC4F31302C4F30A5407460CB142F480120192B8F1000F19D002A8B3
:406E000040F8088DFFF705FE009B48B1019AC0F1200102FA01F10B43C2407B61019200E07B61019B002B14BF02210121BB61396107E001A8FFF7EDFD019B01217B613961E9
:406E4000203034B1A4F2334404443460C0F1350009E0A0F2324007EB810330601869FFF7B8FDC0EB41102860384602B0BDE8F08138B502FB01F4214600F054F8054618B18F
:406E800022460021FDF7CEFF284638BD38B50546002944D051F8043C0C1F002BB8BFE41801F003F91E4A1368114613B96360146030E0A3420DD92268A018834201BF186812
:406EC0005B681218226063600C6023E0A24203D813465A68002AF9D118681918A1420BD12168014458188242196013D110685268014419605A600DE002D90C232B6009E03F
:406F000021686018824201BF106852680918216062605C602846BDE8384001F0C7B838BD4495FF1F70B5CD1C25F0030508350C2D38BF0C25002D064601DBA94202D90C2380
:406F4000336046E001F0B1F8234B1C681A462146A1B10B685B1B0ED40B2B03D90B60CC18CD501EE08C420BBF63684B681360636018BF0C4615E00C464968E9E7174C236841
:406F80001BB9304600F0CAFC20602946304600F0C5FC431C18D0C41C24F00304A0420DD12560304601F082F804F10B00231D20F00700C31A0ED05A42E25070BD211A304695
:406FC00000F0ACFC0130EBD10C233360304601F06DF8002070BD00BF4495FF1F4095FF1F2DE9F0478E6882469E420C46914698463ED88A8912F4906F3AD02568096902233A
:407000006F1A656905EB450595FBF3F57B1C43449D4238BF1D4653050FD52946FFF782FF064698B13A462169FDF7F1FEA38923F4906343F08003A38113E02A4601F037F8B9
:40704000064670B921695046FFF720FF0C23CAF80030A3894FF0FF3043F04003A381BDE8F08726613E44266046466561ED1BA560464528BF464649463246206800F0FAFF91
:40708000A36800209B1BA36023681E442660BDE8F08700002DE9F04F9DB003938B8980461C060D4616460DD50B695BB94021FFF739FF2860286118B90C23C8F80030CDE0D3
:4070C00040236B610023099320238DF82930DFF89CB130238DF82A3037463C4614F8013B1BB9B7EB060910D003E0252BF9D02746F3E74B46324629464046FFF771FF0130A7
:4071000000F0A780099B4B4409933B78002B00F0A08000234FF0FF3204930793059206938DF853301A930126052221784E48FFF7BBFB671C049B38B14B4A3C46801A06FAED
:4071400000F018430490EFE7D90644BF20228DF853201A0744BF2B228DF8532022782A2A03D0079A00210A200BE0039A111D12680391002A10DA524243F00200079204905A
:407180000BE027463B780134303B092B03D800FB02320121F5E701B107923B782E2B1ED17B782A2B0AD1039B02371A1D1B680392002BB8BF4FF0FF33059310E0002319463C
:4071C0000593781C0A2407463A780130303A092A03D804FB01210123F5E703B10591032239782248FFF760FB40B14023CBEB000003FA00F0049B01371843049039780622FB
:407200001B487E1C8DF82810FFF74EFB88B1194B33B9039B073323F007030833039314E003AB00932A46144B04A94046FDF794FE07E003AB00932A460F4B04A94046FEF72F
