:4000000000800020110000009D2800009D28000080B500AF024A034B1B68136002F070FCBC760040FA46004010B5054C237833B9044B13B10448AFF300800123237010BD1F
:40004000B087FF1F00000000A0600000084B10B51BB108490848AFF300800848036803B910BD074B002BFBD0BDE81040184700BF00000000B487FF1FA0600000C880FF1F26
:400080000000000090B484B000AF3C4684E80F00054B1C463B460FCB84E80F0000BF1037BD4690BC704700BFCC87FF1F90B585B000AF3A601A460346FB710B46BB711346AA
:4000C0007B711B4B1B68FA79002110469847184B9B68BA7910469847154B5B689847144B1B68FA790121104698470023FB7313E0FB7B3A68D4180E4BDB68F97B7A79013A20
:400100009142B4BF01220022D2B21046984703462370FB7B0133FB73FA7B7B799A42E7D3034B5B68984700BF1437BD4690BD00BFCC87FF1F80B584B000AF3A601A460346B3
:40014000FB710B46BB7113467B71134B1B68FA790021104698470023FB7311E00E4B9A68BB79591CB971184690470B4B9B68FA7B39680A44127810469847FB7B0133FB732E
:40018000FA7B7B799A42E9D3034B5B68984700BF1037BD4680BD00BFCC87FF1F80B58AB000AF002387F8273007F127020123D0217620FFF77BFF07F10C021A238821762003
:4001C000FFF774FF3A1D0723E1217620FFF76EFF3B7B1AB27B7B1B021BB213431BB29AB24F4B9A81BB7B1AB2FB7B1B021BB213431AB24B4BDA813B7C1AB27B7C1B021BB2BB
:4002000013431AB2464B1A82BB7C1AB2FB7C1B021BB213431BB29AB2414B5A823B7D1AB27B7D1B021BB213431AB23D4B9A82BB7D1AB2FB7D1B021BB213431AB2384BDA82A1
:400240003B7E1AB27B7E1B021BB213431AB2344B1A83BB7E1AB2FB7E1B021BB213431AB22F4B5A833B7F1AB27B7F1B021BB213431AB22B4B9A83BB7F1AB2FB7F1B021BB26E
:4002800013431AB2264BDA8397F820301AB297F821301B021BB213431AB2214B1A8497F822301AB297F823301B021BB213431AB21B4B5A8497F82520194B83F824203B7923
:4002C0001AB27B791B021BB213431AB2144BA3F82520BA79124B83F827203B7A43F00F03DBB21AB2FB791B011BB213431AB20C4B1A853B7A63F00F03DBB21AB27B7A1B0155
:400300001BB213431AB2064B5A85BB7A5AB2044B83F82C2000F006F800BF2837BD4680BDDC87FF1F80B582B000AFB623FB71FA1D0123E0217620FFF7FDFE00BF0837BD465B
:4003400080BD00BF80B500AF0823064AF7217620FFF7ACFE0423044AF2217620FFF7A6FE00BF80BDDC87FF1FE487FF1FB0B58EB000AF0346FB71FB79002B01D0FFF7E2FFC8
:40038000664B5B791B09DBB21A46644B1B791B011A43624BDB781B031343FB624FF000035F4CC7E908344FF000035E4CC7E90634F86A03F0A7FA4FF000025B4B03F042FC5D
:4003C00003460C4625461C46544B9B89184603F099FA4FF00002554B03F034FC02460B462046294603F050F903460C46C7E904344A4BB3F90E30184603F094FA03460C46C4
:400400001A462346D7E9040103F0F2FA03460C46C7E90434F86A03F075FA4FF000024FF0824303F00FFC03460C4625461C463B4B9B89184603F066FA4FF000023C4B03F047
:4004400001FC02460B462046294603F01DF903460C46C7E90234D7E90223D7E9020103F0C7FA03460C4625461C462C4BB3F91030184603F057FA02460B462046294603F05D
:40048000B7FA03460C46C7E90234D7E90223D7E9040103F0FBF803460C461846214603F057FD02461D4BC3F82D20D7E90223D7E9040103F0EBF803460C46184621464FF0FC
:4004C00000021C4B03F0BEFB03460C46C7E90C34D7E90823D7E90C0103F0FCFC0346002B04D0D7E90834C7E90C340CE0D7E90623D7E90C0103F00CFD0346002B03D0D7E9E0
:400500000634C7E90C34D7E90C0103F021FD03465BB218463837BD46B0BD00BFDC87FF1F000044C0004055400000D040000090400000C0400000B440B0B590B000AF034696
:40054000FB71FB79002B01D0FFF7FCFECA4B9B781B09DBB21A46C84B5B781B011A43C64B1B781B0313437B63BDA4D4E90034C7E90A34BDA4D4E90034C7E90834BE4BD3F8CF
:400580002D30184603F0CEF94FF000024FF0804303F058FB03460C46184621464FF00002B64B03F071F803460C46C7E90634D7E90623D7E9060103F01BFA03460C462546FC
:4005C0001C46AD4BB3F91C30184603F0ABF902460B462046294603F00BFA03460C46184621464FF00002A64B03F02CFB03460C46C7E90434A04BB3F91A30184603F092F962
:40060000D7E9062303F0F4F903460C461846214602460B4603F03AF803460C461A462346D7E9040103F032F803460C46C7E904344FF00002934BD7E9040103F003FB0346EC
:400640000C4625461C468C4BB3F91830184603F069F94FF000028C4B03F0CAF902460B462046294603F012F803460C46C7E90434814BB3F91630184603F054F9D7E90623DC
:4006800003F0B6F903460C4618462146D7E9062303F0AEF903460C46184621464FF000027A4B03F0CFFA03460C46C7E90234724BB3F91430184603F035F9D7E9062303F00A
:4006C00097F903460C4618462146D7E9022302F0DDFF03460C46184621464FF000026B4B03F0B0FA03460C46C7E906344FF00002634BD7E9060103F0A5FA03460C4618469D
:4007000021464FF00002624B02F0C0FF03460C4625461C46584B5B8A184603F0F3F802460B462046294603F063F903460C46C7E90634786B03F0E6F803460C461A4623462D
:400740004FF00000534902F09FFF03460C46C7E90E344FF00002504BD7E9040103F072FA03460C461A462346D7E90E0102F08CFF03460C46184621463DA3D3E9002303F0BF
:4007800037F903460C4618462146D7E9062303F059FA03460C46C7E90E34374BB3F92230184603F0BFF8D7E90E2303F021F903460C4618462146D7E90E2303F019F90346C8
:4007C0000C46184621464FF00002344B03F03AFA03460C46C7E90634274BB3F92030184603F0A0F8D7E90E2303F002F903460C46184621464FF00002214B03F023FA0346DA
:400800000C46C7E90434D7E90423D7E9060102F03DFF03460C4625461C46174BB3F91E30184603F07FF802460B462046294602F02DFF03460C46184621464FF00002184B86
:4008400003F000FA03460C461A462346D7E90E0102F01CFF03460C46C7E90E3422E000BF00000000004CDD400000000000DBFA4000000000006AB840DC87FF1F0040EF402D
:400880000000E040000010400000F040000020410000F03F000030410000B0400000E04100003040D7E90A23D7E90E0103F012FB0346002B04D0D7E90A34C7E90E340CE036
:4008C000D7E90823D7E90E0103F022FB0346002B03D0D7E90834C7E90E34D7E90E0103F05FFB034618464037BD46B0BDB0B596B000AF0346FB71FB79002B01D0FFF722FDBB
:400900008B4BDB791A468A4B9B791B021343FB644FF000034FF00004C7E910344FF00003844CC7E90E34824BD3F82D30184602F0F9FF4FF00002804B02F0A6FE03460C467B
:40094000C7E90C347A4BB3F92830184602F0EAFF4FF00002794B03F04BF803460C4625461C46734BB3F92A30184602F0DBFF4FF00002734B03F066F902460B461046194655
:40098000D7E90C2303F034F802460B462046294602F07CFE03460C46C7E90A34F86C02F0B1FFD7E90A2302F06FFE03460C46C7E908345F4BB3F925301BB2184602F0B2FF74
:4009C0004FF000025F4B03F03DF903460C46C7E90634574B93F82730184602F093FF4FF00002594B03F02EF903460C4618462146D7E90C2302F0FCFF03460C46184621465D
:400A00004FF00002514B02F041FE03460C46C7E90434474B93F92C30184602F083FF4FF00002494B03F00EF903460C4618462146D7E90C2302F0DCFF03460C46184621468E
:400A4000D7E9042302F0D4FF03460C46184621464FF000023D4B02F019FE03460C46C7E90234D7E90623D7E9080102F0C1FF03460C4625461C46D7E90223D7E9040102F0AF
:400A8000B7FF02460B462046294602F0B1FF03460C46C7E90234264B93F82430184602F031FFD7E9022302F0A3FF03460C46184621464FF00002264B03F0C4F803460C464A
:400AC0001A4623464FF00000204902F0DDFD03460C4618462146D7E9022302F089FF03460C46C7E91434D7E90E23D7E9140103F00FFA0346002B04D0D7E90E34C7E9143463
:400B00000CE0D7E91023D7E9140103F0E3F90346002B03D0D7E91034C7E91434D7E9140103F03EFA0346DBB218465837BD46B0BDDC87FF1F0000594000C0F2400000504020
:400B40000000D0400000F040000090410000F03F0000204180B400AF044B1B7A03F00703DBB21846BD4680BC704700BFDC87FF1F80B582B000AF0346FB710C4B1B7A03F045
:400B80000703DAB2094B1A72084B1A7AFB791343DAB2064B1A720123054AF2217620FFF7C9FA00BF0837BD4680BD00BFDC87FF1FE487FF1F80B400AF044B9B7A23F01F034D
:400BC000DBB21846BD4680BC704700BFDC87FF1F80B582B000AF0346FB710C4B9B7A03F01F03DAB2094B9A72084B9A7AFB791343DAB2064B9A720123054AF4217620FFF76E
:400C000099FA00BF0837BD4680BD00BFDC87FF1FE687FF1F80B400AF044B9B7A03F01C03DBB21846BD4680BC704700BFDC87FF1F80B582B000AF0346FB710C4B9B7A23F054
:400C40001C03DAB2094B9A72084B9A7AFB791343DAB2064B9A720123054AF4217620FFF769FA00BF0837BD4680BD00BFDC87FF1FE687FF1F80B400AF044B9B7A03F003038F
:400C8000DBB21846BD4680BC704700BFDC87FF1F80B582B000AF0346FB710C4B9B7A23F00303DAB2094B9A72084B9A7AFB791343DAB2064B9A720123054AF4217620FFF7A9
:400CC00039FA00BF0837BD4680BD00BFDC87FF1FE687FF1F80B400AF044BDB7A03F01C03DBB21846BD4680BC704700BFDC87FF1F80B582B000AF0346FB710C4BDB7A23F074
:400D00001C03DAB2094BDA72084BDA7AFB791343DAB2064BDA720123054AF5217620FFF709FA00BF0837BD4680BD00BFDC87FF1FE787FF1F90B484B000AF3B1D83E80700BB
:400D4000054B1C463B1D93E8070084E8070000BF1037BD4690BC70471088FF1FB0B588B000AF0D4B3C1D1D4628686968AA68EB680FC42869696903C42B8BAA7E23801346B5
:400D8000A3703B1D1921184600F008F800F0A8F800BF2037BD46B0BDA860000080B584B000AF78600B46FB70104B1B6800213C2098470E4B9B68002098470023FB730AE066
:400DC0000A4B9B68FA7B79680A44127810469847FB7B0133FB73FA7BFB789A42F0D3034B5B68984700BF1037BD4680BD1088FF1F80B584B000AF78600B467B80104B1B6893
:400E000000213C2098470E4B9B68402098470023FB810AE00A4B9B68FA8979680A44127810469847FB890133FB81FA897B889A42F0D3034B5B68984700BF1037BD4680BDDA
:400E40001088FF1F80B485B000AF0346FB710B46BB7113467B7197F90730002B38DBBB793F2B35D8BB79DB08FB73FB79BB73FB7B9BB2DB019AB2BB7B9BB21344BB81BB7921
:400E800003F00703FB727B79002B0FD0BB89BA8912498A5C51B2FA7A012000FA02F252B20A4352B2D1B20D4AD15412E0BB89BA890A498A5C51B2FA7A012000FA02F252B2EC
:400EC000D24352B20A4052B2D1B2044AD15400E000BF1437BD4680BC704700BF1C88FF1F80B483B000AF00237B6007E0084A7B68134400221A707B6801337B607B68B3F584
:400F0000806FF3D300BF0C37BD4680BC704700BF1C88FF1F80B500AF154B1B6800213C209847134B9B6800209847114B9B68212098470F4B9B68002098470D4B9B687F202B
:400F400098470B4B9B6822209847094B9B6800209847074B9B6807209847054B5B6898474FF480610348FFF743FF00BF80BD00BF1088FF1F1C88FF1F80B500AF00F034F99A
:400F8000064B074A07CA83E80700064B00221A80054B00221A8000BF80BD00BF1C8CFF1FC4600000288CFF1F2A8CFF1F80B500AF00F038F900BF80BD80B500AF00F038F9E2
:400FC00000BF80BD80B588B000AF0346FB800B46BB8013467B80314B1A687B88DB001A4407F1080392E8030083E803003B7B9AB2FB8813449AB2BB7B9BB213447B837B7B17
:401000009AB2BB8813449AB2FB7B9BB213443B83FB7B9AB2BB881344FB8336E0BB7B9AB2FB881344BB8329E0BB68DB087B61BB68DBB203F00703FB74184B5A687B691344B5
:401040001B781A46FB7CC3F1070342FA03F303F00103002B06D0F98BBB8B0122184600F0F9F805E0F98BBB8B0022184600F0F2F8BB680133BB60BB8B0133BB83BA8B7B8B74
:401080009A42D1D3FB8B0133FB83FA8B3B8B9A42C4D300BF2037BD4680BD00BF1C8CFF1F80B483B000AF03460A46FB801346BB80054AFB881380054ABB88138000BF0C3795
:4010C000BD4680BC704700BF288CFF1F2A8CFF1F80B584B000AF0346FB801C4B1A68FB88DB001A4407F1080392E8030083E80300174B1B881A463B7B1344802B0EDD144BBF
:4011000000221A807B7B9AB2FB7B9BB213449AB2104B1B8813449AB20E4B1A800C4B18880C4B1B88FA881946FFF74CFF3B7B9AB2BB7B9BB213449AB2054B1B8813449AB2E6
:40114000034B1A8000BF1037BD4680BD1C8CFF1F288CFF1F2A8CFF1F80B582B000AF0346FB80FB881846FFF7B3FF00BF0837BD4680BD00BF80B582B000AF786025E07B689F
:401180001B780A2B0FD1154B00221A80144B1B7A9AB2144B1B8813449AB2124B1A807B6801337B6011E07B681B781F2B03D87B6801337B6009E07B685A1C7A601B789BB223
:4011C000203B9BB21846FFF783FF7B681B78002BD5D100BF0837BD4680BD00BF288CFF1F1C8CFF1F2A8CFF1F80B584B000AF0C4A3B4607CA83E807003B4693E80700FFF796
:4012000099FD02F035FA0346FB73FFF7A7FDFB7B184602F031FA00BF1037BD4680BD00BFD060000080B500AFFFF75AFE00BF80BD80B582B000AF02F01BFA0346FB71FFF78A
:4012400069FEFB79184602F017FA00BF0837BD4680BD00BF80B582B000AF0346FB800B46BB801346FB70FB88DBB2BA88D1B2FA781846FFF7E7FD00BF0837BD4680BD00BF8F
:4012800080B500AF00F036F800BF80BD80B582B000AF03460A46FB711346BB71BA79FB791146184600F02CF800BF0837BD4680BD80B500AF00F036F800BF80BD80B582B07D
:4012C00000AF0346FB71FB79184600F031F8034618460837BD4680BD80B582B000AF0346FB71FB79184600F031F800BF0837BD4680BD00BF80B500AF01F0FCFB00BF80BDFE
:4013000080B582B000AF03460A46FB711346BB71BA79FB791146184601F0D8FD00BF0837BD4680BD80B500AF01F02CFE00BF80BD80B582B000AF0346FB71FB79184601F024
:401340008DFE034618460837BD4680BD80B582B000AF0346FB71FB79184601F03FFE00BF0837BD4680BD00BF90B587B002AF394B00934FF000024FF000033749374800F03E
:4013800079F9374B00934FF000024FF000033549324800F06FF9344B00934FF000024FF0000332492D4800F065F9314B314A32492A4800F0C5FA314B314A3249274800F09C
:4013C000BFFA314B314A3249244800F0B9FA314B314A3249214800F0B3FA314B314A32491E4800F0ADFA314B3C460FCB84E80F003B460FCBFEF746FEFEF7D0FE4FF00002E1
:401400004FF000031C49154800F0EAFA4FF020024FF000031B49114800F0E2FA4FF004024FF000031A490D4800F0DAFA4FF001024FF000031949094800F0D2FA4FF0010270
:401440004FF000031849054800F0CAFA00BF1437BD4690BDB1140000DC600000E8600000E1140000F060000011150000FC600000411500005D1500000861000075150000A3
:401480009115000010610000A9150000C515000020610000DD150000F915000030610000111600002D160000406100004861000090B583B000AF0120FEF758FF034618467C
:4014C00002F030FA03460C46C7E900340120FFF7DFFBD7E90034184621460C37BD4690BD90B583B000AF0120FFF726F80346184602F008FA03460C46C7E900340120FFF787
:40150000C7FBD7E90034184621460C37BD4690BD90B583B000AF0120FFF7E8F90346184602F0F0F903460C46C7E900340120FFF7AFFBD7E90034184621460C37BD4690BD70
:4015400080B582B000AFC7E900013B781846FFF7CFFB00BF0837BD4680BD00BF98B500AFFFF7B8FB0346DBB24FF000041846214698BD00BF80B582B000AFC7E900013B78C5
:401580001846FFF725FB00BF0837BD4680BD00BF98B500AFFFF70EFB0346DBB24FF000041846214698BD00BF80B582B000AFC7E900013B781846FFF73BFB00BF0837BD46C8
:4015C00080BD00BF98B500AFFFF724FB0346DBB24FF000041846214698BD00BF80B582B000AFC7E900013B781846FFF7C1FA00BF0837BD4680BD00BF98B500AFFFF7AAFAD0
:401600000346DBB24FF000041846214698BD00BF80B582B000AFC7E900013B781846FFF737FB00BF0837BD4680BD00BF98B500AFFFF720FB0346DBB24FF0000418462146D0
:4016400098BD00BF98B500AF084A4FF000034FF00004C2E90034064A4FF000034FF00004C2E9003400F09AFA00BF98BD3894FF1F3091FF1F90B484B000AFF860B960C7E947
:4016800000232B4BD3E900124B1C42F100042848C0E9003427480C4623469B002344DB000344F868186023480C4623469B002344DB0003440433B86818601E480C46234678
:4016C0009B002344DB00034403F10800D7E90034C0E9003417480C4623469B002344DB00034403F110004FF000034FF00004C0E9003410480C4623469B002344DB0003441E
:4017000003F118004FF000034FF00004C0E9003408480A4613469B001344DB0003442033BA691A6000BF1037BD4690BC704700BF3091FF1F308CFF1F90B585B000AF7860B9
:4017400039604FF000034FF00004C7E902342FE02049BA6813469B001344DB000B441B687968184603F010F90346002B19D11949BA6813469B001344DB000B4404331B6887
:401780003968184603F000F90346002B09D11149BA6813469B001344DB000B44183318CB12E0D7E90234013344F10004C7E90234094B18CBD7E90212A24208BF9942C7D36B
:4017C0004FF000034FF00004184621461437BD4690BD00BF308CFF1F3091FF1F90B585B000AF786039604FF000034FF00004C7E902342FE02049BA6813469B001344DB00C7
:401800000B441B687968184603F0BEF80346002B19D11949BA6813469B001344DB000B4404331B683968184603F0AEF80346002B09D11149BA6813469B001344DB000B4406
:40184000083318CB12E0D7E90234013344F10004C7E90234094B18CBD7E90212A24208BF9942C7D34FF000034FF00004184621461437BD4690BD00BF308CFF1F3091FF1F87
:4018800090B587B000AFF860B960C7E900234FF000034FF00004C7E9043442E026493A6913469B001344DB000B441B68F968184603F06AF80346002B2CD11F493A69134637
:4018C0009B001344DB000B4404331B68B968184603F05AF80346002B1CD117493A6913469B001344DB000B4403F10802D7E90034C2E9003410493A6913469B001344DB0082
:401900000B4403F110024FF000034FF00004C2E900340EE0D7E90434013344F10004C7E90434064B18CBD7E90412A24208BF9942B4D31C37BD4690BD308CFF1F3091FF1F40
:4019400090B484B000AFF860B9607A603B60224BD3E900124B1C42F100041F48C0E900341E480C4623465B002344DB000344F86818601A480C4623465B002344DB0003445F
:401980000433B868186015480C4623465B002344DB00034403F108004FF000034FF00004C0E900340D480C4623465B002344DB00034410337868186008480A4613465B001B
:4019C0001344DB00034414333A681A6000BF1037BD4690BC704700BF3894FF1F3891FF1F90B587B000AFF860B960C7E900234FF000034FF00004C7E904344AE02B493A6952
:401A000013465B001344DB000B441B68F968184602F0BAFF0346002B34D124493A6913465B001344DB000B4404331B68B968184602F0AAFF0346002B24D11C493A69134628
:401A40005B001344DB000B4403F10802D7E90034C2E9003415493A6913465B001344DB000B4414331B68002B1CD010493A6913465B001344DB000B4414331B68D7E90001E6
:401A800098470FE0D7E90434013344F10004C7E90434074B18CBD7E90412A24208BF9942ACD300E000BF1C37BD4690BD3891FF1F3894FF1F90B583B000AF4FF000034FF040
:401AC0000004C7E9003458E032493A6813469B001344DB000B44103318CB591C44F100022C4C386803469B000344DB0023441033C3E9001227493A6813469B001344DB00A4
:401B00000B441033D3E90012224C386803469B000344DB002344083318CBA24208BF994224D11C493A6813469B001344DB000B4420331B6898470A460146164C386803461E
:401B40009B000344DB0023441833C3E9001211493A6813469B001344DB000B4403F110024FF000034FF00004C2E90034D7E90034013344F10004C7E90034074B18CBD7E923
:401B80000012A24208BF99429ED300BF0C37BD4690BD00BF308CFF1F3091FF1F80B500AF01F058FC034801F099FCFFF7DDFB00BF80BD00BFB51A000080B500AF01F08AFAA7
:401BC00000BF80BD80B500AFFFF7F6FF00BF80BD80B586B000AF78600B46FB707B689B79FA789A4209D27B681A797B685B799A4203D87B681B68002B02D17B681B7921E090
:401C00007B681B79FB757B689B79FA7D02FB03F3DAB2FB781344BB757B681A68BB7DDB001A4407F10C0392E8030083E803003B7B7B753B69002B01D03B6998477B687A7D6B
:401C40001A717B7D18461837BD4680BD80B500AF01F088FA094801F03BFB094801F09CFA084801F0E7FA084B00221A70074B00221A70074B00221A7000BF80BD951C000083
:401C8000AD1C0000C51C00004094FF1F4194FF1F4294FF1F80B400AF034B01221A7000BFBD4680BC704700BF4094FF1F80B400AF034B01221A7000BFBD4680BC704700BF0B
:401CC0004194FF1F80B400AF034B01221A7000BFBD4680BC704700BF4294FF1F80B500AF664B06225A71654B04229A71634B00221A71624B624A1A60614B624A083392E807
:401D0000030083E803005E4B5F4A103392E8030083E803005A4B5D4A183392E8030083E80300574B00221A70554B594A5A60544B002283F86820524B564ADA66504B564A69
:401D4000703392E8030083E803004D4B534A783392E8030083E80300494B4A4A603392E8030083E80300464B4D4A283392E8030083E80300424B454A303392E8030083E88F
:401D800003003F4B002283F838203D4B414ADA633B4B444A203392E8030083E80300384B394A883392E8030083E80300344B3E4A903392E8030083E80300314B3B4A9833D2
:401DC00092E8030083E803002D4B354A803392E8030083E803002A4B354A483392E8030083E80300264B002283F85020244B294A5A65234B244A583392E8030083E8030098
:401E00001F4B2C4A403392E8030083E803001C4B1E4AA83392E8030083E80300184B264AB03392E8030083E80300154B234AB83392E8030083E80300114B1D4AA03392E87B
:401E4000030083E803004FF4FA724FF000031C491C48FFF715FD4FF4FA724FF000031A491848FFF70DFD4FF4FA724FF0000317491448FFF705FD00BF80BD00BF2C95FF1F3C
:401E80004894FF1F846100008C61000094610000A11F0000391F00009C610000A4610000AC610000B4610000BC610000C4610000CC610000D4610000DC610000E4610000FF
:401EC00058610000646100006C6100007861000080B586B000AFF860B9607A600023FB75FB681B78DBB2002B05D00123FB75FB6800221A7014E0BB681B78DBB2002B05D069
:401F00000223FB75BB6800221A7009E07B681B78DBB2002B04D00323FB757B6800221A70FB7D19460348FFF753FE00BF1837BD4680BD00BF2C95FF1F90B589B000AF3B462A
:401F400020220021184602F082F811491148FFF7F3FB03460C461846214602F021F802463B460D49184602F0EBFCFFF71FF800210020FFF795F83B461846FFF7FBF85F20C4
:401F8000FFF7EAF8FFF718F800BF2437BD4690BD5861000064610000EC61000000000000B0B582B000AF16491648FFF7C5FBC7E90001154BD3E90001D7E9002301F064FB54
:401FC00002460B46144623F000450BA3D3E900232046294601F07EFF0346002B07D10A4AD7E90034C2E90034FFF7A6FF00E000BF0837BD46B0BD00BFFCA9F1D24D62503F05
:4020000058610000646100000895FF1FB0B58AB000AF3B4620220021184602F018F816491648FFF7DBFBC7E90801D7E9083423430CD13B46124A1C4615460FCD0FC42B6878
:402040001A46228002341B0C237005E03A6A3B460C49184602F074FCFEF7A8FF00210020FFF71EF83B461846FFF784F8FEF7A4FF00BF2837BD46B0BD586100006461000071
:40208000006200001462000090B583B000AF0A490A48FFF7A3FBC7E90001D7E90034643344F100041A46234603490448FFF7E8FB00BF0C37BD4690BD586100006461000069
:4020C00090B583B000AF12491248FFF787FBC7E90001D7E90034002C08BF652B0BD3D7E90034643B44F1FF341A46234608490948FFF7C6FB07E04FF000024FF000030449B2
:402100000448FFF7BDFB00BF0C37BD4690BD00BF586100006461000090B589B000AF3B4620220021184601F092FF11491148FFF703FB03460C461846214601F031FF0246B5
:402140003B460D49184602F0FBFBFEF72FFF00210020FEF7A5FF3B461846FFF70BF86220FEF7FAFFFEF728FF00BF2437BD4690BD6C6100006461000024620000000000005F
:40218000B0B582B000AF16491648FFF7D5FAC7E90001154BD3E90001D7E9002301F074FA02460B46144623F000450BA3D3E900232046294601F08EFE0346002B07D10A4A7D
:4021C000D7E90034C2E90034FFF7A6FF00E000BF0837BD46B0BD00BFFCA9F1D24D62503F6C610000646100001095FF1FB0B58AB000AF3B4620220021184601F028FF164962
:402200001648FFF7EBFAC7E90801D7E9083423430CD13B46124A1C4615460FCD0FC42B681A46228002341B0C237005E03A6A3B460C49184602F084FBFEF7B8FE0021002085
:40224000FEF72EFF3B461846FEF794FFFEF7B4FE00BF2837BD46B0BD6C61000064610000346200004862000090B583B000AF0A490A48FFF7B3FAC7E90001D7E90034643323
:4022800044F100041A46234603490448FFF7F8FA00BF0C37BD4690BD6C6100006461000090B583B000AF12491248FFF797FAC7E90001D7E90034002C08BF652B0BD3D7E98F
:4022C0000034643B44F1FF341A46234608490948FFF7D6FA07E04FF000024FF0000304490448FFF7CDFA00BF0C37BD4690BD00BF6C6100006461000090B589B000AF3B4661
:4023000020220021184601F0A2FE10491048FFF713FA03460C461846214601F041FE02463B460C49184602F00BFBFEF73FFE00210020FEF7B5FE3B461846FEF71BFFFEF795
:402340003BFE00BF2437BD4690BD00BF786100006461000058620000B0B582B000AF16491648FFF7E9F9C7E90001154BD3E90001D7E9002301F088F902460B46144623F09F
:4023800000450BA3D3E900232046294601F0A2FD0346002B07D10A4AD7E90034C2E90034FFF7AAFF00E000BF0837BD46B0BD00BFFCA9F1D24D62503F786100006461000083
:4023C0001895FF1FB0B58AB000AF3B4620220021184601F03CFE16491648FFF7FFF9C7E90801D7E9083423430CD13B46124A1C4615460FCD0FC42B681A46228002341B0C79
:40240000237005E03A6A3B460C49184602F098FAFEF7CCFD00210020FEF742FE3B461846FEF7A8FEFEF7C8FD00BF2837BD46B0BD7861000064610000686200007C6200008C
:4024400090B583B000AF0A490A48FFF7C7F9C7E90001D7E90034643344F100041A46234603490448FFF70CFA00BF0C37BD4690BD786100006461000090B583B000AF124996
:402480001248FFF7ABF9C7E90001D7E90034002C08BF652B0BD3D7E90034643B44F1FF341A46234608490948FFF7EAF907E04FF000024FF0000304490448FFF7E1F900BF51
:4024C0000C37BD4690BD00BF786100006461000080B500AF62B6FEF7D3FEFEF74DFDFFF771FBFFF7AFF8FFF7B1FBFFF7F7FB034A03490448FFF7ECFCF9E700BF4294FF1F0C
:402500004194FF1F4094FF1F80B582B000AF786039603A680021786801F099FD00BF0837BD4680BD80B584B000AFF860B9607A607A68B968F86801F07FFD00BF1037BD468B
:4025400080BD00BF80B483B000AF0346FB71FEE780B487B000AF7860396000233B6100237B6127E07B699B007A6813441B68BB60BB68FB73BB6823F0FF03BB6014E03B698D
:402580005B003A6813441B781A46BB68134419463B695B003A6813445B780B703B6901333B61FB7B013BFB73FB7B002BE7D17B6901337B617B69202BD4D900BF1C37BD46E3
:4025C00080BC704780B582B000AF344B19221A80334B18221A70334B4CF24F321A80324B19221A70314B02221A704FF0402308221A702F4B03221A702E4B2F4A1278D2B27A
:402600001A702E4B08221A802D4B41F251221A800023FB7019237B6014E0FB785B00DAB2284B1B78DBB203F00103DBB21343DBB203F00303FB704FF4F07001F011F87B684A
:40264000013B7B607B68002B02D0FB78032BE4D17B68002B02D10320FFF774FF1A4B4FF480721A80184B07221A70184B00221A70174B48221A70144B00221A70154B022262
:402680001A70154A144B1B78DBB243F00303DBB2137000BF0837BD4680BD00BF804000408240004084400040864000400043004000420040A146004008010049224200403E
:4026C000204200402542004004400040064000400840004001400040A243004080B483B000AF0B4B1B78FB710A4AFB7903F00703DBB21370084AFB791B09DBB21370074BCD
:4027000044221A7000BF0C37BD4680BC704700BFCF0100496E5800406F5800407658004080B586B000AF72B64A4A4A4B1B78DBB243F00403DBB213700023FB7513E0FA7DEC
:4027400013465B0013445B00434A13443B613B691A683B699B889BB219461046FFF7D4FEFB7D0133FB75FB7D0A2BE8D90023FB751CE0FA7D13469B0013445B00374A1344AE
:40278000FB60FB681B68BB60FB685B687B60FB681A7A5B7A1B0213437B807B881A467968B868FFF7BFFEFB7D0133FB75FB7D002BDFD02B494FF09040FFF7CAFE294B2A4AD4
:4027C0001A602A4A294B1B78DBB243F00203DBB21370274A264B1B78DBB243F00203DBB21370244A234B1B78DBB243F04003DBB21370214A204B1B78DBB243F01003DBB27A
:4028000013700A221D491E48FFF78CFE08221D491D48FFF787FE1D4A1C4B1B78DBB243F00803DBB213701A4B61221A70FFF7CAFE174B81221A70174B01221A70FFF74EFFE0
:402840000E220C491448FFF76DFE00BF1837BD4680BD00BFE84600408C620000D062000084000048D81A0140040400440350014013500140A0430040C243004098050048AB
:40288000C0510040A405004812510040224300400048004004000840B043004080B500AF01F09EFB03461B680C2B00D1FEE7FEE780B584B000AF78600F4B1A687B68134475
:4028C0001A460E4BD31A802B09DC0B4B1B68FB60094B1A687B681344074A136007E001F07FFB02460C2313604FF0FF33FB60FB6818461037BD4680BD0C87FF1F5095FF1F96
:4029000080B586B000AF224B7B61224B3B61204B7B6135E03B691B68FB603B695B68BB603B699B683B6000237B600CE0FB681A68BB681A60BB680433BB60FB680433FB60B3
:402940007B6804337B607A683B689A42EED13B69DB683B6000237B6008E0BB6800221A60BB680433BB607B6804337B607A683B689A42F2D13B6910333B617B69013B7B610E
:402980007B69002BC6D101F031FBFFF7A1FDFEE701000000C064000080B582B000AF184B184A1A60184A184B1B6843F40073136000237B600FE07B68032B04D8134A7B68E2
:4029C00052F8233000E0124B12497A6841F822307B6801337B607B682F2BECD90E4B1B78DAB20E4B1A700E4B0A4A1A60FFF798FE0C4B00221A6000BF0837BD4680BD00BF43
:402A00000CED00E00004FA0514ED00E0000000009D2800000080FF1FBC760040C480FF1F08ED00E0C080FF1F80B500AF144B02221A70144B81221A70134B08221A70134B82
:402A40000F221A70124B00221A70124B4FF400421A6007210F2000F0DDFD0F490F2000F0B1FD0E4B10221A700D4B00221A700D4B00221A700C4B00221A7000BF80BD00BF15
:402A8000D6490040C8490040CA490040DB490040DC49004080E100E0252B00003495FF1F3A95FF1F4295FF1F3895FF1F80B582B000AF00F0DDFD0346FB710C4A0B4B1B7831
:402AC000DBB243F00403DBB21370094A084B1B78DBB243F00403DBB21370FB79184600F0CBFD00BF0837BD4680BD00BFA5430040B543004080B500AF084B1B78002B04D13E
:402B0000FFF792FF054B01221A70FFF7CFFF044B4FF400421A6000BF80BD00BF2095FF1F00E100E080B582B000AFA74B1B78FB71A64B1B78DBB203F04003DBB2002B00F0BA
:402B4000A981FB7903F00103002B00F080819F4B1B78DBB2453B052B00F2758101A252F823F000BF7D2B0000A32C0000472E0000472E00007D2B00008F2D0000FB7923F0F7
:402B80002003FB71FB7903F00A03DBB2082B46D18E4B1B78DBB2452B3AD18D4B1B78DBB2002B0FD08B4A8C4B1B681B78DBB21370854B04221A70894B01221A70834B4622BC
:402BC0001A7044E1864B1B78DBB203F00203002B0FD0844B1B78DBB243F00A03DAB2814B1A707A4B60221A707F4B4FF400421A602DE17E4A7D4B1B78DBB243F01003DBB2F7
:402C000013707B4B10221A706F4B04221A701EE16D4B00221A706D4B4A221A7017E1FB7903F00A03DBB20A2B37D16E4B1B78DBB263F05F03DAB26B4B1A70694B1B78DBB2B0
:402C400003F00203002B19D0604B1B78DBB203F00803002B01D0092300E00A23DAB2614B1B78DBB21343DAB25E4B1A70574B60221A705D4B4FF400421A60E8E05B4A5B4B75
:402C80001B78DBB243F01003DBB21370584B10221A704D4B04221A70D9E0002000F086FCD5E0FB7903F00203002B42D14B4B1B78DAB2474B1B78DBB29A4214D2454A464B04
:402CC0001B6846490978C9B20B441B78DBB213703D4B04221A70414B1B78DBB20133DAB23E4B1A70B3E03E4B1B78DBB203F00203002B0FD03B4B1B78DBB243F00A03DAB26D
:402D0000384B1A70314B60221A70374B4FF400421A609CE0354A354B1B78DBB243F01003DBB21370324B10221A70274B04221A708DE02B4B1B78DBB203F00203002B0FD02C
:402D4000284B1B78DBB263F06503DAB2254B1A701E4B60221A70244B4FF400421A6076E0224A224B1B78DBB243F01003DBB213701F4B10221A70144B04221A70194B1B78CB
:402D8000DBB263F06F03DAB2164B1A705FE0194B1B68194A1278D2B213440E4A1278D2B21A70154B1B78DBB20133DAB2124B1A70114B1B78DAB2114B1B78DBB29A421FD281
:402DC000014B10221A7042E0D74900403495FF1F3995FF1FD84900404495FF1F3895FF1F4095FF1F3A95FF1F80E100E0D6490040D94900403C95FF1F4295FF1F4195FF1F79
:402E00002C4B1B78DBB203F00203002B0FD02A4B1B78DBB243F00903DAB2274B1A70274B60221A70264B4FF400421A600FE0254A244B1B78DBB243F01003DBB21370224BFF
:402E400000221A7003E0002000F0B0FB00BFFB7903F02003002B28D0184B1B78DBB203F00803002B01D0012300E00223DAB2124B1B78DBB21343DAB20F4B1A70114A114B70
:402E80001B78DBB223F01003DBB213700B4B10221A700AE0094B1B78DBB203F01003DBB2002B02D1054B10221A7000BF0837BD4680BD00BF4095FF1F3A95FF1F3495FF1FEB
:402EC00080E100E0D6490040D749004080B485B000AF03460A46FB711346BB710223FB73234B1B78DBB2102B3CD1224B1B78DBB203F00803002B33D11F4B4FF400421A60A4
:402F0000FB795B00FB71BB79002B07D0FB7943F00103FB71164B49221A7002E0144B45221A70164AFB791370124B01221A7000BF134B1B78DBB203F00103002BF8D0104B9E
:402F40001B78DBB203F00A03DBB20A2B05D1084B10221A700323FB7304E00023FB7301E00123FB73FB7B18461437BD4680BC70473495FF1FD949004080E100E0D84900400E
:402F8000D749004080B483B000AF0223FB71104B1B78DBB203F00403002B12D00C4B10221A700C4B04221A700B4B10221A7000BF084B1B78DBB203F02103002BF8D00023FD
:402FC000FB71FB7918460C37BD4680BC704700BFD9490040D74900403495FF1F80B485B000AF0346FB710223FB73184B1B78DBB203F00403002B22D0154AFB791370154B42
:4030000004221A70144B46221A7000BF114B1B78DBB203F00103002BF8D00E4B1B78DBB203F00203002B05D10B4B60221A700023FB7304E0084B60221A700323FB73FB7BB8
:4030400018461437BD4680BC704700BFD9490040D8490040D74900403495FF1F80B485B000AF0346FB710023FB73164B1B78DBB203F00403002B1FD0134B1B78DBB2492B03
:4030800005D1124B00221A700F4B4A221A7000BF0E4B1B78DBB203F00103002BF8D00C4B1B78FB73FB79002B03D0084B10221A7002E0054B60221A70FB7B18461437BD4686
:4030C00080BC7047D94900403495FF1FD7490040D849004080B500AF064B1B78002B04D100F00AF8034B01221A7000F015F800BF80BD00BF2195FF1F80B400AF044B7222CC
:403100001A70044B00221A7000BFBD4680BC7047886400408B65004080B582B000AF00F0A7FA0346FB710D4A0C4B1B78DBB243F02003DBB213700A4A094B1B78DBB243F06E
:403140001003DBB2137000F017FAFB79184600F093FA00BF0837BD4680BD00BF986400409B65004080B400AF094A094B1B78DBB243F00203DBB21370064A064B1B78DBB2B0
:4031800043F00203DBB2137000BFBD4680BC7047A2430040B243004080B582B000AF786000F03CF8786800F009F8072000F018F800F028F800BF0837BD4680BD80B485B0F7
:4031C00000AF7860054B1B68FB60FB6848337A681A6000BF1437BD4680BC704708ED00E080B483B000AF0346FB71054AFB795B01DBB2137000BF0C37BD4680BC704700BF5A
:4032000002E400E080B400AF034B04221A6000BFBD4680BC704700BF00E100E080B400AF034B04221A6000BFBD4680BC704700BF80E100E080B582B000AF786000F03CF82A
:40324000786800F009F8072000F018F800F028F800BF0837BD4680BD80B485B000AF7860054B1B68FB60FB6844337A681A6000BF1437BD4680BC704708ED00E080B483B078
:4032800000AF0346FB71054AFB795B01DBB2137000BF0C37BD4680BC704700BF01E400E080B400AF034B02221A6000BFBD4680BC704700BF00E100E080B400AF034B0222A6
:4032C0001A6000BFBD4680BC704700BF80E100E080B582B000AF786000F03CF8786800F009F8072000F018F800F028F800BF0837BD4680BD80B485B000AF7860054B1B6884
:40330000FB60FB6840337A681A6000BF1437BD4680BC704708ED00E080B483B000AF0346FB71054AFB795B01DBB2137000BF0C37BD4680BC704700BF00E400E080B400AFD3
:40334000034B01221A6000BFBD4680BC704700BF00E100E080B400AF034B01221A6000BFBD4680BC704700BF80E100E080B500AF224A224B1B78DBB203F00103DBB21370C6
:403380001F4A1F4B1B78DBB223F00303DBB213701C4A1C4B1B78DBB223F03003DBB21370184A184B1B78DBB243F03003DBB21370144A144B1B78DBB223F00F03DBB2137041
:4033C000104A104B1B78DBB243F00F03DBB213700D4A0D4B1B78DBB243F00103DBB2137045F6BF5000F058F845F6BF5000F066F8002000F041F800BF80BD00BF004F0040D8
:40340000024F00400B4F0040014F004080B400AF0D4A0D4B1B78DBB243F00103DBB213700A4A0A4B1B78DBB243F00103DBB21370074A074B1B78DBB243F00103DBB21370BE
:4034400000BFBD4680BC7047A3430040B3430040004F004080B500AF064B1B78002B04D1FFF784FF034B01221A70FFF7CFFF00BF80BD00BF2295FF1F80B483B000AF0346BD
:40348000FB71044AFB79137000BF0C37BD4680BC704700BF034F004080B485B000AF0346FB80FB88FB81044AFB89138000BF1437BD4680BC704700BF044F004080B483B019
:4034C00000AF0346FB80044AFB88138000BF0C37BD4680BC704700BF064F004080B582B000AF786000F03CF8786800F009F8072000F018F800F028F800BF0837BD4680BD51
:4035000080B485B000AF7860054B1B68FB60FB684C337A681A6000BF1437BD4680BC704708ED00E080B483B000AF0346FB71054AFB795B01DBB2137000BF0C37BD4680BC1F
:40354000704700BF03E400E080B400AF034B08221A6000BFBD4680BC704700BF00E100E080B400AF034B08221A6000BFBD4680BC704700BF80E100E080B400AF094A094BF0
:403580001B78DBB243F00103DBB21370064A064B1B78DBB243F00103DBB2137000BFBD4680BC7047A2430040B243004080B483B000AF0346FB7101BE00BF0C37BD4680BCC2
:4035C000704700BF80B584B000AF03463960FB710F4B1B68FB60FB791F2B02D90020FFF7E5FFFB7903F01F0310339B00FA6813441B68BB60FB7903F01F0310339B00FA689D
:4036000013443A681A60BB6818461037BD4680BD08ED00E080B582B000AF03460A46FB711346BB71BB79072B02D90020FFF7BEFFFB791F2B02D90020FFF7B8FFFB7903F0B9
:403640001F0303F1604303F56443BA795201D2B21A7000BF0837BD4680BD00BF000000000230800803D000BF01380046FCD17047EFF3108072B6704780F31088704700BF40
:4036800081F0004102E000BF83F0004330B54FEA41044FEA430594EA050F08BF90EA020F1FBF54EA000C55EA020C7FEA645C7FEA655C00F0E2804FEA5454D4EB5555B8BF5E
:4036C0006D420CDD2C4480EA020281EA030382EA000083EA010180EA020281EA0303362D88BF30BD11F0004F4FEA01314FF4801C4CEA113102D0404261EB410113F0004F4C
:403700004FEA03334CEA133302D0524263EB430394EA050F00F0A780A4F10104D5F1200E0DDB02FA0EFC22FA05F2801841F1000103FA0EF2801843FA05F359410EE0A5F1B9
:4037400020050EF1200E012A03FA0EFC28BF4CF0020C43FA05F3C01851EBE37101F0004507D54FF0000EDCF1000C7EEB00006EEB0101B1F5801F1BD3B1F5001F0CD34908D3
:403780005FEA30004FEA3C0C04F101044FEA445212F5800F80F09A80BCF1004F08BF5FEA500C50F1000041EB045141EA050130BD5FEA4C0C404141EB010111F4801FA4F155
:4037C0000104E9D191F0000F04BF01460020B1FA81F308BF2033A3F10B03B3F120020CDA0C3208DD02F1140CC2F10C0201FA0CF021FA02F10CE002F11402D8BFC2F1200C62
:4038000001FA02F120FA0CFCDCBF41EA0C019040E41AA2BF01EB0451294330BD6FEA04041F3C1CDA0C340EDC04F11404C4F1200220FA04F001FA02F340EA030021FA04F3DF
:4038400045EA030130BDC4F10C04C4F1200220FA02F001FA04F340EA0300294630BD21FA04F0294630BD94F0000F83F4801306BF81F480110134013D4EE77FEA645C18BF8A
:403880007FEA655C29D094EA050F08BF90EA020F05D054EA000C04BF1946104630BD91EA030F1EBF0021002030BD5FEA545C05D14000494128BF41F0004130BD14F5800479
:4038C0003CBF01F5801130BD01F0004545F0FE4141F470014FF0000030BD7FEA645C1ABF194610467FEA655C1CBF0B46024650EA013406BF52EA033591EA030F41F40021FD
:4039000030BD00BF90F0000F04BF0021704730B54FF4806404F132044FF000054FF0000150E700BF90F0000F04BF0021704730B54FF4806404F1320410F0004548BF4042D1
:403940004FF000013EE700BF42004FEAE2014FEA31014FEA02701FBF12F07F4393F07F4F81F06051704792F0000F14BF93F07F4F704730B54FF4607401F0004521F00041F3
:4039800020E700BF50EA010208BF704730B54FF000050AE050EA010208BF704730B511F0004502D5404261EB41014FF4806404F132045FEA915C3FF4DCAE4FF003025FEAD4
:4039C000DC0C18BF03325FEADC0C18BF033202EBDC02C2F1200300FA03FC20FA02F001FA03FE40EA0E0021FA02F11444C1E600BF70B54FF0FF0C4CF4E06C1CEA11541DBFAE
:403A00001CEA135594EA0C0F95EA0C0F00F0DEF82C4481EA030621EA4C5123EA4C5350EA013518BF52EA033541F4801143F4801338D0A0FB02CE4FF00005E1FB02E506F02C
:403A40000042E0FB03E54FF00006E1FB03569CF0000F18BF4EF0010EA4F1FF04B6F5007F64F5407404D25FEA4E0E6D4146EB060642EAC62141EA55514FEAC52040EA5E50F9
:403A80004FEACE2EB4F1FD0C88BFBCF5E06F1ED8BEF1004F08BF5FEA500E50F1000041EB045170BD06F0004646EA010140EA020081EA0301B4EB5C04C2BFD4EB0C0541EA07
:403AC000045170BD41F480114FF0000E013C00F3AB8014F1360FDEBF002001F0004170BDC4F10004203C35DA0C341BDC04F11404C4F1200500FA05F320FA04F001FA05F23C
:403B000040EA020001F0004221F0004110EBD37021FA04F642EB06015EEA430E08BF20EAD37070BDC4F10C04C4F1200500FA04F320FA05F001FA04F240EA020001F0004185
:403B400010EBD37041F100015EEA430E08BF20EAD37070BDC4F1200500FA05F24EEA020E20FA04F301FA05F243EA020321FA04F001F0004121FA04F220EA020000EBD37026
:403B80005EEA430E08BF20EAD37070BD94F0000F0FD101F00046400041EB010111F4801F08BF013CF7D041EA060195F0000F18BF704703F00046520043EB030313F4801FEB
:403BC00008BF013DF7D043EA0603704794EA0C0F0CEA135518BF95EA0C0F0CD050EA410618BF52EA4306D1D181EA030101F000414FF0000070BD50EA410606BF1046194641
:403C000052EA430619D094EA0C0F02D150EA013613D195EA0C0F05D152EA03361CBF104619460AD181EA030101F0004141F0FE4141F470014FF0000070BD41F0FE4141F43D
:403C4000780170BD70B54FF0FF0C4CF4E06C1CEA11541DBF1CEA135594EA0C0F95EA0C0F00F0A7F8A4EB050481EA030E52EA03354FEA013100F088804FEA03334FF08055BE
:403C800045EA131343EA12634FEA022245EA111545EA10654FEA00260EF000419D4208BF964244F1FD0404F5407402D25B084FEA3202B61A65EB03055B084FEA32024FF4D9
:403CC00080104FF4002CB6EB020E75EB030E22BFB61A754640EA0C005B084FEA3202B6EB020E75EB030E22BFB61A754640EA5C005B084FEA3202B6EB020E75EB030E22BF4A
:403D0000B61A754640EA9C005B084FEA3202B6EB020E75EB030E22BFB61A754640EADC0055EA060E18D04FEA051545EA16754FEA06164FEAC30343EA52734FEAC2025FEAFA
:403D40001C1CC0D111F4801F0BD141EA00014FF000004FF0004CB6E711F4801F04BF01430020B4F1FD0C88BFBCF5E06F3FF6AFAEB5EB030C04BFB6EB020C5FEA500C50F10E
:403D8000000041EB045170BD0EF0004E4EEA113114EB5C04C2BFD4EB0C0541EA045170BD41F480114FF0000E013C90E645EA060E8DE60CEA135594EA0C0F08BF95EA0C0F5E
:403DC0003FF43BAF94EA0C0F0AD150EA01347FF434AF95EA0C0F7FF425AF104619462CE795EA0C0F06D152EA03353FF4FDAE1046194622E750EA410618BF52EA43067FF4F3
:403E0000C5AE50EA41047FF40DAF52EA43057FF4EBAE12E74FF0FF3C06E000BF4FF0010C02E000BF4FF0010C4DF804CD4FEA410C7FEA6C5C4FEA430C18BF7FEA6C5C1BD038
:403E400001B050EA410C0CBF52EA430C91EA030F02BF90EA020F0020704710F1000F91EA030F58BF994208BF90422CBFD8176FEAE37040F0010070474FEA410C7FEA6C5CB7
:403E800002D150EA013C07D14FEA430C7FEA6C5CD6D152EA033CD3D05DF8040B704700BF8446104662468C461946634600E000BF01B5FFF7B7FF002848BF10F1000F01BDE8
:403EC0004DF808EDFFF7F4FF0CBF012000205DF808FB00BF4DF808EDFFF7EAFF34BF012000205DF808FB00BF4DF808EDFFF7E0FF94BF012000205DF808FB00BF4DF808ED24
:403F0000FFF7CEFF94BF012000205DF808FB00BF4DF808EDFFF7C4FF34BF012000205DF808FB00BF4FEA410C7FEA6C5C02D150EA013C0AD14FEA430C7FEA6C5C02D152EA31
:403F4000033C02D14FF0000070474FF0010070474FEA410212F5001215D211D56FF47873B3EB625212D94FEAC12343F0004343EA505311F0004F23FA02F018BF4042704783
:403F80004FF00000704750EA013005D111F0004008BF6FF0004070474FF00000704700BF4A0011D212F5001211D20DD56FF47873B3EB62520ED44FEAC12343F0004343EA6A
:403FC000505323FA02F070474FF00000704750EA013002D14FF0FF3070474FF000007047014B1868704700BF7087FF1F0E4B70B51E460E4C0025E41AA410A54204D056F896
:40400000253098470135F8E702F048FA084B094C1E46E41AA4100025A54204D056F8253098470135F8E770BDA8640000A8640000A8640000B064000010B5431E0A44914222
:4040400004D011F8014B03F8014FF8E710BD03460244934202D003F8011BFAE770472DE9F04788B0149F002B1E461299B8BF03F1004327F02007B6BF1E4600232D23462F1C
:404080001446109DDDF84CA00B7003D0452F03D1013501E0032300E0022307AA049206AA03928DE828042246334600F00DFD472F804602D1119BDB0728D5462F08EB050948
:4040C00011D198F80030302B0AD10022002320463146FFF7F5FE18B9C5F10105CAF80050DAF8003099440022002320463146FFF7E7FE08B9302202E0CDF81C9006E0079B74
:40410000994503D9591C07911A70F8E74046079B159AC8EB0303136008B0BDE8F087034673B50029B8BF494203F8022BB4BF2D222B22092942701ADD0DF1070216460A2538
:4041400091FBF5F405FB1411092C01F1300102F8011D2146F4DC3031541E02F8011CB4421A460AD214F8012B03F8012BF7E71A463024214402F8024B5970101A02B070BD73
:404180002DE9F04F91B00C46DDF8688016461F46054601F031FA03681846099300F0FEFB00230E93D8F800300A90073323F0070303F1080294F81890D4F800B0C8F80020A1
:4041C000D3E90023C4E91223D4F84CA0D4F848802AF000430B934FF0FF32A74B40460B99FFF7A0FEA0B94FF0FF32A34B40460B99FFF77AFE60B90022002340465146FFF7D7
:4042000069FE10B12D2384F843309C4B9C4A0AE04246534640465146FFF784FE002800F09281984B984AB9F1470F8CBF90469846032323612BF0040323604FF0000A3DE006
:40424000B9F1670F00F08A81B9F1470F00F0868123600193636800210DF13302059002920093424653460691CDF81090CDF80CE02846FFF7F4FE09F0DF03472B804600F013
:404280008481B9F1650F0D9900F28D8101394A4604F150000D91FFF742FF0E9A82468318012A236100F37C812268D10700F178819DF8333013B12D2384F843300097334650
:4042C0000FAA2146284600F09FF9013002D14FF0FF3096E123685A0501D4236965E0B9F1650F40F2D580D4E9120100220023FFF7E7FD78B30123654A31462846B847013088
:40430000E5D00E9B0D9A9A420BDB2368D80708D423689B0740F111814FF0000804F1190906E10A9B099A31462846B8470130CED04FF0000804F11A090E9B013B9845E7DA5E
:4043400001234A4631462846B8470130BFD008F10108F1E70D9B002B29DC01234B4A31462846B8470130B2D00D9B23B90E9B13B92368D907CCD50A9B099A31462846B847B2
:404380000130A4D04FF0000904F11A0A0D9B5B42994509DA0123524631462846B847013095D009F10109F1E70E9B4246A7E00E9AA36D9A42A8BF1A46002A914606DC4FF0AA
:4043C000000A29EAE97904F11A0B11E01346314642462846B8470130F1D178E701235A4631462846B84701303FF471AF0AF1010AA36DC9EB03029245F0DB08EB03090D9AD9
:404400000E9B9A420FDB2368DA070CD40E9B0D9A9844C9EB08089B1A9845A8BF9846B8F1000F08DC0FE00A9B099A31462846B8470130EBD14BE743464A4631462846B84727
:4044400001303FF444AF4FF0000928EAE87804F11A0A09E00123524631462846B84701303FF435AF09F101090D9A0E9B9B1AC8EB03039945EEDB4BE7FFFFEF7FDC620000FC
:40448000E0620000E4620000E8620000EC6200000E9A012A01DCDB0738D50123424631462846B84701303FF412AF0A9B099A31462846B84701303FF40AAFD4E9120100224D
:4044C0000023FFF7FDFC20B14FF0000804F11A090EE00E9B08F10102013B19E001234A4631462846B84701303FF4F1AE08F101080E9B013B9845F1DB534604F15002314630
:404500002846B84701307FF403AFE0E64246012331462846B8470130EED1D8E601234A4631462846B84701303FF4D1AE08F10108E3680F9A9B1A9845F0DBE0680F9B98421A
:40454000B8BF18465DE062680EA8531C0DF1340E4BF480637FF474AE062201E012B90122626075E6002106910DF133018DE80C00236005904246CDF81090CDF80CE002917B
:4045800053462846FFF76BFD80460D9BD81C02DB626893421DDDA9F102095FFA89F970E60133236184E6B9F1660F14D10029636807DD216113B92268D2071DD501330B44C4
:4045C00019E013B92268D00701D5023313E0012311E04FF067090D9B0E9A934205DB22682361D10708D5013305E0002BD4BFC3F102030123134423610D9B4FF0000AA36583
:4046000056E611B0BDE8F08F2DE9F04791461F460A698B6806469342B8BF1346C9F8003091F843200C46DDF8208012B10133C9F800302368990642BFD9F800300233C9F8CB
:404640000030256815F0060510D104F1190A07E00123524639463046C04701301AD00135E368D9F800209B1A9D42F1DB94F843302268003318BF012392060FD5E11830206C
:4046800081F843005A1C94F845102244023382F8431003E04FF0FF30BDE8F08704F1430239463046C0470130F4D02268D9F80050E36802F00602042A08BF5D1B2269A368F4
:4046C0000CBF25EAE57500259342C4BF9B1AED184FF000091A344D4509D00123224639463046C0470130D5D009F10109F3E70020BDE8F0872DE9F04317460A7E85B06E2ADB
:40470000984606460C460C9B01F1430E00F0AE8011D8632A22D009D8002A00F0BB80582A40F0CA8081F84520834955E0642A1ED0692A1CD0C0E0732A00F0B08009D86F2AAA
:404740002ED0702A40F0B8800A6842F020020A603EE0752A24D0782A3AD0ADE01A6801F14205111D1960136884F84230A8E021681A6811F0800F02D0111D196008E011F0CF
:40478000400F02F10401196002D0B2F9003000E01368002B3CDA2D225B4284F8432037E021681A6811F0800F02D0111D196007E011F0400F02F10401196001D0138800E006
:4047C0001368227E5C496F2A14BF0A2208221BE078225A4984F845202268186812F0800F00F104051D6003D1550601D5038800E00368D00744BF42F0200222601BB9226823
:4048000022F0200222601022002084F8430001E049490A226568002DA56008DB206820F0040020602BB9002D7DD175460CE0002B79D07546B3FBF2F002FB1033CB5C05F8EB
:40484000013D03460028F5D1082A0BD12368DA0708D5236962689A42DEBF302305F8013C05F1FF35C5EB0E0323612EE008681A6810F0800F496903D0101D1860136808E085
:4048800010F0400F02F104001860136801D0198000E0196000232361754616E01A68111D1960156800216268284600F0B1FE08B1401B6060636804E004F1420584F8422069
:4048C00001232361002384F84330CDF800803B4603AA21463046FFF797FE013002D14FF0FF3026E023692A4639463046C0470130F5D023689B0710D5002504F1190907E088
:4049000001234A4639463046C0470130E7D00135E368039A9B1A9D42F2DBE068039B9842B8BF184605E00B7804F1420584F842308AE705B0BDE8F083EE620000FF6200004A
:404940000EB400B54FF402719CB0ADF814106FF00041049107914FF6FF711DAB02900690084853F8042BADF81610006802A9019301F044FA029B00221A701CB05DF804EBBF
:4049800003B070477087FF1F10F8012B11F8013B012A28BF9A42F7D0D01A7047034613F8012B002AFBD1181A013870472DE9F74F03690C6980469C427FDC013C01F114078B
:4049C0004FEA840E00F1140606EB0E0357F82450019356F824300135B3FBF5F507EB0E09C5B34FF0000A3846B446D34650F8043B9AB205FB02A21B0C4FEA124A05FB03A3E4
:404A000092B2C2EB0B0BBCF800204FEA134A5A441FFA83FBDCF800308145CBEB134303EB224392B242EA03424FEA234B4CF8042BDCD256F80E306BB9019B043B9E421A465F
:404A400002D3C8F8104005E01268043B002AF8D1013CF3E7404600F0F6FF00282BDB304601354FF0000E57F8042B036891B2C1EB0E0E120C99B27144C2EB134303EB2143B0
:404A800089B24FEA234EB94541EA034340F8043BE9D256F8242006EB840362B9043B9E421A4602D3C8F8104005E01268043B002AF8D1013CF3E7284600E0002003B0BDE879
:404AC000F08F0000000000002DE9F04F456A95B08246219CCDE9022345B9102000F090FDCAF82400456085600560C560DAF82430196859B15A68012393404A608B60504654
:404B000000F0C9FDDAF8243000221A60039BA04A002BBDBF01232360039B0023BCBF23F000430393DDF80C80A8BF236028F000431B0D1B0593421DD142F20F73209A13606B
:404B4000029B43B9934A944BC8F31300002814BF1846104600E09048229B002B00F04685C37813B100F1080300E0C31C229A136000F03CBDDDE9024500220023204629460F
:404B8000FFF79EF9074658B1209A01231360229B002B00F01E8581481860013800F026BD12AB019313AB009322462B46504600F0C5FFC8F30A56049056B1C5F3130343F07D
:404BC0007F51204641F44011A6F2FF3611971DE0139B129E1E4406F23243202B0ADD029A06F21240C3F1400322FA00F008FA03F3184304E0C3F12000029B03FA00F0FEF7B5
:404C000081FE0123A1F1F871013E11930022644BFEF73AFD58A3D3E90023FEF7E9FE58A3D3E90023FEF732FD044630460D46FEF779FE55A3D3E90023FEF7DAFE02460B4686
:404C400020462946FEF722FD04460D46FFF780F900228346002320462946FFF73BF958B15846FEF75FFE02460B4620462946FFF727F908B90BF1FF3BBBF1160F0DD8DDE942
:404C80000223484901EBCB01D1E90001FFF740F930B10BF1FF3B002300E00123109300E01090129B9E1B731E079343BFC3F10008002307934FF00008BBF1000F06DB079BAA
:404CC000CDF82CB05B440793002705E00023CBEB0808CBF100070B931E9B092B28D8052BC4BF043B1E931E9BC8BF0025A3F10203D8BF0125032B20D8DFE803F0060E02043F
:404D0000012302E0012308E000230A931F9B002B1DDD9946059321E000230A931F9B0BEB030909F10103012B0593B8BF012315E0012500231E930A9501E001230A934FF002
:404D4000FF390022CDF8149012231F9206E04FF001094B46CDF81490CDF87C90DAF8244000226260042101F114029A421CD86268490001326260F6E761436F63A787D23FDF
:404D8000B3C8608B288AC63FFB799F501344D33F0000F07F1063000019630000ED6200000000F83F286300006168504600F03EFCDAF8243020601B680693059B0E2B00F285
:404DC0005B81002D00F05881DDE90234BBF1000FCDE90E3430DD9F4A0BF00F034FEA2B1502EBC303E80618CBCDE908340CD5DDE90E01994B05F00F05D3E90823FEF722FFA0
:404E00000324CDE9020100E00224934E6DB1E90708D5DDE90801D6E90023FEF7E9FDCDE9080101346D100836F0E7DDE90823DDE90201FEF707FF20E0CBF1000505B3DDE9BA
:404E40000E01844B05F00F0203EBC203D3E90023FEF7CEFDCDE902017F4E2D110023022455B1EA0705D5D6E90023FEF7C1FD013401236D100836F3E71BB1CDE9020100E036
:404E80000224109BE3B1DDE902560022734B28463146FFF71FF898B1059B8BB1B9F1000F40F3E6800BF1FF330893314600226C4B2846FEF79DFD0134CDE902014E4602E0AC
:404EC000059ECDF820B02046FEF72CFDDDE90223FEF78EFD634B0022FEF7D8FBA1F1507304460C931D46D6B9DDE9020100225E4BFEF7CAFB22460C9BCDE90201FFF708F8B7
:404F0000002840F03F820C99224601F10043DDE90201FEF7DFFF002840F02B82A8E00A9A4C4B711E002A49D003EBC103D3E9002300204E49FEF786FE22462B46FEF7A4FBB2
:404F4000CDE90C01069CDDE90201FFF701F80546FEF7E8FC02460B46DDE90201FEF794FBDDE90C23303504F8015BCDE90201FEF7B1FF002840F01D83DDE902230020374977
:404F8000FEF782FBDDE90C23FEF7A4FF002840F0D180069BE31AB3426ADADDE90C0100222F4BFEF725FD0022CDE90C01DDE902012B4BFEF71DFDCDE90201C4E703EBC101A5
:404FC0002246D1E900012B46FEF712FD069BCDE90C011D469C19DDE90201FEF7B9FF0646FEF7A0FC02460B46DDE90201FEF74CFB303605F8016BAC42CDE902014FF00002F5
:4050000022D11A4BDDE90C01FEF740FB02460B46DDE90201FEF77CFF002840F08B80DDE90C2300201149FEF72FFB02460B46DDE90201FEF74FFFD8B114F8013C621E302B00
:4050400040F0B7821446F7E7054BFEF7D1FCCDE90201C0E728630000006400000000F03F0000244000001C40000014400000E03FDDE90E34CDE90234139B002B7CDBBBF1FC
:405080000E0F79DCAB4B03EBCB03D3E900671F9B002B14DA059B002B11DC40F06C810022A54B30463946FEF7A3FCDDE90223FEF725FF059D2E46002840F05F8165E1069C2C
:4050C000DDE9028932463B4640464946FEF7BAFDFEF73EFF0546FEF725FC32463B46FEF787FC0B46024649464046FEF7CDFA05F1300E069B04F801EBC3EB040E059B734562
:405100002DD102460B46FEF7C1FA8046894602460B4630463946FEF7DDFE78B942464B4630463946FEF7CCFE002800F04482EB0704D440E2DDF820B000E01C4614F8012C4D
:40514000631E392A07D1069A9A42F6D1069930220BF1010B0A701A7801321A702BE20022764BFEF745FC0022002380468946FEF7A7FE0028A6D01EE20A9A002A2BD01E9AB5
:40518000012A0ADC119A12B103F2334302E0129BC3F136033D46444613E0059B5D1EAF42BFBF0B9BEA1B9B180B93059BB6BF2F467D1B0025002BA7BF4446059BC3EB080447
:4051C0000023079A01211A4450469844079200F001FB064602E03D4644460A9E5CB1079B002B08DDA342A8BF2346079AC3EB0808E41AD31A0793002F1DDD0A9BABB18DB1D1
:4052000031462A46504600F07FFB049A01460646504600F0E8FA04990890504600F03BFA089B04937A1B06D000E03A460499504600F06AFB04900121504600F0CBFA0B9BCA
:4052400005465BB31A460146504600F05DFB1E9B0546012B18DC029B83B9039BC3F3130373B9039B23F000473F0D3F054FB1079B08F1010801330793012702E0002700E0B2
:40528000029F0B9B73B100E000272B6905EB8303186900F052FAC0F1200004E01E9B012BD9DD0B9F0120079B184410F01F0008D0C0F12003042B02DDC0F11C0002E006D03E
:4052C00018461C30079B8044034404440793B8F1000F05DD42460499504600F063FB0490079B002B05DD29461A46504600F05AFB0546109B23B32946049800F0A4FB002857
:405300001EDA00230A220499504600F0DBF90A9B0BF1FF3B0490002B00F05F81314600230A22504600F0CEF9B9F1000F06463FDC3BE000BF28630000000014400000244075
:40534000059B002B2BDC1E9B022B28DDDDF81490B9F1000F11D129464B460522504600F0B1F901460546049800F06DFB00280CDC03E0354600E000252E461F9B069C6FEAE3
:40538000030B09E03546DDF820B0069B069A5C1C312313700BF1010B05960026F7E00A9BDDF8149023B9069CB2E01E9B022BCFDC002C05DD31462246504600F0F3FA06463B
:4053C0009FB17168504600F031F90446326906F10C01023292000C30FEF72EFE01222146504600F0DFFA059000E00596029B069F03F00103079329460498FFF7D7FA3146B3
:40540000044600F13008049800F01DFB059A02902946504600F033FBC36802463BB901460A90049800F00FFB0A9A034600E00123114650460A9300F02EF90A9B53B91E9A28
:4054400042B9079A32B9B8F1390F2AD0029B002B1CDC1DE0029A002A04DB1BD11E9ACAB9079ABAB9002B13DD01220499504600F099FA2946049000F0E6FA002803DC07D177
:4054800018F0010F04D0B8F1390F0AD004F131087C1C0CE0002B07F101040BDDB8F1390F03D139233B70013756E008F1010887F800806CE0069B2746E31A4B4504F8018CC8
:4054C0003BD000230A220499504600F0FBF8059B04909E424FF00A024FF000033146504604D100F0EFF80646059084E700F0EAF8002306460A220599504600F0E3F8059095
:4055000079E700230A220499504600F0DBF8049029460498FFF74AFA069B00F1300804F8018BE31A4B45ECDB069B0596B9F1010FACBF4B4401331F46002601220499504642
:4055400000F030FA2946049000F07DFA002803DC15D118F0010F12D03C4614F8013C621E392B09D1069B934204D10BF1010B3123069A02E01446F0E70133137007E03C46BD
:4055800014F8013C621E302B01D11446F8E72946504600F080F8059B6BB12EB19E4203D03146504600F077F80599504600F073F801E0DDF820B00499504600F06CF80023D6
:4055C000209A23700BF101031360229B1BB11C6001E008480AE0069808E0B9F1000F3FF7E2AE1E9B022B7FF7DEAEB1E615B0BDE8F08F00BFEC620000004870477487FF1F39
:40560000024B0146186800F041BB00BF7087FF1F10B5C9B202449042034605D01C7801308C42F8D1184610BD002010BD70B5456A04460E463DB91020FFF7E2FF60624560D6
:4056400085600560C560656AEB6843B1636ADB6853F8260078B1026843F8262017E021220421204600F0B8FA636AE860DB68002BECD1002070BD012101FA06F56A1D9200EB
:40568000204600F0A9FA0028F3D04660856000230361C36070BD70B5446A06460D463CB91020FFF7ADFF7062446084600460C4603DB1736A6A68DB6853F82210296043F868
:4056C000225070BD2DE9F04106460C460D691F4601F1140E0023DEF80000013381B202FB0171000C0F0C02FB007089B201EB00419D424FEA10474EF8041BECDCD7B1A3683D
:405700009D4212DB616830460131FFF78FFF8046226904F10C01023292000C30FEF78CFC21463046FFF7B7FF444604EB850301355F6125612046BDE8F081030C1B0413B95A
:405740000004102300E0002310F07F4F04BF0002083310F0704F04BF0001043310F0404F04BF80000233002803DB420003D5581C70471846704720207047036813F0070292
:405780000BD0D90722D49A074BBF5B089B08036003604CBF01200220704799B209B91B0C102213F0FF0F04BF1B0A0832190704BF1B090432990704BF9B080232D90702D4F6
:4057C0005B0805D00132036010467047002070472020704710B50C460121FFF727FF01224461026110BD2DE9F74F14460A69236988469A42BEBF0B46A0461C46D8F81070EE
:40580000D4F81090D8F80830D8F8041007EB09069E42C8BF0131FFF709FF00F114052B4605EB860C0022634502D243F8042BFAE704F1140208F1140102EB890301EB870786
:405840000093009B0192934257D9B2F800B0BBF1000F23D08946AE464FF0000859F8044BBEF800A0A3B20BFB03A34FEA144ADEF8004043444FEA14480BFB0A84F24604EBD5
:4058800013449BB243EA04434F454FEA14484AF8043B01D9D646E1E7CEF80480019B0432B3F802A0BAF1000F21D02C4689462B684FF00008B9F800E0B4F802B09BB20AFBF8
:4058C0000EBEA346F04443EA08434BF8043B59F8043BB4F804E01B0C0AFB03E34F4503EB18434FEA134801D95C46E3E763600435A7E75CF8043D13B9013E002EF9DC066148
:4059000003B0BDE8F08F00002DE9F843154612F0030206460F4607D0214C013A002354F82220FFF7CFFE0746AD1036D0746A3CB91020FFF765FE7062446084600460C460FB
:40594000D6F82480D8F808404CB940F271213046FFF740FF04460023C8F8080003604FF00008EB070AD5394622463046FFF73BFF814639463046FFF78EFE4F466D100CD0C0
:40598000206808B10446ECE7224621463046FFF72AFF2060C0F80080F4E73846BDE8F883F06300002DE9F0470C460746914626694FEA621A56444968A368751CAB4202DAEA
:4059C00001315B00FAE73846FFF730FE002380461A4600F11401534503DA41F823200133F9E72AEAEA73206901EB830319F01F0904F1140101EB800E14D0C9F1200C002236
:405A000008689A4600FA09F0024343F8042B51F8042B8E4522FA0CF2F2D8CAF8042042B1B51C06E0043B51F8042B8E4543F8042FF9D8013D3846C8F810502146FFF72BFE8A
:405A40004046BDE8F08703690A6910B59B1A11D192001430143183180A4453F8044D52F8041D8C4202D007D3012010BD9842F4D3002010BD184610BD4FF0FF3010BD2DE9CC
:405A8000F8430C460746114620461546FFF7DBFF061E08D131463846FFF7C8FD012303614661BDE8F883BCBF23462C4638466168BABF1D4601260026FFF7B8FD2B69C660FD
:405AC000266905F1140904F1140101EB860709EB830800F114054FF0000C51F8042B59F8044B93B29C44A3B2240CC3EB0C03C4EB124202EB23429BB24FEA224CC84543EAAB
:405B000002428E4645F8042BE7D8BE450ED25EF8041B8AB26244131403EB114392B242EA03424FEA234C45F8042BEEE755F8043D0BB9013EFAE70661BDE8F8832DE9F3419E
:405B40001C4601219046089E099DFFF76FFDC4F31302C4F30A5407460CB142F480120192B8F1000F19D002A840F8088DFFF705FE009B48B1019AC0F1200102FA01F10B4389
:405B8000C2407B61019200E07B61019B002B14BF02210121BB61396107E001A8FFF7EDFD019B01217B613961203034B1A4F2334404443460C0F1350009E0A0F2324007EB9C
:405BC000810330601869FFF7B8FDC0EB41102860384602B0BDE8F08138B502FB01F4214600F054F8054618B122460021FEF72FFA284638BD38B50546002944D051F8043CFD
:405C00000C1F002BB8BFE41800F017FA1E4A1368114613B96360146030E0A3420DD92268A018834201BF18685B681218226063600C6023E0A24203D813465A68002AF9D1CC
:405C400018681918A1420BD12168014458188242196013D110685268014419605A600DE002D90C232B6009E021686018824201BF106852680918216062605C602846BDE856
:405C8000384000F0DBB938BD2895FF1F70B5CD1C25F0030508350C2D38BF0C25002D064601DBA94202D90C23336046E000F0C5F9234B1C681A462146A1B10B685B1B0ED4C8
:405CC0000B2B03D90B60CC18CD501EE08C420BBF63684B681360636018BF0C4615E00C464968E9E7174C23681BB9304600F07AF920602946304600F075F9431C18D0C41C66
:405D000024F00304A0420DD12560304600F096F904F10B00231D20F00700C31A0ED05A42E25070BD211A304600F05CF90130EBD10C233360304600F081F9002070BD00BF70
:405D40002895FF1F2495FF1F2DE9F0478E6882469E420C46914698463ED88A8912F4906F3AD02568096902236F1A656905EB450595FBF3F57B1C43449D4238BF1D4653056B
:405D80000FD52946FFF782FF064698B13A462169FEF752F9A38923F4906343F08003A38113E02A4600F04BF9064670B921695046FFF720FF0C23CAF80030A3894FF0FF302E
:405DC00043F04003A381BDE8F08726613E44266046466561ED1BA560464528BF464649463246206800F00EF9A36800209B1BA36023681E442660BDE8F08700002DE9F04FB3
:405E00009DB003938B8980461C060D4616460DD50B695BB94021FFF739FF2860286118B90C23C8F80030CDE040236B610023099320238DF82930DFF89CB130238DF82A30C8
:405E400037463C4614F8013B1BB9B7EB060910D003E0252BF9D02746F3E74B46324629464046FFF771FF013000F0A780099B4B4409933B78002B00F0A08000234FF0FF3237
:405E800004930793059206938DF853301A930126052221784E48FFF7BBFB671C049B38B14B4A3C46801A06FA00F018430490EFE7D90644BF20228DF853201A0744BF2B22A5
:405EC0008DF8532022782A2A03D0079A00210A200BE0039A111D12680391002A10DA524243F00200079204900BE027463B780134303B092B03D800FB02320121F5E701B196
:405F000007923B782E2B1ED17B782A2B0AD1039B02371A1D1B680392002BB8BF4FF0FF33059310E0002319460593781C0A2407463A780130303A092A03D804FB0121012320
:405F4000F5E703B10591032239782248FFF760FB40B14023CBEB000003FA00F0049B013718430490397806221B487E1C8DF82810FFF74EFB88B1194B33B9039B073323F067
:405F800007030833039314E003AB00932A46144B04A94046FEF7F4F807E003AB00932A460F4B04A94046FEF7A5FBB0F1FF3F824603D0099B5344099342E7AB895B0601D450
:405FC000099801E04FF0FF301DB0BDE8F08F00BF286400002E6400003264000081410000495D000038B5064C0023054608462360FCF75EFC431C02D1236803B12B6038BD29
:406000004895FF1F884210B501EB020301D8421E0BE09842FBD28118D21AD34204D013F8014D01F8014DF8E710BD994204D011F8014B02F8014FF8E710BD70477047F8B54B
:40604000074615460E4621B91146BDE8F840FFF71DBE1AB9FFF7CEFD2846F8BD00F015F885420ED929463846FFF710FE044650B131462A46FDF7E0FF31463846FFF7BAFD4B
:4060800001E03046F8BD2046F8BD51F8040C0028BEBF091851F8043CC0180438704700000000000000000000AFD580A83FD300408D142000A0C0DA0281CFD9F1DB40001006
:4060C000A4A6AE00EC83FF1FCC80FF1F080000008D120000B1120000D912000074656D706572617475726500424D45323830000070726573737572650000000068756D6914
:40610000646974790000000066696C746572000074656D70657261747572654F5652530070726573737572654F5652530000000068756D69646974794F56525300000000AD
:406140006D6F6465000000008D120000B1120000D9120000BD12000074656D706572617475726500424D45323830000070726573737572650000000068756D69646974795C
:4061800000000000030000000D200000010000001921000002000000F9220000030000008920000003000000C120000004000000ED2100000100000081210000040000000E
:4061C0006922000004000000A122000005000000C523000002000000592300000500000041240000050000007924000054656D70657261747572653A0A257520000000004A
:40620000545F706572696F643A2044495341424C45440000545F706572696F643A202575206D730050726573737572653A0A257520000000505F706572696F643A204449FC
:406240005341424C45440000505F706572696F643A202575206D730048756D69646974793A0A257520252500485F706572696F643A2044495341424C45440000485F706580
:4062800072696F643A202575206D7300C84900401900004F00400C00005100401000205100405000F05100401000000001400008800801408007001401400008004001408D
:4062C000000A004C014000020050014020000000000801401805004880004300494E4600696E66004E414E006E616E003000303132333435363738394142434445460030AD
:4063000031323334353637383961626364656600496E66696E697479004E614E00504F534958002E00000000000000000000F03F00000000000024400000000000005940F7
:406340000000000000408F40000000000088C34000000000006AF8400000000080842E4100000000D01263410000000084D797410000000065CDCD41000000205FA0024212
:40638000000000E876483742000000A2941A6D42000040E59C30A2420000901EC4BCD64200003426F56B0C430080E03779C3414300A0D8855734764300C84E676DC1AB436A
:4063C000003D9160E458E143408CB5781DAF154450EFE2D6E41A4B4492D54D06CFF08044F64AE1C7022DB544B49DD9794378EA4405000000190000007D00000000000000F9
:406400000080E03779C34143176E05B5B5B89346F5F93FE9034F384D321D30F94877825A3CBF737FDD4F1575232D302B2000686C4C006566674546470000000000000000EE
:40644000000000000000000000000000000000000000000000000000000000000000000000000000000000000000000000000000000000000000000000000000000000001C
:4064800000000000000000000000000000000000000000000000000000000000F8B500BFF8BC08BC9E4670474D00000099290000F8B500BFF8BC08BC9E46704729000000A6
:4064C000D0640000C880FF1FE8060000A00D0000000000000000000000000000183C3C3C180018186C480000000000006666FF6666FF6666287CAA7C2AAA7C28E1A2E4088C
:406500001027458700304830588D867B18100000000000000810202020201008100804040404081099DB3CFFFF3CDB990018187E7E18180000000000001808100000007E4A
:406540007E000000000000000000181801020408102040803C42858991A1423C30501010101010FF7E810106186181FF7E81810E0181817E060A122242FF0207FF8180FEC9
:406580000181817E7E8180FE8181817EFF810204081010387E81817E8181817E7E8181817F01817E00000018180018180000181800180810000C18306030180C00007E7EB3
:4065C000007E7E00006030180C1830603E4141021C0018183C429D85BD45453A182442427E4242E7FC42447E414141FE3D4381808081433DFC424141414142FCFF41407830
:40660000404041FFFF414148784840E03F41809F9181413EE742427E424242E7FE101010101010FE3F040404C4848478EF444870484442E7E0404040404141FFC76A52526A
:40664000424242E7C762524A464242E73C4281818181423CFE4141417E4040E07E81818181917E10FE4141417E4442E77D83817C0281C1BEFF8908080808081CE742424293
:406680004242423CE742424222241408E74242425252522CE7422418242442E7E74224140808081CFF828408102141FF1C1010101010101C8040201008040201380808082A
:4066C00008080838102844000000000000000000000000FF180C00000000000000007C027E82827FC0405E61414141FE00007E818080817E01017D838181837D00007E81AB
:40670000FF80817E1E212178202020F8037E81FE407E817EE0405C62424242E7100030101010107C02000E020202827CE04E4478484442E7180808080808087F0000B649EE
:40674000494949DB0000DC62424242E700007E818181817E00FE4141417E40E0007E8282827E02070000DC62424040E000007E807E0181FE10107C101010110E0000E7429E
:406780004242423C0000E742242414080000E7425252522C0000E724182442E70000E742423E827C0000FF810E7081FF18302060602030181818181818181818180C0406EC
:4067C00006040C18000000304906000000FF81C3BD8181FF3B438080808040387B43407840404040F888F887818F898FFFC3A59999A5C3FF00000000080801014000000006
:40680000080801018000000008080101C000000008080101000100000808010140010000080801018001000008080101C001000008080101000200000808010140020000C0
:40684000080801018002000008080101C002000008080101000300000808010140030000080801018003000008080101C00300000808010100040000080801014004000070
:40688000080801018004000008080101C004000008080101000500000808010140050000080801018005000008080101C00500000808010100060000080801014006000020
:4068C000080801018006000008080101C006000008080101000700000808010140070000080801018007000008080101C007000008080101000800000808010140080000D0
:40690000080801018008000008080101C008000008080101000900000808010140090000080801018009000008080101C009000008080101000A000008080101400A00007F
:4069400008080101800A000008080101C00A000008080101000B000008080101400B000008080101800B000008080101C00B000008080101000C000008080101400C00002F
:4069800008080101800C000008080101C00C000008080101000D000008080101400D000008080101800D000008080101C00D000008080101000E000008080101400E0000DF
:4069C00008080101800E000008080101C00E000008080101000F000008080101400F000008080101800F000008080101C00F0000080801010010000008080101401000008F
:406A0000080801018010000008080101C010000008080101001100000808010140110000080801018011000008080101C0110000080801010012000008080101401200003E
:406A4000080801018012000008080101C012000008080101001300000808010140130000080801018013000008080101C013000008080101001400000808010140140000EE
:406A8000080801018014000008080101C014000008080101001500000808010140150000080801018015000008080101C0150000080801010016000008080101401600009E
:406AC000080801018016000008080101C01600000808010100170000080801014017000008080101801700000808010100180000080801014018000008080101C01700004E
:406B0000080801018018000008080101C0180000080801015095FF1F000000003C6400005C6400007C64000000000000000000000000000000000000DA6200000000000030
:406B400000000000000000000000000000000000000000000000000000000000000000000000000000000000000000000000000000000000000000001087FF1F23630000DA
:406B80002D6400002D6400002D6400002D6400002D6400002D6400002D6400002D6400002D640000FFFFFFFFFFFFFFFFFFFFFFFFFFFF0000000000000000000000000000CA
:406BC0000000000000000000000000000000000000000000000000000000000000000000000000000000000000000000000000000000000000000000000000000000000095
:406C00000000000000000000000000000000000000000000000000000000000000000000000000000000000000000000000000000000000000000000000000000000000054
:406C40000000000000000000000000000000000000000000000000000000000000000000000000000000000000000000000000000000000000000000000000000000000014
:406C800000000000000000000000000000000000000000000000000000000000000000000000000000000000000000000000000000000000000000000000000000000000D4
:020000040003F7
:0200000480007A
:4000000001450040024F004002520040016400400165004001030140010701400808014044090140440A01402C0B0140040C0140030D01400415014003170140491801405D
:40004000481901403F1A0140451B014007400140064101400A420140054301400244014001450140014601400247014009480140144901400F4C01400D4D01400450014061
:4000800003510140620101800A4B6082640388728B3BE640EE0188019A01B201D203D804DB04DC01DF0100100408051007400A080C060E040F011590170518201D0B2440ED
:4000C00027022C032D022F083414350136243DA03E043F0145A847024C404D024E084F08560157605F08680A69206D916E046F09746476127720901093A194A4952196287E
:4001000099209B089C119D019E139F04A180A294A42EA530A620A760AA01B401C072C2F2C4F0CAB0CCE0CEF0D0F0D220D64001020601070409030C020D03100112021303D9
:400140001503160119011A041C082102270329032F0332043403360837073B803E50580459045C015F018112827284078513883889F78A438C188E408F24920493BF954800
:400180009797983999689A409B939C2B9D7F9E409F80A112A45BA511A620A907AEFBAFBFB007B280B37FB478B5C0B678BAA0BF14D804D904DF0102010320048005110710DB
:4001C00008010A280B020D220F0114011704181219201D921E281F51214022802301271828112A122C2A2D01302031013304350136A4380439A13C083D203E023F809420EE
:40020000A201C0F5C2DFC4A0CAFFCCF7CEFF38803E4058045F011E028C10E640E008E608EA01EE88E202E401E6080120056009060B790D041379157F19061A021D4021073C
:4002400022012370250229792A022B062D012F08300232013307351E37603B203E01580459045F018065816C82928313849985018666886789608A888C448D678F18921EF1
:40028000931F94F9957B9602970499209A019C019D02A004A140A424A50FA770A864A903AC01AD03AE06AF1CB280B47FB57FB77FB808BBA0BE10D804D904DF01008002A00D
:4002C00003A4088009020A010B280F081022110113201480171018041A201F05216022202401251026082714280129102A022B202C262F8030203101334435013604376063
:4003000038083A103B813C883D203E0144044520854490489111920493A1940495809628980199239A129B219D109F44A062A102A294A304A530A628A804C00FC24FC45FD1
:40034000CAFFCCFFCEFFE20AE401EE01060307040C080F02120814011F0126043008310132023304340436013702580459045C115F018010822083018601870288188A2097
:400380008C018D088F109040910192819480950196409A029B019D089E019F10A008A220A320A401A701AA04AB04AE01AF21B11FB2C0B320B43FB820B902BE04BF04D41BF7
:4003C000D604D804D904DB04DF0500800320051807410AA00C020E240F011020148015901680170419401A201B211C081D101F042080224427602C022D1A2F10324036203F
:400400003745388039083E843F015C415F206440652067027F048460888090C1919892049323960899229B059C809D509F40A002A230A404A701AF01B440C0F5C2FCC4F4EE
:40044000CAF0CCF8CEDAD6B0D8B0DE20E008E202EA01EE8032043380358037023910CCF0CE108D80951096089D809F02A78013023E105904951096089F02A780C410CE20A9
:40048000D64095109618A780A904EE807C40DE0494409440B440E80281018408878095109618A780E240E480E61011021640700876208510864095109A20A008A501AA1029
:4004C000AE04B220C430DC80DE20E010E610EA80EE100A040C800D08132416407B087F40830884808704A620AA20C207C40EDE031220860487408A2092049780A620AB20CD
:40050000B240B508C408E204EE0900030C0310031C0300BF010303C000208044003E800000444010003A000401000241040202443F080044200002003D0002400200100057
